:100000000000012089030000710300007303000059
:100010007503000077030000790300000000000072
:100020000000000000000000000000007B03000052
:100030007D030000000000007F030000AD0500000C
:100040008303000083030000830300008303000098
:100050008303000083030000830300008303000088
:100060008303000083030000830300008303000078
:100070008303000083030000830300008303000068
:100080008303000083030000830300008303000058
:100090008303000083030000830300008303000048
:1000A0008303000083030000830300008303000038
:1000B0008303000083030000000000000000000034
:1000C0008303000083030000830300008303000018
:1000D000830300008303000083030000000000008E
:1000E0000000000000000000000000000000000010
:1000F0000000000000000000000000000000000000
:1001000000000000000000000000000000000000EF
:1001100000000000000000000000000000000000DF
:1001200000000000000000000000000000000000CF
:1001300000000000000000000000000000000000BF
:1001400000000000000000000000000000000000AF
:10015000000000000000000000000000000000009F
:10016000000000000000000000000000000000008F
:10017000000000000000000000000000000000007F
:10018000000000000000000000000000000000006F
:10019000000000000000000000000000000000005F
:1001A000000000000000000000000000000000004F
:1001B000000000000000000000000000000000003F
:1001C000000000000000000000000000000000002F
:1001D000000000000000000000000000000000001F
:1001E000000000000000000000000000000000000F
:1001F00000000000000000000000000000000000FF
:100200003A493B480A1A02D0072291438D463949A0
:1002100039480A1A06D00722914381F3098802223D
:1002200082F3148835483649364A00F041F836489A
:100230003649374A00F03CF836483749374A00F02B
:1002400037F837483749384A00F032F837483849E4
:10025000384A00F02DF838483849394A00F028F873
:1002600038483949394A00F023F8394839490022D9
:1002700000F036F838483949002200F031F83848A3
:100280003849091A03F065FD374A90472548264941
:10029000884205D00268043003B4904703BCF7E7F6
:1002A00000208646EC4600200021304A9047FEE7B9
:1002B000884214D0521A12D003460B43134303242E
:1002C000234206D1036804300B600431043AF9D1AB
:1002D0007047037801300B700131013AF9D1704752
:1002E000884202D002700130FAE770470000012016
:1002F00000E000200000012000000120F842000082
:100300000000002024000020E4030000E4030000BB
:10031000A83E0000F842000000000020000000207D
:10032000A83E0000A83E0000A83E0000A83E000035
:10033000A83E0000A83E0000A83E0000A83E000025
:10034000F74200001C43000024000020240000208D
:1003500024000020F4080020F4080020F408002005
:10036000F4080020F4280020B10300005D12000012
:10037000FEE7FEE7FEE7FEE7FEE7FEE7FEE7FEE755
:10038000FEE7FEE700F002B8FFF7FCBF0F484FF0B2
:100390000701884385460E4880470E48016841F4AE
:1003A00070010160BFF34F8FBFF36F8FFFF728BF5E
:1003B00009480A490A4A884207D0521A05D00378E8
:1003C00001300B700131013AF9D170470000012072
:1003D000BD2C000088ED00E0A83E000000000020D9
:0403E00000000020F9
:1003E40084B00190019B03F0070303930B4BDB687C
:1003F4000293029A4FF6FF0313400293039B1A02DF
:10040400029B134343F0BF6343F400330293034A54
:10041400029BD36000BF04B0704700BF00ED00E052
:1004240082B0034600918DF807309DF90730002B08
:100434000CDA009BDAB20C499DF8073003F00F0385
:10044400043B5201D2B20B441A7609E0009BDAB2A3
:1004540006499DF907305201D2B20B4483F80023B8
:1004640000BF02B0704700BF00ED00E000E100E013
:1004740000B583B00190019B013BB3F1807F01D3B0
:1004840001230FE0094A019B013B536007214FF010
:10049400FF30FFF7C5FF054B00229A60034B07228C
:1004A4001A600023184603B05DF804FB10E000E076
:1004B40000B583B00190019B1B681F2B04D905492B
:1004C40040F2CD1000F04CFF4FF0A043184603B0AB
:1004D4005DF804FBA83E000000B585B00190084615
:1004E40011461A4603468DF803300B468DF8023048
:1004F40013468DF8013001AB1846FFF7D9FF03907E
:100504009DF803209DF802305B001A439DF80130EA
:100514009B001A439DF818301B0242EA03019DF820
:100524001C301B04019A1943039B02F5E07243F843
:10053400221000BF05B05DF804FB00B585B0039040
:100544000023019300230093002301220121039837
:10055400FFF7C2FF00BF05B05DF804FB00B585B02E
:10056400019001AB1846FFF7A3FF0390039BD3F858
:1005740004350293029BDA43019B012101FA03F340
:100584001A40039BC3F80825019B01229A40029B51
:100594001A40039BC3F80C2500BF05B05DF804FBAB
:1005A40082B001900091FEE708B5124B1B6801333D
:1005B400104A13600F4B1A6813469B0013445B00E8
:1005C4001A460D4B1A600B4B19680C4BA3FB012305
:1005D4009A0813469B001344CA1A002A02D10B201E
:1005E400FFF7BCFF0021002002F002F9BFF34F8F98
:1005F40000BF08BD280000202C000020CDCCCCCCAE
:1006040008B50B20FFF799FF02F04CFB40F2D240F3
:1006140000F098F800BF08BD00B587B0082250214B
:10062400234801F07DFB0921224801F009FE002343
:100634008DF8173024E09DF81730184600F0E2F8E2
:100644009DF817301C4A52F823009DF817309BB2CE
:10065400033399B29DF8172013469B001344DB0023
:10066400164A1A44002302930023019300230093A3
:100674000A2302F057FA9DF8173001338DF817302A
:100684009DF81730042BD6D900F08AFA0C4B186861
:100694000023029300230193002300930523094AB6
:1006A4000C2102F03FFA00BF07B05DF804FB00BF65
:1006B4003000002080000020A03F0000C80000207F
:1006C400004000009001002000B583B00346009173
:1006D4008DF80730009B1B78742B07D1114B1B68D6
:1006E4009DF807201946104802F07DFE009B1B78F8
:1006F400682B07D10B4B1B689DF8072019460B4844
:1007040002F071FE009B1B78652B07D1054B1B681B
:100714009DF807201946064802F065FE00BF03B0A5
:100724005DF804FB2C000020D03E0000FC3E0000DD
:10073400283F000082B003468DF8073000BF02B0A6
:100744007047000082B00190024A019B136000BF11
:1007540002B070472400002082B0074B1B68074A90
:1007640002FB03F30193044A019B1360019B1B0AE0
:10077400184602B0704700BF24000020CD0D0100D0
:1007840008B5094B1B68094AA2FB03235B091846F9
:10079400FFF76EFE0020FFF723FE02214FF0FF302B
:1007A400FFF73EFE00BF08BD000000201F85EB518F
:1007B40008B502F0FDF900BF08BD000008B5FFF759
:1007C400CBFF0246054BA3FB02135B09642101FB2B
:1007D40003F3D31A3233184608BD00BF1F85EB510B
:1007E40008B5FFF7B9FF0246054BA3FB02135B09EB
:1007F400642101FB03F3D31A6433184608BD00BF18
:100804001F85EB5100B585B00190019B9B010C4AFB
:1008140013440393039B0B49184601F051FE039BB9
:1008240003F12800039900230A2201F029FF019B08
:10083400DAB2039B83F83C2000BF05B05DF804FBEB
:10084400A40100204D08000000B583B00190009180
:10085400019B0421184601F0D3FD019B0821184691
:1008640001F0CEFD019B034A9A600823184603B0A9
:100874005DF804FB7D08000010B584B00190009180
:10088400009B1B88013B092B5FD801A252F823F07F
:10089400BD080000DB0800004F090000FB08000051
:1008A400210900004F0900004F090000470900001A
:1008B4004F090000ED080000019B03F12804FFF735
:1008C4007DFF034600221946204601F00BFF032357
:1008D4008DF80F3040E0019B2833184601F05CFF8F
:1008E40003238DF80F3037E0019B1E4A9A600823DA
:1008F4008DF80F3030E002F06DF9009B1A79019BFE
:1009040093F83C309A4203D197211748FFF748FEE9
:1009140002F072F903238DF80F301DE002F05AF94A
:10092400009B1A79019B93F83C309A4203D19D2194
:100934000D48FFF735FE02F05FF903238DF80F3001
:100944000AE003238DF80F3006E0019B074A9A6002
:1009540000238DF80F3000BF9DF80F30184604B007
:1009640010BD00BF75090000543F0000191A0000B3
:1009740000B585B001900091009B1B88052B30D0F9
:10098400052B41DC012B02D0042B18D03CE00B22B8
:100994004FF6FF71062001F003FA0290019B93F8D1
:1009A4003C20029B1A711F4B1868029900234FF6D2
:1009B400FF7201F093F803238DF80F302BE0009BB6
:1009C4001A79019B93F83C309A4206D1019B164A4E
:1009D4009A6008238DF80F301DE002238DF80F3044
:1009E40019E002F0F7F8009B1A79019B93F83C3068
:1009F4009A4203D1CC210D48FFF7D2FD02F0FCF856
:100A040003238DF80F3006E0019B094A9A60002306
:100A14008DF80F3000BF9DF80F30184605B05DF813
:100A240004FB00BF00400000390A0000543F0000EE
:100A3400191A000010B584B001900091009B1B8826
:100A4400013B092B6DD801A252F823F0790A00006A
:100A5400970A0000270B0000DB0A0000010B0000CE
:100A6400270B0000270B0000270B0000270B0000BA
:100A7400CD0A0000019B03F12804FFF7B1FE0346F1
:100A840000221946204601F02DFE03238DF80F3075
:100A94004EE0019B2833184601F07EFE05224FF6F6
:100AA400FF71062001F07CF90290019B93F83C2031
:100AB400029B1A71029B00220021184601F0F2FBEE
:100AC40003238DF80F3033E0019B1C4A9A600823FE
:100AD4008DF80F302CE002F07DF8009B1A79019B11
:100AE40093F83C309A4203D1F8211548FFF758FD9A
:100AF40002F082F803238DF80F3019E002F06AF84F
:100B0400009B1A79019B93F83C309A4203D1FE2151
:100B14000B48FFF745FD02F06FF803238DF80F3003
:100B240006E0019B074A9A6000238DF80F3000BF4E
:100B34009DF80F30184604B010BD00BF7D080000BA
:100B4400543F0000191A000082B003468DF80730A4
:100B54009DF80730191D064BA3FB01239A08134681
:100B64009B001344CA1AD3B2184602B0704700BFA0
:100B7400CDCCCCCC82B003468DF807309DF807303D
:100B8400591C064BA3FB01239A0813469B001344EC
:100B9400CA1AD3B2184602B0704700BFCDCCCCCC31
:100BA40000B583B0134B0093009B1349184601F022
:100BB40087FC00238DF8073012E09DF80730009A77
:100BC4001344002283F828209DF80730009A134428
:100BD400002283F82D209DF8073001338DF807306B
:100BE4009DF80730042BE8D900BF00BF03B05DF8BF
:100BF40004FB00BFE4020020010C000000B585B036
:100C040001900091019B0521184601F0F9FB019B1D
:100C14000621184601F0F4FB019B0721184601F058
:100C2400EFFB019B0821184601F0EAFB00238DF835
:100C34000F3018E09DF80F30019A1344002283F816
:100C440028209DF80F30019A1344002283F82D20A8
:100C54009DF80F300A491846FFF736FD9DF80F300E
:100C640001338DF80F309DF80F30042BE2D9019B2E
:100C7400044A9A600823184605B05DF804FB00BFD7
:100C840004400000D90C000000B585B0019000912B
:100C9400009B1B88042B05D0082B09D103238DF856
:100CA4000F300CE001F096FF94210848FFF778FC20
:100CB400019B074A9A6000238DF80F3000BF9DF80E
:100CC4000F30184605B05DF804FB00BFB43F0000C8
:100CD400191A000000B589B001900091009B1B888F
:100CE400013B0A2B00F2D28101A252F823F000BF8B
:100CF400210D0000911000009110000075100000FB
:100D0400B50E000083100000911000009110000047
:100D14009110000091100000DF0D000000238DF8F9
:100D24001E3052E09DF81E30019A134493F82D3082
:100D3400002B45D09DF81E301846FFF71BFF0346D5
:100D44001A46019B134493F82830002B38D19DF8A0
:100D54001E30019A134493F82830002B30D19DF8AB
:100D64001E301846FFF706FF03461A46019B13443C
:100D7400012283F828209DF81E30019A1344012291
:100D840083F8282004224FF6FF71062001F008F8AA
:100D94000290029B9DF81E201A71029B00220021E2
:100DA400184601F07FFA9DF81E30019A1344002280
:100DB40083F82D209DF81E30BB491846FFF784FCAC
:100DC4009DF81E3001338DF81E309DF81E30042B23
:100DD400A8D903238DF81F305FE1009B1B798DF8A0
:100DE4001D3001F0F7FE9DF81D30042B07D89DF847
:100DF4001D30019A134493F82D30002B03D0C121E8
:100E0400AA48FFF7CDFB01F0F7FE9DF81D30A84975
:100E14001846FFF759FC9DF81D301846FFF7AAFE47
:100E240003468DF81C309DF81C30019A134493F846
:100E34002830002B31D19DF81D30019A134493F8CA
:100E44002830002B29D19DF81C30019A134401222B
:100E540083F828209DF81D30019A1344012283F859
:100E6400282004224FF6FF71062000F099FF069017
:100E7400069B9DF81D201A71069B0022002118462E
:100E840001F010FA9DF81D3087491846FFF71CFC45
:100E940003238DF81F3000BFFFE09DF81D30019A39
:100EA4001344012283F82D2003238DF81F30F4E02E
:100EB400009B1B798DF8173001F08CFE9DF81730DC
:100EC400042B07D89DF81730019A134493F82D305A
:100ED400002B03D0DF217548FFF762FB01F08CFE85
:100EE4009DF8173073491846FFF7EEFB9DF817304D
:100EF4001846FFF73FFE03468DF8163001F06AFEF0
:100F04009DF81730019A134493F82830012B07D128
:100F14009DF81630019A134493F82830012B03D01E
:100F2400E5216248FFF73CFB01F066FE9DF81630B0
:100F3400019A1344002283F828209DF81730019A5F
:100F44001344002283F828209DF817301846FFF731
:100F5400FBFD03468DF816309DF81630019A1344B4
:100F640093F82D30002B33D09DF81630019A13449A
:100F740093F82830002B2BD19DF81730019A134495
:100F8400012283F828209DF81630019A1344012287
:100F940083F828209DF81630019A1344002283F820
:100FA4002D2004224FF6FF71062000F0F9FE049074
:100FB400049B9DF816201A71049B002200211846F8
:100FC40001F070F99DF8163037491846FFF77CFB9D
:100FD4009DF817301846FFF7CDFD03468DF81630FF
:100FE4009DF816301846FFF7C5FD03468DF81730F7
:100FF4009DF81630019A134493F82D30002B33D00A
:101004009DF81730019A134493F82830002B2BD104
:101014009DF81630019A1344012283F828209DF884
:101024001730019A1344012283F828209DF81630C2
:10103400019A1344002283F82D2004224FF6FF71F5
:10104400062000F0ADFE0390039B9DF816201A7154
:10105400039B00220021184601F024F99DF8163064
:1010640011491846FFF730FB03238DF81F3014E0B5
:1010740001F0B0FD4FF486710C48FFF791FA019B23
:101084000D4A9A6008238DF81F3006E0019B0B4A35
:101094009A6000238DF81F3000BF9DF81F3018465A
:1010A40009B05DF804FB00BF10400000B43F00002D
:1010B4001C40000004400000C51000008D0C00001E
:1010C40000B585B001900091009B1B88013B0A2B61
:1010D40000F2AB8001A252F823F000BF0D11000012
:1010E4001B1100002F1200002F1200008B110000B2
:1010F4002F120000291100002F1200002F120000EF
:101104002F120000371100000120FFF713FB032307
:101114008DF80F3090E00020FFF70CFB03238DF8CF
:101124000F3089E0019B474A9A6008238DF80F30FD
:1011340082E0009B1B798DF80E3001F04BFD9DF889
:101144000E30042B07D89DF80E30019A134493F8FF
:101154002D30002B04D040F237113B48FFF720FA22
:1011640001F04AFD9DF80E30019A1344012283F8E0
:101174002D209DF80E3035491846FFF7A5FA0323B4
:101184008DF80F3058E0009B1B798DF80D3001F07D
:1011940021FD9DF80D30042B07D89DF80D30019AE0
:1011A400134493F82D30002B04D040F24311264809
:1011B400FFF7F6F901F020FD9DF80D30244918469B
:1011C400FFF782FA9DF80D301846FFF7D3FC03466B
:1011D4008DF80C3001F0FEFC9DF80D30019A13449B
:1011E40093F82830012B07D19DF80C30019A134451
:1011F40093F82830012B04D040F249111248FFF72C
:10120400CFF901F0F9FC9DF80C30019A1344002247
:1012140083F828209DF80D30019A1344002283F8A6
:10122400282003238DF80F3006E0019B094A9A60B9
:1012340000238DF80F3000BF9DF80F30184605B01D
:101244005DF804FBD90C0000B43F00001C40000012
:10125400044000008D0C000008B501F0C3FBFFF74B
:10126400CFF9FFF7D9F901F0F9FB0346184608BD99
:1012740086B003900291019201238DF817309DF8F6
:101284001730214A039B13601F4A029B53601E4A76
:10129400019B9360039B44F20102934213D0039B8E
:1012A40044F20202934221D1019B174AD360164BA8
:1012B400DB681B881A46144B9A61134BDB685B6826
:1012C400114AD36112E0019B0F4A13610E4B1B6953
:1012D4009B680D4A53610C4B1B691B680A4A936156
:1012E400094B1B695B68084AD36100BF72B600BF33
:1012F40000BF9DF81730DBB2002BFAD162B600BFF5
:1013040000BF06B0704700BF1803002000B587B0C7
:1013140003900291019272B600BF039B44F2010252
:10132400934207D0039B44F20202934205D1019BEE
:10133400059303E0019B049300E000BF074B1B6887
:1013440003F00103002B00D000BE019A0299039818
:10135400FFF78EFF00BF07B05DF804FBF0ED00E07F
:1013640000B585B003460091ADF80630BDF80630EF
:10137400ADF80830009B039302AB1A46002144F2F7
:101384000200FFF7C3FF00BF05B05DF804FB82B0A5
:101394000190019B002B07D0019BDB7803F0F00345
:1013A400E02B01D1012300E0002303F00103DBB2B1
:1013B400184602B07047000082B001900091019B72
:1013C400054A1A60019B054A5A60019B009A9A607B
:1013D40000BF02B0704700BF40400000191A00006F
:1013E40000B58FB0039002910192039B5B680D934B
:1013F40001F0F0FB039B1B68002B07D0039B9B6849
:10140400002B03D00D9B464A934203D0C821454884
:10141400FFF7C6F801F0F0FB039B9B680299039861
:10142400984703468DF82B3001F0D4FB9DF82B3000
:10143400082B03D0D2213B48FFF7B2F801F0DCFBC4
:1014440006230C9300230B93039B9B680493039B39
:101454009B683549039898470FE00B9B01330B9326
:10146400039B9A680B9B9B0038336B4443F8282CEE
:10147400039B9B682C4903989847039B9B680D9A90
:101484009A4202D00B9B042BE7DD01F0A3FB039BE4
:101494009B680D9A9A4203D0DC212248FFF780F81A
:1014A40001F0AAFB049A039B9A600B9B9B003833C0
:1014B4006B4453F8283C1D49039898470B9B013B08
:1014C4000B930B9B002BF0DA049B0D930D9B184997
:1014D4000398984703468DF82B300C9B013B0C93E3
:1014E4009DF82B30082B02D10C9B002BAADC01F0B9
:1014F40071FB0C9B002B04DC4FF491710948FFF73E
:101504004FF801F079FB039B0D9A5A60039B5B68CB
:10151400DA43039B9A6000BF0FB05DF804FB00BF81
:10152400191A000028400000304000003440000038
:101534003C40000000B591B0039002910192039BDE
:101544005B680B930B9B0F9301F044FB0B9B002BED
:1015540006D0039B5A68039B9B68DB439A4204D0E2
:101564004FF496717348FFF71BF80298FFF70FFFCB
:101574000346002B04D14FF497716E48FFF710F81F
:1015840001F03AFB039B0B9A9A6006230D93039B8D
:101594009B680B930B9B02990398984703468DF81D
:1015A4003B309DF83B30022B06D10B9B62490398DC
:1015B400984703468DF83B300D9B013B0D939DF8F6
:1015C4003B30002B02D10D9B002BE0DC01F002FB31
:1015D4000D9B002B04DC4FF49B715648FEF7E0FF93
:1015E40001F00AFB9DF83B30072B40F29780039BE8
:1015F4009B6805930F9B06930B9B079306230D9300
:1016040010E00F9B4D49039898470346032B03D1E1
:101614000F9B4949039898470D9B013B0D93039BEE
:101624009B680F930F9A0B9B9A4202D00D9B002B41
:10163400E7DC01F0CFFA0D9B002B04DC4FF4A07122
:101644003C48FEF7ADFF01F0D7FA05AB019A194605
:10165400039800F0D1F80C900BE00C9B9B004033F6
:101664006B4453F82C3C3649039898470C9B013B38
:101674000C930C9B002BF0DA059B0F93039B0F9AA2
:101684009A6044E000230C93039B9B680593039B9F
:101694009B682949039898470FE00C9B01330C93EE
:1016A400039B9A680C9B9B0040336B4443F82C2C9F
:1016B400039B9B68204903989847039B9B680F9A58
:1016C4009A4202D00C9B042BE7DD01F083FA039BC2
:1016D4009B680F9A9A4204D04FF4A5711548FEF7FF
:1016E4005FFF01F089FA059A039B9A600C9B9B00AB
:1016F40040336B4453F82C3C1149039898470C9B96
:10170400013B0C930C9B002BF0DA059B0F930F9B72
:101714000C49039898470346082BB3D0039B0F9AB0
:101724005A60039B5B68DA43039B9A6000BF11B065
:101734005DF804FB28400000304000003840000001
:10174400344000003C40000000B587B00190009197
:1017540001F040FA019B5A68019B9B68DB439A4263
:1017640004D040F25A212248FEF71AFF01F044FA4D
:1017740000238DF81730019B5B68049307230393C0
:1017840000238DF80B3014E0049A009B9A4203D195
:1017940001238DF8173013E0049B164901989847EC
:1017A40003468DF80B30019B9B680493039B013B1C
:1017B40003939DF80B30042B02D0039B002BE3DC36
:1017C40001F008FA039B002B04DC40F2B221084824
:1017D400FEF7E6FE01F010FA019B5B68DA43019B19
:1017E4009A609DF81730184607B05DF804FB00BFF7
:1017F400284000003040000000B58BB003900291F7
:1018040001924FF0FF330993029B1B680893029BDC
:101814009B680493049A089B9A4206D1049B7A49D4
:101824000398984700230993DCE0089B77490398C1
:101834009847039B9B680893049A089B9A4202D199
:1018440000230993CEE0049B704903989847039BB7
:101854009B68089A9A4206D1049B6B49039898475F
:1018640000230993BEE0039B9A68029B1B689A427B
:1018740004D1049B644903989847B3E00023079379
:1018840001230993029B0433089A1A60039B9B6803
:101894000893029B04331B685C49039898470346EA
:1018A4008DF81B301FE0099B01330993099B9B00B2
:1018B400029A1344039A92681A60039B9B68049AE1
:1018C4009A4208D101230793099B013B09930323FF
:1018D4008DF81B3007E0039B9B684C49039898479D
:1018E40003468DF81B309DF81B30002B02D1099B59
:1018F400042BD8DD01F06EF99DF81B30002B04D1C8
:101904004FF4FF714248FEF74BFE01F075F9079B57
:10191400002B67D1049B3C4903989847099B079384
:1019240004238DF81B30079B9B00029A13441B6809
:10193400089A9A4209D103238DF81B30079B013B77
:1019440009934FF0FF33079302E0079B013B079392
:10195400079B002BE7DA9DF81B30032B42D00423AE
:101964008DF81B3006230593089B27490398984755
:101974000346032B03D1089B244903989847039BF0
:101984009B680893099B0793079B9B00029A134447
:101994001B68089A9A4209D1079B013B09934FF0AF
:1019A400FF33079303238DF81B3002E0079B013BB1
:1019B4000793079B002BE7DA059B013B05939DF8F2
:1019C4001B30032B02D0059B002BCDDC01F002F968
:1019D400059B002B04DC40F212210D48FEF7E0FDCC
:1019E40001F00AF901F0F6F8099B052B04DD40F239
:1019F4004E210748FEF7D4FD01F0FEF8099B184676
:101A04000BB05DF804FB00BF38400000304000001C
:101A14002840000082B0019000910423184602B0CF
:101A2400704784B001900091019B0393009B029343
:101A340008E0039B00221A70039B01330393029B6B
:101A4400013B0293029B002BF3D100BF00BF04B003
:101A5400704782B00190019B002B07D0019BDB787B
:101A640003F0F003E02B01D1012300E0002303F095
:101A74000103DBB2184602B0704782B00190019BAB
:101A8400DB7803F00F03184602B0704782B0019070
:101A94000091019B1A68009B013B012101FA03F3A9
:101AA4001A43019B1A6000BF02B0704782B00190D4
:101AB4000091019B1B68DA43009B1A6000BF02B0CF
:101AC400704782B00190019B9B78DBB20133DAB29C
:101AD400019B9A7000BF02B07047000000B587B048
:101AE400039002910192009301F074F8039B93F820
:101AF4002430DB438DF816300298FFF7AAFF034623
:101B0400002B05D0039B1B7B9DF816209A4203D023
:101B140066214148FEF744FD039BDB7F8DF81530B9
:101B2400019B4FF6FF7293420ED19DF81530002BA6
:101B340003D001238DF8173013E000238DF81730FC
:101B4400BE213548FEF72CFD019BDBB29DF8152024
:101B54009A4203D901238DF8173002E000238DF84F
:101B640017300298FFF789FF0346002B02D0029832
:101B7400FFF7A7FF9DF81730002B42D09DF81530D2
:101B8400013B8DF81530039B9DF81520DA77039BF4
:101B940093F820309DF815209A4204D2039B9DF8B7
:101BA400152083F82020039B5B69002B0DD1039B38
:101BB400029A5A61039B1B7B19461848FFF766FF7C
:101BC40017491648FFF772FF18E0039B9A69039BB5
:101BD4005B7FDBB29B001344029A1A60039B5B7F1A
:101BE400DBB2002B03D1039B1A7F039B5A77039B21
:101BF4005B7FDBB2013BDAB2039B5A7700F0FCFF58
:101C040004E000F0F9FF029800F038F99DF817306D
:101C1400184607B05DF804FB4C400000180400208F
:101C24002004002000B585B0019000F0D3FF019B93
:101C34005B69002B04D14FF49B712348FEF7B0FC81
:101C4400019B5B690393019BDB7FDBB201338DF85E
:101C54000B30019B9DF80B20DA77019B1B7F9DF8CD
:101C64000B209A421AD8019B9A69019B9B7FDBB295
:101C74009B0013441A68019B5A61019B9B7FDBB252
:101C8400002B03D1019B1A7F019B9A77019B9B7FB9
:101C9400DBB2013BDAB2019B9A770EE0019B002292
:101CA4005A619DF80B20019B1B7F01339A4204D09B
:101CB4004FF49B710448FEF773FC00F09DFF039BF7
:101CC400184605B05DF804FB4C40000082B001905A
:101CD400019B002B07D0019BDB7803F0F003E02B82
:101CE40001D1012300E0002303F00103DBB2184615
:101CF40002B0704782B00190019BDB7803F00F03C0
:101D0400184602B0704782B00190019B9B78DBB209
:101D1400013BDAB2019B9A7000BF02B07047000029
:101D240000B587B00390029101921B4BDB6B0593C6
:101D340000F050FF059B022B03D9C8211748FEF77A
:101D44002FFC059B002B11D0059B5A1E12491346EC
:101D54009B0013449B000B440C331B881A46019BC5
:101D6400934203D8C9210D48FEF71AFC059B0133A1
:101D7400094AD36300F040FF059A13469B001344BD
:101D84009B00054A9818019B029A039900F0C0F839
:101D940000BF07B05DF804FBBC0300205440000002
:101DA40000B587B003900291019200F013FF002365
:101DB40005930FE02F49059A13469B0013449B009B
:101DC4000B440C331B881A46039B934208D9059B8A
:101DD40001330593274BDB6B059A9A42EAD300E063
:101DE40000BF244BDB6B059A9A4204D34FF49671DF
:101DF4002148FEF7D5FB059B0133059300F0FCFE5B
:101E0400059B5A1E13469B0013449B00194A9818BD
:101E1400029B4FF6FF72934201D0029B00E0002325
:101E24000022194600F0F8F80490049B002B0ED011
:101E3400019B9AB2049B1A80049B00229A70059B12
:101E4400DBB263F01F03DAB2049BDA700DE000F03A
:101E5400C1FE029B4FF6FF72934204D14FF4A0716E
:101E64000548FEF79DFB00F0C7FE049B184607B02B
:101E74005DF804FBBC0300205440000000B585B0AD
:101E8400019000F0A7FE0198FFF720FF0346002B06
:101E940004D14FF4C9711C48FEF782FB0198FFF787
:101EA40029FF0390039B002B27D0019B9B78DBB277
:101EB400012B05D90198FFF726FF00F09DFE1EE0D7
:101EC400124BDB6B039A9A4202D8039B032B04D96F
:101ED4004FF4CD710C48FEF763FB00F08DFE039BBD
:101EE4005A1E13469B0013449B00084A13440022C5
:101EF4000199184600F0FAF801E000F07DFE00BFF9
:101F040005B05DF804FB00BF54400000BC03002092
:101F140000B589B0039002910192009300F05AFE3B
:101F2400029B002B06D0019B072B03D9009B13F1C6
:101F3400090F03D964213748FEF732FB039B029A49
:101F44009A60039B08229A810123079308E0039B6C
:101F54009B8908339AB2039B9A81079B01330793A9
:101F6400039B9A89009B9BB29A42F0D3039B9B8963
:101F74001A46019B934203D26E212648FEF710FBBA
:101F8400039B9B680693039B0122DA81039B9B8935
:101F94001A46019B9B1A059319E0079BDB00069ADE
:101FA4001A44069B1A60069B1B68DA43069B5A6018
:101FB400069B1B680693039BDB8901339AB2039B40
:101FC400DA81039B9B891A46059B9B1A0593039B05
:101FD4009B891A46059B9342DFD2069B00221A6016
:101FE400069B1B68DA43069B5A60039BDA89039BB2
:101FF4001A82039BDA89039B5A82039B029A1A6012
:10200400039B069A5A6000F0F7FD00BF09B05DF823
:1020140004FB00BF5C40000000B587B00390029150
:10202400019200F0D7FD039B1B8A9AB2029B9BB2DC
:102034009A424FD9039B9B680593059B002B04D1BF
:102044004FF496712848FEF7ABFA059B1B6804937E
:10205400059B5B68DA43049B9A4204D04FF4977162
:102064002148FEF79DFA039B1B8A9BB2013B9AB25F
:10207400039B1A82039B1B8A9BB2002B0BD1049BEC
:10208400002B04D04FF4A0711748FEF789FA039B84
:1020940000225A821AE0039B1B68049A9A4204D3D2
:1020A400039B5B68049A9A4204D94FF4A5710E48C5
:1020B400FEF776FA039B5A8A039B1B8A9BB29A42C9
:1020C40004D9039B1B8A9AB2039B5A82039B049AEA
:1020D4009A6001E00023059300F08EFD059B1846ED
:1020E40007B05DF804FB00BF5C40000000B587B09A
:1020F400039002910192029B059300F06BFD039BF8
:102104001B8A9AB2039BDB899A4209D2039B1B6800
:10211400059A9A4204D3039B5B68059A9A4203D9B1
:10212400C8210E48FEF73CFA039B9A68059B1A6087
:10213400059B1B68DA43059B5A60039B029A9A60CD
:10214400039B1B8A9BB201339AB2039B1A8200F051
:1021540053FD00BF07B05DF804FB00BF5C40000006
:1021640082B00190019BDB7803F00F03184602B0A4
:10217400704782B00190019B00221A6000BF02B038
:10218400704782B00190019B1B68002B14BF012390
:102194000023DBB2184602B0704782B00190009170
:1021A400019B1A68009B013B012101FA03F31A43C6
:1021B400019B1A6000BF02B0704782B00190009189
:1021C400019B1A68009B013B012101FA03F3DB43E5
:1021D4001A40019B1A6000BF02B0704782B00190A0
:1021E400019B1B68B3FA83F3C3F12003184602B0C2
:1021F400704782B001900091019B1B68DA43009BF9
:102204001A6000BF02B0704782B001900091019B38
:102214001A68009B1B68DB439A420CBF012300230E
:10222400DBB2184602B0704782B00190019B9B78E4
:10223400DBB20133DAB2019B9A7000BF02B070477F
:1022440000B585B001900091144A019B1360144AB3
:10225400009B13600023039316E0039BDB00019AA9
:1022640013441846FFF785FF039BDB00019A1344D0
:102274001846039BDB00019A134404331946FFF705
:10228400B8FF039B01330393039A009B9A42E4DB58
:1022940000BF00BF05B05DF804FB00BFFC030020D5
:1022A4000004002000B58BB0039002910192039BBF
:1022B4001B88ADF81A3000F08DFC4D4B1B689BB2A7
:1022C400BDF81A209A4203D3C8214A48FEF768F998
:1022D400494B1A68BDF81A30DB0013441846464BC4
:1022E4001A68BDF81A30DB00134404331946FFF7AB
:1022F4008BFF0346002B03D1CA213E48FEF750F959
:102304000398FFF72DFF0346002B02D00398FFF735
:102314008BFF394B1A68BDF81A30DB0013441B6875
:10232400059300F069FC05AB1846FFF72AFF034646
:10233400002B56D005AB1846FFF750FF099000F06C
:1023440049FC2E4A099B52F823300893089B002B22
:1023540003D1D2212748FEF723F900F04DFC2123B5
:102364000793079B013B079300234FF6FF720399E2
:102374000898FFF7B3FB05AB09991846FFF71DFF53
:1023840005AB1846FFF7FDFE0346002B15D005AB41
:102394001846FFF723FF099000F01CFC174A099B1D
:1023A40052F823300893089B002B03D1DC211148F9
:1023B400FEF7F6F800F020FC01E000230993099BE6
:1023C400002B02D0079B002BCBD100F003FC099B10
:1023D400002B04D04FF491710648FEF7E1F800F0A9
:1023E4000BFC0398FFF74AFD00BF0BB05DF804FB3C
:1023F4000004002064400000FC0300203803002097
:1024040000B585B001900091019B1B7B039300F004
:10241400E1FB009B032B11DD254B1B68009A9A42BC
:102424000CDA039B002B09D0039B202B06D8214AEE
:10243400039B52F82330019A9A4204D04FF49671C8
:102444001D48FEF7ADF81D4B1A68009BDB001344D2
:1024540018461A4B1A68009BDB00134404331946D0
:10246400FFF7D2FE0346002B04D14FF497711248B4
:10247400FEF796F8114B1A68009BDB00134403998E
:102484001846FFF78AFE0D4B1A68009BDB001344C5
:1024940018460A4B1A68009BDB00134404331946A0
:1024A400FFF7A7FE00F0A8FB00BF05B05DF804FB32
:1024B400000400203803002064400000FC030020D6
:1024C40000B583B00190009128210198FFF7A9FA83
:1024D40000990198FEF770FF019B034A1A6000BF40
:1024E40003B05DF804FB00BF7440000000B585B084
:1024F400019000F06FFB019B5B7B002B03D1019BE0
:102504001A7B019B5A73019B1B7B002B11D0019BEF
:102514001B7B202B0DD8019B1B7B1A46394B53F890
:102524002230002B05D1019B1A7B019B5B7B9A42D5
:1025340003D964213448FEF733F8019B5B7B8DF8A3
:102544000F30019B5B7B8DF80E30019B1B7B013BA5
:10255400029310E02B4A029B52F82330002B07D041
:10256400284A029B52F823305B7B8DF80F3005E03C
:10257400029B013B0293029B002BEBD1019B1B7B33
:102584000133029310E01F4A029B52F82330002BC0
:1025940007D01C4A029B52F823305B7B8DF80E3027
:1025A40005E0029B01330293029B202BEBD9019B94
:1025B4005B7B9DF80F209A4205D8019B5B7B9DF8BD
:1025C4000E209A4203D2BE210F48FDF7E9FF019B7A
:1025D4001B7BDB43DAB2019B83F82420019B5B7BEA
:1025E400DB43DAB2019B83F82520019B1B7B194650
:1025F400044A019B42F8213000F0FEFA00BF05B006
:102604005DF804FB380300206C40000084B00390A4
:1026140002910192039B00221A60039B029A5A6062
:10262400019BDAB2039B1A72019B002B05D0039B1A
:1026340000225A72039B00229A72019BDBB201337F
:10264400DAB2039BDA72039BDB7ADAB2039B1A7366
:1026540000BF04B0704782B00190019B002B07D0EB
:10266400019BDB7803F0F003E02B01D1012300E0B0
:10267400002303F00103DBB2184602B070470000E8
:1026840000B585B0039002910192009300F0A2FA84
:10269400019B002B02D0009B002B04D04FF49671B9
:1026A4000F48FDF77DFF00F0A7FA019B9AB2039B48
:1026B4001A80009BDAB2039B9A70039BE022DA70C3
:1026C400039B00225A60039B029A9A60039B002298
:1026D400DA60039B00221A6100BF05B05DF804FBB9
:1026E4008040000000B587B0039002910192039BE3
:1026F4009B78DBB203F00F030593039BDB68049321
:1027040000F068FA039B9B68002B0CD0049B002B01
:1027140009D1029B002B06D0059B002B03D1039B00
:102724001B88032B04D84FF4C8711948FDF738FFF0
:10273400039B029ADA60039B019A1A61039B9B78BC
:10274400DBB25BB2002B1CDB039B9B78DBB263F038
:102754007F03DAB2039B9A700E49059A13469B00D5
:1027640013449B000B4408331A68039B5A600949BD
:10277400059A13469B0013449B000B440833039AA9
:102784001A6000F039FA00BF07B05DF804FB00BF1F
:10279400804000000404002000B585B0019000F0E2
:1027A40019FA019BDB68002B0ED001238DF80F3042
:1027B400019B9B78DBB243F04003DAB2019B9A7031
:1027C400019B0022DA600AE000238DF80F30019BA0
:1027D4009B78DBB223F04003DAB2019B9A7000F0DD
:1027E4000BFA9DF80F30184605B05DF804FB0000A5
:1027F40000B587B00190009100F0ECF9019B002B2B
:1028040003D064215348FDF7CBFE019A13469B0085
:1028140013449B00504A134405934023049386E0D9
:10282400059B5B680393039B002B29D14A49019ABA
:1028340013469B0013449B000B4408331B68002B76
:102844007AD0059B002B03D16E214248FDF7A8FEE8
:102854004149019A13469B0013449B000B440833DF
:102864001A68059B5A603C49019A13469B0013441D
:102874009B000B44083300221A60059B5B6803939A
:102884000398FFF7E8FE0346002B03D1702131487B
:10289400FDF786FE039BDB68002B10D1039B5A686F
:1028A400059B5A60039B9B78DBB203F07F03DAB28B
:1028B400039B9A7000F0A0F9BFF36F8F32E0039B83
:1028C400DB685A1E039BDA60039BDB68002B23D171
:1028D400039B9B680293039B1B69002B06D0039BFD
:1028E4001A69039BDA60039B05930BE0039B5A6808
:1028F400059B5A60039B9B78DBB203F07F03DAB23B
:10290400039B9A7000F078F9039900234FF6FF7245
:102914000298FFF7E3F805E0039B059300F06CF9D8
:10292400BFF36F8F00F056F9049B013B0493049BA3
:10293400002B7FF475AF00E000BF049B002B03D194
:10294400BE210448FDF72CFE00F056F900BF07B085
:102954005DF804FB804000000404002082B0019074
:10296400019B1B68002B14BF01230023DBB2184614
:1029740002B0704782B001900091019B1A68009BDD
:10298400013B012101FA03F3DB431A40019B1A6066
:1029940000BF02B0704782B00190019B1B68B3FA7C
:1029A40083F3C3F12003184602B0704782B001904C
:1029B4000091019B1B68DA43009B1A6000BF02B0C0
:1029C400704782B001900091019B1A68009B1B68BC
:1029D400DB439A420CBF01230023DBB2184602B04A
:1029E4007047000000B583B040211748FFF719F87D
:1029F40010211648FFF715F884211548FFF711F840
:102A040014491248FFF7D2FF104B4FF0FF32DA603F
:102A1400002301930EE0019A13469B0013449B008C
:102A24000D4A9818019B04220021FFF729FE019BFF
:102A340001330193019B002BEDD000F0EFF800BFB0
:102A440003B05DF804FB00BFBC03002018040020A1
:102A540038030020200400200404002000B585B0C1
:102A6400FDF78EFE00F092F8002383F314882949C1
:102A74002948FFF7A6FF0346002B04D14FF49771B2
:102A84002648FDF78DFD244B5A68234BDB68DB4356
:102A94009A4204D040F22F112048FDF781FD1E48D0
:102AA400FFF75CFF0346002B04D01B48FFF773FFBE
:102AB400034600E000230393174B5B68039A9A4292
:102AC40023D9174A039B52F82330029300F070F87D
:102AD4000298FFF7A7F80190029B1B685B680298B5
:102AE400039A019998470198FFF7C8F900F04EF846
:102AF400029B5B69002BBAD103990748FFF73AFFA1
:102B040004490548FFF752FFB1E7FDF751FE00F015
:102B14003DF8ACE7200400201804002088400000A1
:102B24003803002000B585B00390019200930B4652
:102B3400ADF80A3000F04EF8069B002B04D04FF499
:102B440096711148FDF72CFD00F056F8BDF80A30D7
:102B5400DAB2039B1A73039B00225A730398FFF79C
:102B6400C5FC039B1433009A01991846FFF74EFDE8
:102B7400039B1B681B680398039A127B0899984768
:102B840000BF05B05DF804FB88400000EFF311803E
:102B94003F2181F31188002800D170470248642145
:102BA400024A104700BF00008C400000A505000049
:102BB400EFF31180002803D0002181F311887047BE
:102BC40002486521024A104700BF00008C40000003
:102BD400A5050000EFF311803F2181F3118800283F
:102BE40000D1704702486E21024A104700BF00001E
:102BF4008C400000A5050000EFF31180002803D0ED
:102C0400002181F31188704702486F21024A10475E
:102C140000BF00008C400000A505000082B0134BEB
:102C24001B68124A43F07C531360002301930BE0AA
:102C3400019B9B0003F1604303F564434FF03F3273
:102C44001A60019B01330193019B3B2BF0D9084B84
:102C54001B68074A43F470031360064B1B68054A5C
:102C640043F04043136000BF02B0704720ED00E022
:102C740088ED00E034EF00E0BFF34F8F00BF074B57
:102C8400DB6803F4E0620549054B1343CB60BFF3F3
:102C94004F8F00BF00BF00BFFCE700BF00ED00E0A6
:102CA4000400FA05024B034A1A6000BF704700BFD4
:102CB400000000200090D00308B500F069F9034635
:102CC400002B06D0A04B1B681B0AA04A03F01F036D
:102CD400136000F089F90346002B02D09C4B9D4AF7
:102CE4001A6000F09DF90346002B06D09A4B1B682E
:102CF4005B0B9A4A03F00703136000F0BDF9034627
:102D0400002B05D0964BDB68954A23F08073D36083
:102D140000F0CEF90346002B0ED04FF08043002282
:102D2400C3F80C214FF080430022C3F810214FF068
:102D340080430022C3F8382500F0E6F90346002B4F
:102D440002D0884B03221A6000F0FAF90346002BE4
:102D54000BD0854B05221A60844B01221A60844BE8
:102D640000221A60834B3F221A6000F005FA0346E2
:102D7400002B76D04FF080537F4AD3F80434C2F846
:102D840020354FF080537C4AD3F80834C2F82435F8
:102D94004FF08053784AD3F80C34C2F828354FF0FA
:102DA4008053754AD3F81034C2F82C354FF0805351
:102DB400714AD3F81434C2F830354FF080536E4A58
:102DC400D3F81834C2F834354FF080536A4AD3F834
:102DD4001C34C2F840354FF08053674AD3F820348E
:102DE400C2F844354FF08053634AD3F82434C2F810
:102DF40048354FF08053604AD3F82834C2F84C3534
:102E04004FF080535C4AD3F82C34C2F850354FF05D
:102E14008053594AD3F83034C2F854354FF08053B4
:102E2400554AD3F83434C2F860354FF08053524ACF
:102E3400D3F83834C2F864354FF080534E4AD3F88F
:102E44003C34C2F868354FF080534B4AD3F84034D1
:102E5400C2F86C354FF08053474AD3F84434C2F873
:102E6400703500F0A5F90346002B05D0434B1B68D1
:102E7400434A03F04F03136000F0C6F90346002BE6
:102E84000DD04FF08043D3F8003403F00103002B3E
:102E940005D04FF080436FF00102C3F8002400F026
:102EA400DFF90346002B05D0364B1B68354A43F443
:102EB40080631360344BD3F88830334A43F470038F
:102EC400C2F88830BFF34F8F00BFBFF36F8F00BFCE
:102ED4004FF01023D3F80032002B05DB4FF0102302
:102EE400D3F80432002B2BDA284B0122C3F8042533
:102EF40000BF264BD3F80034002BFAD04FF0102338
:102F04001522C3F8002200BF204BD3F80034002B55
:102F1400FAD04FF010231522C3F8042200BF1B4B34
:102F2400D3F80034002BFAD0184B0022C3F8042540
:102F340000BF164BD3F80034002BFAD0FFF79CFEE9
:102F4400FFF7B0FE00BF08BD240300104035014068
:102F540074C007400DF0ADBA440200103C050040B7
:102F6400F0ED00E0A00500401056004088560040F7
:102F7400185600401456004000C00040580200108B
:102F8400E40E00403C17004000ED00E000E001408A
:102F9400124B1B68DBB2062B1DD1114B1B6803F0CF
:102FA4000F03002B17D10F4B1B6803F0F003302BDA
:102FB40001D1012310E00B4B1B6803F0F003402BFD
:102FC40001D1012308E0074B1B6803F0F003502BE9
:102FD40001D1012300E0002318467047E00F00F000
:102FE400E40F00F0E80F00F00A4B1B68DBB2062B7D
:102FF4000DD1094B1B6803F00F03002B07D1074BBE
:103004001B6803F0F003302B01D1012300E00023FF
:1030140018467047E00F00F0E40F00F0E80F00F0EE
:10302400124B1B68DBB2062B1DD1114B1B6803F03E
:103034000F03002B17D10F4B1B6803F0F003302B49
:1030440001D1012310E00B4B1B6803F0F003402B6C
:1030540001D1012308E0074B1B6803F0F003502B58
:1030640001D1012300E0002318467047E00F00F06F
:10307400E40F00F0E80F00F00A4B1B68DBB2062BEC
:103084000DD1094B1B6803F00F03002B07D1074B2D
:103094001B6803F0F003302B01D1012300E000236F
:1030A40018467047E00F00F0E40F00F0E80F00F05E
:1030B400124B1B68DBB2062B1DD1114B1B6803F0AE
:1030C4000F03002B17D10F4B1B6803F0F003302BB9
:1030D40001D1012310E00B4B1B6803F0F003402BDC
:1030E40001D1012308E0074B1B6803F0F003502BC8
:1030F40001D1012300E0002318467047E00F00F0DF
:10310400E40F00F0E80F00F00A4B1B68DBB2062B5B
:103114000DD1094B1B6803F00F03002B07D1074B9C
:103124001B6803F0F003302B01D1012300E00023DE
:1031340018467047E00F00F0E40F00F0E80F00F0CD
:103144000A4B1B68DBB2062B0DD1094B1B6803F03D
:103154000F03002B07D1074B1B6803F0F003302B40
:1031640001D1012300E0002318467047E00F00F06E
:10317400E40F00F0E80F00F00A4B1B68DBB2062BEB
:103184000DD1094B1B6803F00F03002B07D1074B2C
:103194001B6803F0F003502B01D1012300E000234E
:1031A40018467047E00F00F0E40F00F0E80F00F05D
:1031B400124B1B68DBB2062B1DD1114B1B6803F0AD
:1031C4000F03002B17D10F4B1B6803F0F003302BB8
:1031D40001D1012310E00B4B1B6803F0F003402BDB
:1031E40001D1012308E0074B1B6803F0F003502BC7
:1031F40001D1012300E0002318467047E00F00F0DE
:10320400E40F00F0E80F00F0124B1B68DBB2062B52
:103214001DD1114B1B6803F00F03002B17D10F4B6B
:103224001B6803F0F003302B01D1012310E00B4B9A
:103234001B6803F0F003402B01D1012308E0074B86
:103244001B6803F0F003502B01D1012300E000239D
:1032540018467047E00F00F0E40F00F0E80F00F0AC
:10326400064B1B68062B05D1054B1B68062B01D1A9
:10327400012300E000231846704700BF300100100E
:103284003401001010B582B0044600698DF80710AF
:1032940078B1D4E900239A4231D26269531C636144
:1032A4008154D4E90501884229D1204600F02CF844
:1032B40025E0E06850B1D4E9002C62451FD2531CCC
:1032C400B3EB0C0318BF0B46835418E0A06858B145
:1032D400D4E9002C624512D2531CB3EB0C0318BF83
:1032E400CBB240F822300AE0236A43B1D4E90001AA
:1032F400884204D20DF10701204601229847206834
:103304000130206002B010BD10B54269002A08BF28
:1033140010BD0446036A002B1CBF21699847002096
:10332400606110BD70B5012AB8BF70BD0C4605467A
:10333400561C28462146FFF7A5FF013E012EF8D86A
:1033440070BDCB0648BF704789054CBF3021202192
:10335400FFF7E8BF70B514460D46064600F006FBBD
:10336400014630462A462346BDE8704000F000B8C6
:103374002DE9F04F03AF8DB047F83C3C91460E4623
:10338400044600F00DFC0546EB46073020F007002C
:10339400ADEB0008C546A7F1380A504600212422A7
:1033A40000F050FD43F2E130C0F2000047E907604D
:1033B4006FF0004047F8340C47F8144C47F8205C91
:1033C40047F8288C5046494657F83C2C00F022F820
:1033D400DD46A7F10C04A546BDE8F08F436A084614
:1033E400012100F0ACBA83B000B582B00DF10C0C31
:1033F4008CE80E0040F21C02C2F200020146106882
:1034040003AA0192FFF7A6FF02B0BDE8004003B093
:10341400704700002DE9F04F8BB003928946834634
:103424000020CBF800000DF11604A4F10108CDF83A
:10343400108019F8011B252906D0002900F06882A4
:103444005846FFF71FFFF4E70027494619F8012BF8
:10345400A2F12003102B0DD88020DFE803F0091B14
:103464001B191B1B1B101B1B32131B151B1B1700CB
:1034740040200DE05E2A0DD14FF4805008E04FF457
:10348400004005E0202003E0102001E04FF400702C
:103494000743DAE701F10109A2F13000C0B20928BB
:1034A4004FF0000019D819F8011B00EB800002EB63
:1034B40040003038A1F13002D2B20A2A0A46F2D3CF
:1034C4000BE0039A52F8040B0392002844BF47F020
:1034D400100740424A7801F102092E2A0DD14946CB
:1034E40011F8012B2A2A0BD1039999F8012051F8DC
:1034F40004AB039109F1020918E04FF0000A1EE041
:10350400A2F13003DBB2092B4FF0000A14D811F8F2
:10351400013B0AEB8A0902EB4902A2F1300AA3F14A
:103524003002D2B20A2A1A46F1D38946BAF1000F00
:1035340058BF47F4807702E047F480778946A2F1C8
:103544006801C1F3460141EAC211C9B209292AD866
:10355400DFE801F00814172929290529290519F894
:10356400012B20E0494611F8012B682A15D199F85E
:10357400012009F1020947F0080714E019F8012BAA
:1035840008E0494611F8012B6C2A09D199F8012069
:1035940009F1020947F0020705E047F0040701E0DA
:1035A40047F00107894620EAE076622A15DDA2F198
:1035B400630015283FF63DAFDFE800F0240C0B0B49
:1035C4000B0B0C0B0B0B0B34434D0B0B5D0B6C0BF0
:1035D4000B172EE747F4804760E0252A00F0A78008
:1035E400582A40F06B8147F40057F8054FEA07600A
:1035F40048BF27F4007743F25801782A08BF43F202
:10360400780125E0039D013E2C7858463946324620
:10361400FFF797FE584621460DF11604FFF732FED8
:1036240028466AE1039951F8040B0391390700F124
:103634004981B907DBF8001052BF0160002206C0BF
:10364400F7E6F8054FEA076048BF27F40077302112
:1036540001EAE07123E03806232101EAE070CDE9B4
:10366400016047F48077039A002152F8040B039217
:103674004FF0080AC1E003980468002C04BF44F228
:10368400B404C0F20004F805204600F11F8100F0E4
:103694006AFB1EE1F80548BF27F40077002178048F
:1036A400CDE9016105D4B80703980AD4031D0021AC
:1036B4000DE0B80714D4039951F8040B0391C11712
:1036C40016E0073020F0070000F1080341680068A5
:1036D4007D0715D417F008051CBFC0B2002111E006
:1036E4000398073020F00703596853F8080B039335
:1036F4007B0709D43B0744BF40F3C01140B206E046
:1037040080B20021039319E040F3C03100B20029D4
:1037140007DBBB0610D47B06029D48BF202502951B
:103724000CE00023404263EB01012D2305E05846E1
:103734002521FFF7A7FD7CE62B230293FB0548BF59
:1037440027F40077FB0558BF4FF0010A00266E2AC4
:1037540021DD6F3A092A00F27080DFE802F0054E9D
:103764006E6E6E6E226E6E4E50EA010265D0C20815
:1037740042EA41720625134665F3DF00A05501367F
:1037840052EAD1004FEAD1014FEAD20040EA417235
:103794001846F0D151E0582A2FD0642A18BF692A5C
:1037A4004BD150EA010248D00C46054638040AD5EC
:1037B40006F00300032806D10DF116082C2008F8A2
:1037C4000600013601E00DF1160828460A220023FE
:1037D40000F032F900EB8002A5EB420242F0300225
:1037E40008F806200136D5F109020022A241DDF8CD
:1037F4001080D9D30DF116041FE0002650EA01020F
:103804001BD0BA0444F29402C0F200025CBF44F23A
:10381400A402C0F20002030943EA017300F00F0599
:103824001846535DA355013650EA11134FEA11119E
:103834004FEA101343EA0173F0D1DDE90101801B63
:10384400FF2988BF0138002918BF0138AAEB0602F6
:1038540022EAE275A0EB050AB80507D458463946B2
:103864005246FFF76EFD02994FF0000AFF2905D971
:10387400090A5846FFF706FD029900E011B15846BF
:10388400FFF700FD584639465246FFF75AFD5846A1
:1038940030212A46FFF746FD012E06DB18F80610F4
:1038A4005846FFF7EFFC013EF8D8F8067FF5C1ADA6
:1038B400584620215246FFF735FDBAE5002A7FF429
:1038C400B8AD36E0DBF800100170B2E5514600F007
:1038D40060FA054627F40077361A584639463246C8
:1038E400FFF72FFD35B114F8011B5846FFF7CAFC4A
:1038F400013DF8D10DF11604039804300390F80645
:103904007FF597AD584620213246FFF70BFD90E531
:10391400DBF80C0028B1DBE9001291423CBF002225
:1039240042545846FFF7F0FCDBF800000BB0BDE84A
:10393400F08F5846FFF7E8FC4FF0FF30F6E7F8B594
:103944001D4617460C460646184600F00DF9002899
:1039540003D407FB04F2A24201D20020F8BD28469A
:10396400314600F01FF9B0FBF4F0F8BD40F22841F5
:10397400C2F200010868002802BF40F20400C2F24B
:1039840000000860704784460020002918BF002A00
:1039940000D17047097848B2002844BF6FF0010095
:1039A4007047BCF1000F18BFCCF800100021C3E928
:1039B4000011002818BF012070477F298EBF6FF0C7
:1039C40001000170012070477F2884BF00207047E8
:1039D40044F2D022C0F20002515C44F25022C0F200
:1039E4000002105C08407047A0F161011A2938BF39
:1039F40020387047A0F141011A2938BF20307047A0
:103A04007F2884BF0020704744F2D022C0F2000215
:103A1400515C44F25022C0F20002105C084070472E
:103A2400A0F161011A2938BF20387047A0F1410183
:103A34001A2938BF20307047002B35D129B9B0FB83
:103A4400F2FC0CFB120260467047914215D22DE93C
:103A5400F041B2FA82F39A409940D3F1200C30FA43
:103A64000CFC51EA0C01984000F04EF8280036FA9C
:103A740003F200210023BDE8F081F0B5B1FBF2FCB4
:103A84000CFB1211B2FA82F39A409940D3F120064A
:103A940030FA06F63143984000F036F861462800C3
:103AA4003200DA400023F0BDF3B5B3FA83FC4908D1
:103AB4005FEA300013FA0CF3DCF1200432FA04F468
:103AC40023430CB41A0000F01FF80CBC33FA0CF3B7
:103AD400DCF11F0C35FA0CF518BF013D03BCA5FB46
:103AE400026705FB0377801BB941904271EB030C1D
:103AF40005D3821A71EB0303681C0021F0BD020098
:103B04000B0028000021F0BD940D4FF6C2752D0264
:103B1400B5FBF4F4D60A013604FB04F5A5FB0656FE
:103B2400F64306EB0416550832BF00277708013523
:103B340005FB1677A6FB07477F0807EBC63714007B
:103B44001500E7FB02457F1B4D1C0400E7FB014504
:103B540005FB1206A64284BF013DB618964224BF57
:103B64000135B61A704700BF40F21C01C2F20001D1
:103B740040F22002C2F2000240F21803C2F2000333
:103B840009681B681268091A18BF01211B1A18BF9B
:103B940001231940101A18BF012008404042704701
:103BA40040207047006800F0B7B840F23840C2F2D5
:103BB400000003210161416144F2EE21C0F20001E1
:103BC400816140F2E042C2F20002C2614FF48062BD
:103BD4000262002282624262C262016640F6E00131
:103BE400C2F200014166102181660267C266426723
:103BF400BFF35F8F0F2144F2DD22C0F20002535C59
:103C040000F8013B0139FAD2BFF35F8F7047C268F5
:103C1400016991428FBFD0438068D2431144084464
:103C240070472DE9F0411546884604464068D4E9BA
:103C3400021630448F1B9742414605D900F0D0F854
:103C44003544BFF35F8F0BE03A4600F0C9F808EB48
:103C540007016068ED1B2A4600F0C2F8BFF35F8FCE
:103C6400E560BDE8F0812DE9F84314468846054631
:103C7400C7684FF000092869A968FA43B8429ABF97
:103C840010444218024468683844CE1BB24238BF1C
:103C94001646A64228BF26464146324600F0A0F802
:103CA400A868F1190F1A18BF0F46BFF35F8FEF60B2
:103CB400A41BB044B144DED14846BDE8F88370B5D6
:103CC4000D4600EB400040F23841C2F2000101EB26
:103CD400C00000F11806C06A02280AD01446012860
:103CE4000DD020B93046FFF792FFA0420DD2002438
:103CF40010E030462946BDE87040FFF7B4BF3046B7
:103D0400FFF785FFA04238BF0446304629462246C5
:103D1400FFF787FF204670BDF8B514460D4640F204
:103D24003841C2F2000106460878002808BFFFF7B0
:103D34003CFFEFF311874FF0200181F311883046E7
:103D440029462246FFF7BBFF87F31188F8BD0829EF
:103D540038BF70470022C0E9002140F6F001C2F2EA
:103D64000001086070470178002904BF00207047F3
:103D740000214FF001324358C2FA53F30431002BAF
:103D8400F9D093FAA3F0B0FA80F001EBD000043834
:103D9400704700B500291CBF0278002A01D1002019
:103DA40000BDD0F800E00429034609D34FF0013CDC
:103DB400CCFA5EF222B953F804EF04390329F7D898
:103DC400181A4FF00132C2FA5EF292FAA2F2B2FA73
:103DD40082F2B1EBD20F88BFD108084400BD0000C5
:103DE4005AB3844690EA01039B071FD1830707D087
:103DF40011F8013B00F8013B013AF7D11CE084467D
:103E0400203A09D32DE9F007B1E8F807A0E8F8074C
:103E1400203AF9D2BDE8F0071C3205D451F8043B2E
:103E240040F8043B043AF9D2043205D011F8013BBE
:103E340000F8013B013AF9D16046704700220B00BB
:103E440011001A0084465AB3830704D000F8011BFA
:103E5400013AF9D124E0C9B241EA012141EA014120
:103E6400202A11D3203A2DE9F0030B460C460D46C7
:103E74000E460F4688468946A0E8FA03203AFBD24C
:103E8400BDE8F00320320BD0042A05D340F8041B0C
:103E9400043A05D0042AF9D200F8011B013AFBD1F7
:043EA40060467047BD
:103EA800633A5C6E72665F73646B5C6D6F64756CAD
:103EB80065735C6E7266785C68616C5C6E72665F76
:103EC8006770696F2E6800000A20496E206D7320A4
:103ED8002D202564202D205068696C6F736F7068E1
:103EE8006572202564206973207468696E6B696E39
:103EF800670A00000A20496E206D73202D20256472
:103F0800202D205068696C6F736F7068657220256A
:103F1800642069732068756E6772790A0000000072
:103F28000A20496E206D73202D202564202D2050F5
:103F380068696C6F736F7068657220256420697397
:103F480020656174696E670A00000000433A5C6E80
:103F580072665F73646B5C6578616D706C65735CC9
:103F680048534D5F6578706572696D656E746174EC
:103F7800696F6E735C53746172745F48534D5C4132
:103F880063746976655F4F626A656374735C7068B1
:103F9800696C6F2E63000000A4010020E40100207A
:103FA8002402002064020020A4020020433A5C6E30
:103FB80072665F73646B5C6578616D706C65735C69
:103FC80048534D5F6578706572696D656E7461748C
:103FD800696F6E735C53746172745F48534D5C41D2
:103FE80063746976655F4F626A656374735C746154
:103FF800626C652E63000000E40200207468696E3C
:104008006B696E6700000000656174696E67202047
:104018000000000068756E677279202000000000BB
:104028007165705F68736D00000000E0010000E0DA
:10403800020000E0030000E0E5130000391500006D
:104048004D17000071665F616374710071665F648B
:10405800796E000071665F6D656D000071665F7056
:104068007300000071665F7161637400E5130000FE
:10407800391500004D17000071665F74696D6500A1
:104088007176000071765F706F7274003031323370
:104098003435363738394142434445463031323376
:1040A800343536373839616263646566286E756CF5
:1040B8006C290000C8400000F8410000CC40000016
:1040C80043000000CD390000ED390000F939000047
:1040D800053A0000253A0000313A0000BF390000D7
:1040E8008B39000053756E004D6F6E005475650076
:1040F800576564005468750046726900536174001E
:10410800004A616E00466562004D6172004170723E
:10411800004D6179004A756E004A756C00417567FB
:1041280000536570004F6374004E6F7600446563FA
:1041380000002E000053756E646179004D6F6E6447
:1041480061790054756573646179005765646E65BB
:10415800736461790054687572736461790046729A
:104168006964617900536174757264617900004A09
:10417800616E756172790046656272756172790067
:104188004D6172636800417072696C004D6179001D
:104198004A756E65004A756C790041756775737468
:1041A8000053657074656D626572004F63746F6269
:1041B8006572004E6F76656D626572004465636571
:1041C8006D6265720000414D00504D0000256D2F55
:1041D80025642F25790025483A254D3A2553002591
:1041E80061202562202565202554202559000000DE
:1041F8003A4100003C4100003C4100003C410000C5
:104208003C4100003C4100003C4100003C410000B2
:104218003C4100003C410000FFFFFFFFFFFFFFFFA4
:10422800FFFFFFFFFFFF00003D410000EC400000E2
:104238007741000009410000CE410000D54100004F
:10424800DE410000E741000020202020202020201F
:1042580020682828282820202020202020202020EE
:10426800202020202020202048101010101010108E
:104278001010101010101010848484848484848496
:1042880084841010101010101081818181818101A7
:104298000101010101010101010101010101010106
:1042A8000101011010101010108282828282820295
:1042B80002020202020202020202020202020202D6
:1042C8000202021010101020000703200417020138
:1042D800085710408000000000000054545220523B
:0F42E8004547474553005465726D696E616C0020
:1042F8000090D003BC400000BC400000BC4000005F
:10430800BC400000BC4000002C0400203004002009
:044318003404002049
:04000003000003896D
:00000001FF
