:100000000000012071030000590300005B030000A1
:100010005D0300005F0300006103000000000000BA
:10002000000000000000000000000000630300006A
:10003000650300000000000067030000BD0700002A
:100040006B0300006B030000D12300006B03000072
:100050006B0300006B030000052E00006B03000023
:100060006B0300006B0300006B0300006B030000D8
:100070006B0300006B0300006B0300006B030000C8
:100080006B0300006B0300006B0300006B030000B8
:100090006B0300006B0300006B0300006B030000A8
:1000A0006B0300006B0300006B0300006B03000098
:1000B0006B0300006B030000000000000000000064
:1000C0006B0300006B0300006B0300006B03000078
:1000D0006B0300006B0300006B03000000000000D6
:1000E0000000000000000000000000000000000010
:1000F0000000000000000000000000000000000000
:1001000000000000000000000000000000000000EF
:1001100000000000000000000000000000000000DF
:1001200000000000000000000000000000000000CF
:1001300000000000000000000000000000000000BF
:1001400000000000000000000000000000000000AF
:10015000000000000000000000000000000000009F
:10016000000000000000000000000000000000008F
:10017000000000000000000000000000000000007F
:10018000000000000000000000000000000000006F
:10019000000000000000000000000000000000005F
:1001A000000000000000000000000000000000004F
:1001B000000000000000000000000000000000003F
:1001C000000000000000000000000000000000002F
:1001D000000000000000000000000000000000001F
:1001E000000000000000000000000000000000000F
:1001F00000000000000000000000000000000000FF
:10020000344935480A1A02D0072291438D463349B2
:1002100033480A1A06D00722914381F30988022243
:1002200082F314882F483049304A00F041F83048B2
:100230003049314A00F03CF830483149314A00F049
:1002400037F831483149324A00F032F83148324902
:10025000324A00F02DF832483249334A00F028F88B
:1002600032483349334A00F023F8334833490022F7
:1002700000F029F832483349002200F024F83248CF
:100280003249091A08F0A0FD314A90471F48204919
:10029000884205D00268043003B4904703BCF7E7F6
:1002A00000208646EC46002000212A4A9047FEE7BF
:1002B000884207D0521A05D0037801300B70013103
:1002C000013AF9D17047884202D002700130FAE752
:1002D000704700000000012000E000200000012025
:1002E0000000012094920000000000201C0000206B
:1002F000CC030000CC030000DC8D000094920000D1
:100300000000002000000020DC8D0000DC8D0000DB
:10031000DC8D0000DC8D0000DC8D0000DC8D000039
:10032000DC8D0000DC8D000094920000B092000093
:100330001C0000201C0000201C000020601B00206E
:10034000601B0020601B0020601B0020603B002021
:1003500099030000670B0000FEE7FEE7FEE7FEE7FB
:10036000FEE7FEE7FEE7FEE7FEE7FEE700F002B885
:10037000FFF7FCBF0F484FF00701884385460E4842
:1003800080470E48016841F470010160BFF34F8F50
:10039000BFF36F8FFFF734BF09480A490A4A884202
:1003A00007D0521A05D0037801300B700131013AA1
:1003B000F9D17047000001209587000088ED00E02A
:0C03C000DC8D0000000000200000002088
:1003CC0000B583B0094B0193019B0949184605F010
:1003DC002BF8019B03F1280001990023042205F05E
:1003EC0003F900BF03B05DF804FB00BF1C00002044
:1003FC000104000000B583B0019000910849094840
:10040C0006F083FC084A0021042006F055FC019BF1
:10041C00064A9A600823184603B05DF804FB00BF37
:10042C00E08D00001C000020F08D00006104000035
:10043C0084B001900091019B054A9A6000238DF8CD
:10044C000F3000BF9DF80F30184604B0704700BF46
:10045C004547000000B585B001900091009B1B88BA
:10046C00042B1CD0042B21DC012B02D0022B0BD033
:10047C001CE0019B283300223221184605F0E6F8D7
:10048C0003238DF80F3018E0019B2833184605F034
:10049C006FF900F0A3F903238DF80F300DE0019BE9
:1004AC00094A9A6008238DF80F3006E0019B074A31
:1004BC009A6000238DF80F3000BF9DF80F3018465E
:1004CC0005B05DF804FB00BFDD0400003D04000036
:1004DC0000B585B001900091009B1B88042B1CD0AB
:1004EC00042B21DC012B02D0022B0BD01CE0019B36
:1004FC00283300223221184605F0A8F803238DF882
:10050C000F3018E0019B2833184605F031F900F044
:10051C0065F903238DF80F300DE0019B094A9A60B1
:10052C0008238DF80F3006E0019B074A9A600023E0
:10053C008DF80F3000BF9DF80F30184605B05DF8F0
:10054C0004FB00BF610400003D04000084B00346BE
:10055C008DF80730144BDB8C9BB20133ADF80E30A9
:10056C00114B9B8CBDF80E209A4202D10023ADF8A2
:10057C000E300D4B1B8D9BB2BDF80E209A420ED047
:10058C00094B1B6A084AD28C92B213449DF807207F
:10059C001A70054ABDF80E30D384012300E0002305
:1005AC00184604B0704700BF081B002084B00190AF
:1005BC00019B03F0070303930B4BDB680293029A36
:1005CC004FF6FF0313400293039B1A02029B134343
:1005DC0043F0BF6343F400330293034A029BD3609E
:1005EC0000BF04B0704700BF00ED00E082B00346CE
:1005FC0000918DF807309DF90730002B0CDA009B29
:10060C00DAB20C499DF8073003F00F03043B52019A
:10061C00D2B20B441A7609E0009BDAB206499DF976
:10062C0007305201D2B20B4483F8002300BF02B052
:10063C00704700BF00ED00E000E100E0BFF34F8F1A
:10064C0000BF074BDB6803F4E0620549054B13431D
:10065C00CB60BFF34F8F00BF00BF00BFFCE700BFF4
:10066C0000ED00E00400FA0500B583B00190019B99
:10067C00013BB3F1807F01D301230FE0094A019BB9
:10068C00013B536007214FF0FF30FFF7AFFF054BE5
:10069C0000229A60034B07221A600023184603B00D
:1006AC005DF804FB10E000E000B583B00190019B05
:1006BC001B681F2B04D9054940F2CD1003F0BFF87D
:1006CC004FF0A043184603B05DF804FBFC8D00000E
:1006DC0000B585B00190084611461A4603468DF8C0
:1006EC0003300B468DF8023013468DF8013001AB08
:1006FC001846FFF7D9FF03909DF803209DF80230B0
:10070C005B001A439DF801309B001A439DF818308A
:10071C001B0242EA03019DF81C301B04019A194389
:10072C00039B02F5E07243F8221000BF05B05DF8A0
:10073C0004FB00B585B003900023019300230093C4
:10074C000023012201210398FFF7C2FF00BF05B06F
:10075C005DF804FB00B585B0019001AB1846FFF7BE
:10076C00A3FF0390039BD3F804350293029BDA4357
:10077C00019B012101FA03F31A40039BC3F80825DE
:10078C00019B01229A40029B1A40039BC3F80C2543
:10079C0000BF05B05DF804FB00B583B0019000917B
:1007AC0042F210720099019806F0F2FAFEE700008E
:1007BC0008B50749002005F079F8064B1A68064B76
:1007CC001B681344034A1360BFF34F8F00BF08BD6F
:1007DC00188F0000580000205C00002008B50B208A
:1007EC00FFF7B8FF00BF08BD00B585B00190019BB5
:1007FC001B78022B07D1019B5B68174A9421184682
:10080C0002F0B8FC23E0019B1B78012B07D1019B64
:10081C005B68114A9B21184602F0ACFC17E0019B67
:10082C001B78002B0CD10DF10F03184602F03AFF88
:10083C009DF80F301846FFF789FEBFF34F8F06E087
:10084C00019B1B78032B02D1044B01221A7000BFB1
:10085C0005B05DF804FB00BF2C8E000000000020EA
:10086C0030B58DB0134B04AC1D460FCD0FC495E8BD
:10087C00030084E80300104B00934FF400630193D2
:10088C000E4B02934FF400630393694604A80723AD
:10089C000B4A02F077FE0B900B9B0A930A9B002BE2
:1008AC0004D0084AB8210A9802F064FC00BF0DB0CD
:1008BC0030BD00BF808E0000640000206408002062
:1008CC00F50700002C8E000082B001900B468DF8CD
:1008DC00033000BF02B0704700B585B002F038F9A4
:1008EC000390039B0293029B002B04D02B4AC9213B
:1008FC00029802F03FFC2A4A6B4612681146198096
:10090C000233120C1A7003238DF801306B46254A02
:10091C001946122002F06EF90390039B0193019B80
:10092C00002B04D01D4ACD21019802F023FC01219B
:10093C00122002F0D9F90B20FFF7FBFE07F01AFF8B
:10094C00002000F093F80346002B05D107F0AAFE17
:10095C00D7211548FFF720FFFFF782FF13491448F2
:10096C0006F0D3F91349144806F0CFF9F12005F03D
:10097C0043F9F22005F040F9F32005F03DF9F4209D
:10098C0005F03AF9F62005F037F96FF01E0005F086
:10099C0033F900BF05B05DF804FB00BF2C8E0000DE
:1009AC00C08E0000D5080000C48E0000988E000098
:1009BC00188F0000AC8E00006000002000B585B0E0
:1009CC00FFF7FEFC084B18680023029300230193E9
:1009DC00002300930A23054A022107F009FE00BFF9
:1009EC0005B05DF804FB00BFDC8D00006410002036
:1009FC0008B5094B1B68094AA2FB03235B0918467F
:100A0C00FFF732FE0020FFF7D1FD02214FF0FF303F
:100A1C00FFF7ECFD00BF08BD180000201F85EB514F
:100A2C0000B583B007F02CFE06F0B2FB0E4B1B7822
:100A3C00002B14D007F012FE05F0A4F80346ADF815
:100A4C00063007F01DFEBDF806304FF6FF729342DC
:100A5C0005D0BDF80630DBB2184602F05DFE00BFD3
:100A6C0003B05DF804FB00BF0000002000B583B0AC
:100A7C0001904FF400610C4805F04EF864210B48CE
:100A8C0006F03EFB0A4B1B680A4AA2FB03235B09D8
:100A9C00094A1360084B1B68084A13600123184667
:100AAC0003B05DF804FB00BF8C1000208C180020F4
:100ABC00180000201F85EB515C000020580000201E
:100ACC0000BF70470A4B1B6803F48033002B05D121
:100ADC00084B1A68064B9B68D31A07E0054B1A683B
:100AEC00054B1B681A44024B9B68D31A1846704777
:100AFC0010E000E0580000205C00002000B583B03E
:100B0C0005F040F80346ADF80630BDF806304FF658
:100B1C00FF7293420AD0084B1B78002BF0D0BDF823
:100B2C000630DBB2184602F0F7FDE9E700BF00BF64
:100B3C0003B05DF804FB00BF0000002008B5FFF710
:100B4C007DFD00BF08BD84B0029101920093034665
:100B5C008DF80F3000BF04B0704708B507F046FCA5
:100B6C00FFF7BAFEFFF72AFF07F07CFC0346184696
:100B7C0008BD000082B003468DF807309DF80730A1
:100B8C0003F01F0205499DF907305B09012000FAAB
:100B9C0002F241F8232000BF02B0704700E100E0F0
:100BAC0082B0034600918DF807309DF90730002B79
:100BBC000CDA009BDAB20C499DF8073003F00F03F6
:100BCC00043B5201D2B20B441A7609E0009BDAB214
:100BDC0006499DF907305201D2B20B4483F8002329
:100BEC0000BF02B0704700BF00ED00E000E100E084
:100BFC0082B00190019B1B0B5BB2184602B0704790
:100C0C0000B583B003460A468DF8073013468DF8BD
:100C1C0006309DF80630072B03D908496B2002F0EB
:100C2C000EFE9DF806209DF9073011461846FFF779
:100C3C00B7FF00BF03B05DF804FB00BF1C8F0000C2
:100C4C0000B583B003468DF807309DF90730184680
:100C5C00FFF790FF00BF03B05DF804FB84B0019078
:100C6C000B46ADF80230BDF80230019A1344002255
:100C7C001A60BDF80230019A13441B680393039B5E
:100C8C0000BF04B0704782B001900B46ADF8023043
:100C9C00BDF80230019A13441B68002B14BF0123CA
:100CAC000023DBB2184602B0704782B0019000916D
:100CBC00019B009AC3F8042300BF02B0704782B0B6
:100CCC0001900091019BD3F80423009B1340002B4F
:100CDC0014BF01230023DBB2184602B0704782B068
:100CEC0001900091019B009AC3F8082300BF02B049
:100CFC00704784B00190019BD3F880340393019B1F
:100D0C00039AC3F88024039B184604B0704782B042
:100D1C000190019B0422C3F8002500BF02B070476C
:100D2C0084B0039002910192039B019AC3F814259D
:100D3C00039B029AC3F80C2500BF04B0704784B023
:100D4C00039002910192039B029AC3F80825039B1E
:100D5C00019AC3F8102500BF04B0704782B001900F
:100D6C00019BD3F81835DBB2184602B0704782B03D
:100D7C0001900B468DF803309DF80320019BC3F8BE
:100D8C001C2500BF02B0704782B001900B468DF855
:100D9C0003309DF80330019A134401221A6000BFFE
:100DAC0002B0704782B001900B468DF803301346A9
:100DBC008DF802309DF803209DF802301343DBB20E
:100DCC001A46019BC3F86C2500BF02B0704782B075
:100DDC0001900091019B009AC3F8242500BF02B03A
:100DEC007047000000B583B00190019B1B681F2B5E
:100DFC0004D9054940F2CD1002F021FD4FF0A0437B
:100E0C00184603B05DF804FB4C8F000000B585B0AC
:100E1C000190084611461A4603468DF803300B46DE
:100E2C008DF8023013468DF8013001AB1846FFF7F0
:100E3C00D9FF03909DF803209DF802305B001A4304
:100E4C009DF801309B001A439DF818301B0242EAB2
:100E5C0003019DF81C301B04019A1943039B02F5F6
:100E6C00E07243F8221000BF05B05DF804FB00B53A
:100E7C0085B00390002301930023009300230122EB
:100E8C0001210398FFF7C2FF00BF05B05DF804FB1A
:100E9C0000B585B003900B468DF80B309DF80B30E8
:100EAC000022019200220092002200210398FFF7F9
:100EBC00ADFF00BF05B05DF804FB00B585B0019037
:100ECC0001AB1846FFF78EFF0390019B012202FA3B
:100EDC0003F31946039800F004F800BF05B05DF861
:100EEC0004FB82B001900091019B009AC3F8082585
:100EFC0000BF02B0704700B583B001900091009B19
:100F0C001B68B3F1FF3F09D0009B1B681846FFF725
:100F1C00D4FF009B1B681846FFF7A9FF009B5B687A
:100F2C00B3F1FF3F05D0009B5B6800211846FFF72B
:100F3C00AFFF019B1A68009B9B6919461046FFF78F
:100F4C0046FF019B1868009B597D009B1B7D1A4630
:100F5C00FFF728FF019B1868009B1968009B5B68D2
:100F6C001A46FFF7DDFE009B1B7D012B22D1009B57
:100F7C009B68B3F1FF3F05D0009B9B68002118468E
:100F8C00FFF786FF009BDB68B3F1FF3F09D0009BA6
:100F9C00DB681846FFF791FF009BDB681846FFF7EC
:100FAC0066FF019B1868009BD968009B9B681A46DA
:100FBC00FFF7C5FE00BF03B05DF804FB00B583B0BE
:100FCC0001900B468DF80330019B1B684FF48E711A
:100FDC001846FFF743FE019B1B684FF4A27118469D
:100FEC00FFF73CFE019B1B680E491846FFF75DFEA0
:100FFC00019B1B681846FFF7FBFD03461A469DF83C
:10100C00033019461046FFF7FBFD019B1B68184681
:10101C00FFF7EEFD03461846FFF712FE00BF03B0C4
:10102C005DF804FB8000020000B587B003900291CC
:10103C000192029B002B03D12D49AA2002F0FFFB49
:10104C00039B1B791A462C2302FB03F3294A1344F6
:10105C00059300230493059B93F82A30002B03D0AF
:10106C0008230493049B3EE0039B1A68039B1B79A3
:10107C001946214B53F821301946104601F0C4F99A
:10108C000346002B03D011230493049B2BE00299FD
:10109C000398FFF730FF059B019A5A60029B1A696F
:1010AC00059B1A60059B5B68002B05D0029B1B7F80
:1010BC0019460398FFF782FF039B1B681846FFF73E
:1010CC0026FE059B00229A61059B0022DA61059B96
:1010DC00002283F82920059B00225A61059B0122DE
:1010EC0083F82A20049B184607B05DF804FB00BF68
:1010FC007C8F0000F0180020B88F000000B585B080
:10110C00019000914FF48E710198FFF7A7FD009BA1
:10111C009A68009B1B6A13441B788DF80F30009B58
:10112C001B6A5A1C009B1A629DF80F3019460198D5
:10113C00FFF71DFE00BF05B05DF804FB00B585B0E0
:10114C0001900091009B5B69039316E0009B93F860
:10115C002830DBB2002B01D0002314E04FF48E7149
:10116C000198FFF790FD034683F00103DBB2002BDF
:10117C00ECD100990198FFF7C1FF009B1B6A039A01
:10118C009A42EBD80123184605B05DF804FB000029
:10119C0000B587B0039002910192039B1B791A460C
:1011AC002C2302FB03F33C4A13440493049B93F853
:1011BC002A30012B04D039494FF48C7002F03FFBDC
:1011CC00029B002B04D1354940F2191002F037FB79
:1011DC00019B002B04D131494FF48D7002F02FFB91
:1011EC00039800F05DF80346002B03D01123059300
:1011FC00059B4CE0049B019A5A61049B029A9A60ED
:10120C00049B00221A62049B002283F828200023EE
:10121C000593039B1B684FF48E711846FFF71EFD58
:10122C00039B1B6808211846FFF7AEFD039B1B6848
:10123C0004991846FFF762FF049B5B68002B25D1CD
:10124C00039B1B6804991846FFF778FF034683F04D
:10125C000103DBB2002B02D00F23059313E000BF78
:10126C00039B1B684FF48E711846FFF70CFD034669
:10127C0083F00103DBB2002BF2D1039B1B680C2122
:10128C001846FFF781FD049B00225A61059B184606
:10129C0007B05DF804FB00BFF01800207C8F000045
:1012AC0082B00190019B1B791946074A2C2301FB44
:1012BC0003F3134414331B68002B14BF01230023C6
:1012CC00DBB2184602B07047F018002000B583B0AE
:1012DC000190019B1B684FF492711846FFF7BEFCFE
:1012EC00019B1B684FF484711846FFF7B7FC019BF8
:1012FC001B6800211846FFF747FD00BF03B05DF8DF
:10130C0004FB10B582B001900091009B9B69002BEF
:10131C0008D14FF484710198FFF7A0FC0198FFF7F6
:10132C001DFD13E04FF484710198FFF797FC009BAF
:10133C00DA68009B5B6AD4180198FFF70FFD03462F
:10134C002370009B5B6A5A1C009B5A6202B010BD52
:10135C0000B589B0039002910192039B1B791A4648
:10136C002C2302FB03F37F4A13440693039B1B7944
:10137C0019467C4A2C2301FB03F313442A331B78B4
:10138C00012B04D078494FF4B67002F058FA029B46
:10139C00002B04D1744940F26D1002F050FA019BFD
:1013AC00002B04D170494FF4B77002F048FA0023B7
:1013BC008DF81F30069B5B68002B06D0039B1B68C7
:1013CC004FF401711846FFF78AFC069B9B69002BB2
:1013DC0015D0069BDB69002B0ED0069B5B68002B9F
:1013EC0006D0039B1B684FF401711846FFF75DFC98
:1013FC0011230593059BB0E001238DF81F309DF858
:10140C001F3083F00103DBB2002B0CD0069B019A3A
:10141C009A61069B029ADA60069B00225A62069B2E
:10142C000022DA6105E0069B029A1A61069B019A7A
:10143C00DA61069B93F8293083F00103DBB2002BB1
:10144C0009D09DF81F3083F00103DBB2002B02D0D2
:10145C000398FFF73BFF069B5B68002B73D1039B44
:10146C001B684FF4A2711846FFF7F8FB039B1B682F
:10147C004FF492711846FFF706FC03468DF81330B3
:10148C00039B1B684FF484711846FFF7FCFB034663
:10149C008DF81230039B1B684FF4A2711846FFF7AE
:1014AC00F2FB03468DF811309DF8123083F00103E6
:1014BC00DBB2002B0DD09DF8113083F00103DBB2B1
:1014CC00002B06D09DF8133083F00103DBB2002B08
:1014DC00CCD19DF81330002B0FD19DF81130002B7F
:1014EC000BD1039B1B6806991846FFF70AFF069B56
:1014FC009A69069B5B6A9A42B8D8069B00229A614D
:10150C009DF81330002B03D003230593059B24E097
:10151C009DF81130002B03D00F230593059B1CE085
:10152C00069B93F82930002B06D0039B1B680021E7
:10153C001846FFF729FC0DE0039B1B680421184695
:10154C00FFF722FC06E0039B1B684FF40171184661
:10155C00FFF7ABFB00230593059B184609B05DF81C
:10156C0004FB00BFF01800207C8F000000B589B090
:10157C0003900291019201238DF81030029B069387
:10158C00019B0593039B5B68039A116804AA1046A0
:10159C00984700BF09B05DF804FB00B587B0019017
:1015AC00009100238DF80830009B0493019B9B68ED
:1015BC000393019B00225A61019B5B68019A11689D
:1015CC0002AA1046984700BF07B05DF804FB00B5AF
:1015DC008BB0019000914FF400710198FFF76FFBF5
:1015EC000346002B39D04FF492710198FFF74BFB57
:1015FC000346002B31D04FF492710198FFF72EFB6C
:10160C004FF401710198FFF76AFB009B93F82930A6
:10161C0083F00103DBB2002B03D004210198FFF708
:10162C00B3FB02238DF80C300198FFF762FB0346E5
:10163C000693009B9B690593009BDB680493009BBE
:10164C0000229A61009B0022DA61009B5B68009A81
:10165C00116803AA1046984752E004210198FFF73D
:10166C002EFB0346002B4BD04FF484710198FFF7EF
:10167C000AFB0346002B43D000990198FFF741FE6B
:10168C00009B9A69009B5B6A9A4239D1009BDB698B
:10169C00002B19D0009BDB680993009B5B6A0893B5
:1016AC00009BDA69009B9A61009B1A69009BDA60C7
:1016BC00009B0022DA61009B00225A62099A089969
:1016CC000098FFF753FF1BE0009B93F8293083F041
:1016DC000103DBB2002B03D004210198FFF754FB6C
:1016EC004FF401710198FFF7FAFA009B00229A61FE
:1016FC00009B596A009BDB681A460098FFF736FF7F
:10170C004FF48E710198FFF7BEFA0346002B24D0DC
:10171C00009B5B690793009B1B6A079A9A420DD941
:10172C00009B93F82830DBB283F00103DBB2002B73
:10173C0004D000990198FFF7E1FC0EE04FF48E7194
:10174C000198FFF78BFA009B5B69002B05D0009B7F
:10175C005B6919460098FFF720FF4FF4A2710198BE
:10176C00FFF791FA0346002B1CD04FF4A27101989D
:10177C00FFF774FA009B93F82930002B03D000215B
:10178C000198FFF701FB009B9B69002B0AD0009B83
:10179C0000229A61009B596A009BDB681A460098EC
:1017AC00FFF7E4FE00BF0BB05DF804FB08B503497E
:1017BC000348FFF70CFF00BF08BD00BFF018002066
:1017CC000020004082B003468DF807309DF80730AA
:1017DC0003F01F0205499DF907305B09012000FA4F
:1017EC0002F241F8232000BF02B0704700E100E094
:1017FC0082B0034600918DF807309DF90730002B1D
:10180C000CDA009BDAB20C499DF8073003F00F0399
:10181C00043B5201D2B20B441A7609E0009BDAB2B7
:10182C0006499DF907305201D2B20B4483F80023CC
:10183C0000BF02B0704700BF00ED00E000E100E027
:10184C0082B00190019B03F06043B3F1005F0CBFC9
:10185C0001230023DBB2184602B0704782B001901E
:10186C00019B1B0B5BB2184602B0704700B583B0EE
:10187C0003460A468DF8073013468DF806309DF85E
:10188C000630072B03D908496B2001F0D8FF9DF8CF
:10189C0006209DF9073011461846FFF7A9FF00BF37
:1018AC0003B05DF804FB00BFBC8F000000B583B033
:1018BC0003468DF807309DF907301846FFF782FF75
:1018CC0000BF03B05DF804FB84B001900B46ADF88B
:1018DC000230BDF80230019A134400221A60BDF8A0
:1018EC000230019A13441B680393039B00BF04B09E
:1018FC00704782B001900B46ADF80230BDF8023053
:10190C00019A13441B68002B14BF01230023DBB284
:10191C00184602B0704782B001900091019BD3F839
:10192C000022009B1A43019BC3F8002200BF02B0A7
:10193C00704782B001900091019BD3F80022009B6C
:10194C00DB431A40019BC3F8002200BF02B0704772
:10195C0082B001900091019B009AC3F8042300BF50
:10196C0002B0704782B001900091019B009AC3F8BD
:10197C00082300BF02B0704784B00190019BD3F8DC
:10198C0080340393019B039AC3F88024039B18466D
:10199C0004B0704782B00190019B0822C3F8002567
:1019AC0000BF02B0704784B0039002910192039B78
:1019BC00029AC3F80C25039B019AC3F8142500BFA7
:1019CC0004B0704784B0039002910192039B029A79
:1019DC00C3F80825039B019AC3F8102500BF04B077
:1019EC00704782B001900B468DF803309DF80330A0
:1019FC00019A134401221A6000BF02B0704782B0F2
:101A0C0001900B468DF8033013468DF802309DF88B
:101A1C0003209DF802301343DBB21A46019BC3F836
:101A2C006C2500BF02B0704782B001900091019B01
:101A3C00009AC3F8242500BF02B0704784B003900D
:101A4C0002910192029A039BC3F84425039B019ACD
:101A5C00C3F8482500BF04B0704782B00190019BC9
:101A6C00D3F84C35184602B0704784B003900291FD
:101A7C000192029A039BC3F83425039B019AC3F885
:101A8C00382500BF04B0704782B00190019BD3F899
:101A9C003C35184602B0704700B583B00190019BED
:101AAC001B681F2B04D9054940F2CD1001F0C7FE6D
:101ABC004FF0A043184603B05DF804FBEC8F000018
:101ACC0000B585B00190084611461A4603468DF8BC
:101ADC0003300B468DF8023013468DF8013001AB04
:101AEC001846FFF7D9FF03909DF803209DF80230AC
:101AFC005B001A439DF801309B001A439DF8183087
:101B0C001B0242EA03019DF81C301B04019A194385
:101B1C00039B02F5E07243F8221000BF05B05DF89C
:101B2C0004FB00B585B003900023019300230093C0
:101B3C000023012201210398FFF7C2FF00BF05B06B
:101B4C005DF804FB00B585B003900B468DF80B30A7
:101B5C009DF80B30002201920022009200220021FD
:101B6C000398FFF7ADFF00BF05B05DF804FB00B5AF
:101B7C0085B0019001AB1846FFF78EFF0390019BD7
:101B8C00012202FA03F31946039800F004F800BF8F
:101B9C0005B05DF804FB82B001900091019B009AA6
:101BAC00C3F8082500BF02B0704700B583B00190A0
:101BBC000091009B1B68B3F1FF3F09D0009B1B6891
:101BCC001846FFF7D4FF009B1B681846FFF7A9FFC8
:101BDC00009B5B68B3F1FF3F05D0009B5B68002165
:101BEC001846FFF7AFFF019B1A68009B9B691946CB
:101BFC001046FFF719FF019B1868009B597D009B4D
:101C0C001B7D1A46FFF7FBFE019B1868009B1968A9
:101C1C00009B5B681A46FFF7C6FE009B1B7D012BE1
:101C2C0022D1009B9B68B3F1FF3F05D0009B9B68C2
:101C3C0000211846FFF786FF009BDB68B3F1FF3FDE
:101C4C0009D0009BDB681846FFF791FF009BDB680F
:101C5C001846FFF766FF019B1868009BD968009B2C
:101C6C009B681A46FFF7AEFE00BF03B05DF804FB9D
:101C7C0000B583B001900B468DF80330019B1B68B7
:101C8C004FF488711846FFF71FFE019B1B684FF439
:101C9C0090711846FFF718FE019B1B684FF4927168
:101CAC001846FFF711FE019B1B684FF4A2711846F2
:101CBC00FFF70AFE019B1B684FF4AC711846FFF747
:101CCC0003FE019B1B680F491846FFF741FE019B61
:101CDC001B681846FFF7C2FD03461A469DF80330F1
:101CEC0019461046FFF7C2FD019B1B681846FFF70B
:101CFC00B5FD03461846FFF7D9FD00BF03B05DF8EC
:101D0C0004FB00BF1003420000B587B003900291A2
:101D1C000192029B002B03D12B49CF2001F08FFDA8
:101D2C00039B1B791A461346DB0013449B00274A7E
:101D3C001344059300230493059B93F82030002B48
:101D4C0003D008230493049B3AE0039B1A68039B7B
:101D5C001B7919461E4B53F821301946104600F0DA
:101D6C0053FB0346002B03D011230493049B27E061
:101D7C0002990398FFF719FF059B019A5A60029B81
:101D8C001A69059B1A60059B5B68002B05D0029BAA
:101D9C001B7F19460398FFF76BFF039B1B681846C4
:101DAC00FFF7F8FD059B00229A61059B0022DA6182
:101DBC00059B00225A61059B012283F82020049B7D
:101DCC00184607B05DF804FB1C9000001C1900209D
:101DDC005890000000B589B0039002910192039BCA
:101DEC001B791A461346DB0013449B00564A1344D6
:101DFC000693069B93F82030012B04D0534940F2F4
:101E0C002D1001F01CFD029B002B04D14F494FF407
:101E1C00977001F014FD019B002B04D14B4940F24B
:101E2C002F1001F00CFD039B1B79002B02D1019BA1
:101E3C00FF2B04D945494FF4987001F000FD02982E
:101E4C00FFF7FEFC034683F00103DBB2002B03D04B
:101E5C0010230793079B73E0039800F079F803466F
:101E6C00002B03D011230793079B69E0069B019A73
:101E7C005A61069B029A9A6000230793039B1B6886
:101E8C004FF490711846FFF71FFD039B1B684FF42E
:101E9C00AC711846FFF718FD039B1868069B9968F0
:101EAC00069B5B691A46FFF7C9FD039B1B6808215B
:101EBC001846FFF796FD069B5B68002B3FD1039BF2
:101ECC001B684FF490711846FFF713FD03468DF80D
:101EDC001730039B1B684FF4AC711846FFF709FDD4
:101EEC0003468DF816309DF8173083F00103DBB2F2
:101EFC00002B06D09DF8163083F00103DBB2002BCB
:101F0C00DDD19DF81630002B02D00F23079313E080
:101F1C00039B1B680C211846FFF763FD00BF039B56
:101F2C001B684FF4AC711846FFF7E3FC034683F0D3
:101F3C000103DBB2002BF2D1069B00225A61079BF6
:101F4C00184609B05DF804FB1C1900201C90000019
:101F5C0082B00190019B1B791946084A0B46DB00A5
:101F6C000B449B00134414331B68002B14BF012338
:101F7C000023DBB2184602B0704700BF1C190020CA
:101F8C0000B589B0039002910192039B1B791A460C
:101F9C001346DB0013449B00864A13440593039BB2
:101FAC001B791946834A0B46DB000B449B001344F8
:101FBC0020331B78012B04D07F494FF4C07001F003
:101FCC003EFC029B002B04D17B4940F2811001F0B6
:101FDC0036FC019B002B04D177494FF4C17001F002
:101FEC002EFC039B1B79002B02D1019BFF2B04D9E8
:101FFC00714940F2831001F022FC0298FFF720FC9B
:10200C00034683F00103DBB2002B03D010230793AC
:10201C00079BCAE000238DF81B30059B5B68002BE7
:10202C0006D0039B1B684FF404711846FFF79AFC0B
:10203C00059B9B69002B15D0059BDB69002B0ED0F3
:10204C00059B5B68002B06D0039B1B684FF4047147
:10205C001846FFF77DFC11230793079BA5E001238E
:10206C008DF81B309DF81B3083F00103DBB2002B85
:10207C0009D0059B019A9A61059B029ADA60059B2F
:10208C000022DA6105E0059B029A1A61059B019A10
:10209C00DA6100230793039B1B684FF48871184681
:1020AC00FFF712FC039B1B684FF4A2711846FFF755
:1020BC000BFC039B1B68019A02991846FFF7D5FC91
:1020CC009DF81B3083F00103DBB2002B06D0039B81
:1020DC001B6800211846FFF784FC05E0039B1B6876
:1020EC0020211846FFF717FC039B1B791946314A30
:1020FC000B46DB000B449B00134404331B68002B82
:10210C004BD1039B1B684FF488711846FFF7F1FB0A
:10211C0003468DF81330039B1B684FF4A2711846CD
:10212C00FFF7E7FB03468DF81230039B1B684FF457
:10213C0092711846FFF7DDFB03468DF811309DF8C0
:10214C00133083F00103DBB2002B0DD09DF812305D
:10215C0083F00103DBB2002B06D09DF8113083F025
:10216C000103DBB2002BCCD1039B1B791946114A1E
:10217C000B46DB000B449B001344183300221A60FF
:10218C009DF81130002B01D0032307939DF81230DA
:10219C00002B09D00F23079306E0039B1B684FF419
:1021AC0004711846FFF7D4FB079B184609B05DF87D
:1021BC0004FB00BF1C1900201C90000000B589B066
:1021CC0003900291019201238DF81030029B06932B
:1021DC00019B0593039B5B68039A116804AA104644
:1021EC00984700BF09B05DF804FB00B587B00190BB
:1021FC00009100238DF80830009B0493019B9B6891
:10220C000393019B00225A61019B5B68019A116840
:10221C0002AA1046984700BF07B05DF804FB00B552
:10222C0089B0019000914FF492710198FFF761FB16
:10223C000346002B22D04FF492710198FFF744FB18
:10224C0002238DF808300198FFF796FB034605939F
:10225C000198FFF719FC03460493009BDB6803937A
:10226C00009B00229A61009B0022DA61009B5B6854
:10227C00009A116802AA104698473BE04FF4887107
:10228C000198FFF736FB0346002B33D04FF48871CF
:10229C000198FFF719FB0198FFF7F6FB0790009BDD
:1022AC009B69079A9A4225D1009BDB69002B17D0BA
:1022BC00009BDB68069320210198FFF73AFB009BFB
:1022CC00DA69009B9A61009B1A69009BDA60009B9B
:1022DC000022DA61069A07990098FFF76FFF09E070
:1022EC00009B00229A61009BDB681A4607990098B4
:1022FC00FFF764FF4FF4A2710198FFF7FAFA034657
:10230C00002B18D04FF4A2710198FFF7DDFA009B57
:10231C009B69002B0FD0009B00229A61009B00222E
:10232C00DA610198FFF7B0FB0146009BDB681A46A7
:10233C000098FFF743FF4FF490710198FFF7D9FA1B
:10234C000346002B14D04FF490710198FFF7BCFAA0
:10235C000C210198FFF745FB009B5B69002B07D014
:10236C000198FFF77AFB034619460098FFF73DFFEB
:10237C004FF4AC710198FFF7BCFA0346002B10D058
:10238C004FF4AC710198FFF79FFA009B5B69002B2F
:10239C0007D00198FFF761FB034619460098FFF739
:1023AC0024FF00BF09B05DF804FB000008B5034929
:1023BC000348FFF734FF00BF08BD00BF1C19002005
:1023CC000020004008B5064B1B68002B03D10549C3
:1023DC00512001F034FA024B1B68984700BF08BD2E
:1023EC00401900205C90000082B00190019B044ACF
:1023FC00934201D1034B00E00023184602B0704712
:10240C00002000404019002000B587B001900091D9
:10241C00019B002B03D11849772001F010FA019889
:10242C00FFF7E2FF0490049B002B1ED000238DF8D5
:10243C001730002001F0BCF9049B1B79002B03D052
:10244C0001238DF8173005E0049B009A1A60049B59
:10245C0001221A71002001F0BFF99DF81730002BF2
:10246C0003D011230393039B02E000230393039BEC
:10247C00184607B05DF804FB5C90000082B0034680
:10248C008DF807309DF8073003F01F0205499DF9C0
:10249C0007305B09012000FA02F241F8232000BF4B
:1024AC0002B0704700E100E082B0034600918DF865
:1024BC0007309DF90730002B0CDA009BDAB20C497F
:1024CC009DF8073003F00F03043B5201D2B20B44CA
:1024DC001A7609E0009BDAB206499DF907305201E1
:1024EC00D2B20B4483F8002300BF02B0704700BF88
:1024FC0000ED00E000E100E000B583B003460A46C1
:10250C008DF8073013468DF806309DF80630072BF2
:10251C0003D908496B2001F092F99DF806209DF92A
:10252C00073011461846FFF7BFFF00BF03B05DF838
:10253C0004FB00BF9890000000B583B003468DF8F3
:10254C0007309DF907301846FFF798FF00BF03B01E
:10255C005DF804FB00B583B00346ADF80630BDF85A
:10256C000630184600F026F803461B68012B0CBFFA
:10257C0001230023DBB2184603B05DF804FB00B561
:10258C0085B00346ADF80630BDF80630184600F0AD
:10259C0011F803461A4600231360BDF8063018469E
:1025AC0000F008F803461B680393039B00BF05B0BB
:1025BC005DF804FB82B00346ADF80630BDF806307A
:1025CC0003F1804303F5C043184602B07047000086
:1025DC0082B00190034A019BC2F8043300BF02B0E1
:1025EC00704700BF0060004082B00190034BD3F8ED
:1025FC000423019B1340184602B070470060004052
:10260C0082B00190084A019B03F5A27352F8233063
:10261C00054943F00102019B03F5A27341F8232005
:10262C0000BF02B0704700BF0060004084B0039050
:10263C00029113468DF80730144A039B03F5A273DD
:10264C0052F82330114923F4473323F44073039A8F
:10265C0002F5A27241F822300C4A039B03F5A273D7
:10266C0052F82320029B1B0203F4F8519DF807300B
:10267C001B0403F440330B4304491A43039B03F537
:10268C00A27341F8232000BF04B0704700600040E3
:10269C0082B00190054A019B03F5A27352F82330D6
:1026AC001B0A03F01F03184602B07047006000407D
:1026BC0082B00190064A019B03F5A27352F82330B5
:1026CC001B0C03F00303DBB2184602B0704700BFCB
:1026DC000060004000B583B00190019B1B681F2B6C
:1026EC0004D9054940F2CD1001F0A9F84FF0A043F0
:1026FC00184603B05DF804FBC890000000B585B027
:10270C000190084611461A4603468DF803300B46D5
:10271C008DF8023013468DF8013001AB1846FFF7E7
:10272C00D9FF03909DF803209DF802305B001A43FB
:10273C009DF801309B001A439DF818301B0242EAA9
:10274C0003019DF81C301B04019A1943039B02F5ED
:10275C00E07243F8221000BF05B05DF804FB00B531
:10276C0085B003900B468DF80B309DF80B30002292
:10277C00019200220092002200210398FFF7BEFF75
:10278C0000BF05B05DF804FB00B585B0019001AB4E
:10279C001846FFF79FFF0390019A039B02F5E07226
:1027AC0053F8223023F002030293019A039B02F5A3
:1027BC00E072029943F8221000BF05B05DF804FBEB
:1027CC0000B585B001900B468DF8033001AB18466F
:1027DC00FFF780FF0390019A039B02F5E07253F818
:1027EC002230019A23F44031039B02F5E07243F846
:1027FC002210019A039B02F5E07253F822309DF8E7
:10280C00032012041146019A1943039B02F5E0724E
:10281C0043F8221000BF05B05DF804FB00B585B08D
:10282C00019001AB1846FFF755FF0390039800F099
:10283C0020F80246019B22FA03F303F00103184629
:10284C0005B05DF804FB00B585B0019001AB1846EE
:10285C00FFF740FF0390019A039B02F5E07253F8D7
:10286C0022301B0C03F00303DBB2184605B05DF8F5
:10287C0004FB82B00190019BD3F81035184602B0CE
:10288C007047000000B587B00390029101924FF0A1
:10289C00A0430493039A029B1344012B04D91249BD
:1028AC0040F2FD2000F0CBFF039B059311E0059B4C
:1028BC009B0018336B4453F8083C1846FFF7D9FFBC
:1028CC000246019B1A60019B04330193059B013363
:1028DC000593039A029B1344059A9A42E7D300BFCF
:1028EC0000BF07B05DF804FBC890000084B00190F5
:1028FC000091009B0393019BDB080293019B03F067
:10290C00070301930122019B02FA03F30399029A34
:10291C000A4412781340184604B0704784B00190F2
:10292C000091009B0393019BDB080293019B03F036
:10293C0007030193039A029B13441B785AB201219B
:10294C00019B01FA03F35BB2134359B2039A029B46
:10295C001344CAB21A7000BF04B0704782B0019021
:10296C000C4A019B1344243393F90030002B09DBF0
:10297C00084A019B1344243393F90030072B01DCE4
:10298C00012300E0002303F00103DBB2184602B080
:10299C00704700BF4819002082B00190064A019B85
:1029AC001344243393F90030072BCCBF01230023AD
:1029BC00DBB2184602B070474819002082B0019073
:1029CC00064A019B1344243393F90030DB43DBB2FA
:1029DC00DB09DBB2184602B0704700BF4819002073
:1029EC0084B00390029101928DF80330029B59B28E
:1029FC000E4A039B134424330A461A700B49029B5C
:102A0C00019A41F823209DF8033083F00103DBB2D7
:102A1C00002B08D0029B083B039A51B2034A134483
:102A2C000A4683F8442000BF04B0704748190020C0
:102A3C0082B00190044A019B13442433FF221A7084
:102A4C0000BF02B0704700BF4819002000B583B02A
:102A5C00019004490198FFF761FF00BF03B05DF8D6
:102A6C0004FB00BF8D19002082B00190044A019B29
:102A7C001344243393F90030184602B0704700BF5A
:102A8C004819002082B00190034A019B52F8233070
:102A9C00184602B0704700BF4819002000B589B035
:102AAC000390029113468DF80730FF238DF81F30E9
:102ABC009DF80730002B01D0002300E0082305937C
:102ACC009DF80730002B01D0082300E00923049364
:102ADC00059B069314E00F4A069B52F82330B3F182
:102AEC00FF3F0AD19DF80730029A06990398FFF729
:102AFC0077FF069B8DF81F3006E0069B013306938B
:102B0C00069A049B9A42E6D39DF91F30184609B0E9
:102B1C005DF804FB4819002082B003468DF807309D
:102B2C009DF80730094A4FF0FF3142F823109DF809
:102B3C000730072B07D99DF80730083B034A13448D
:102B4C00FF2283F8442000BF02B0704748190020D0
:102B5C0000B583B0254B93F84930002B03D00823E4
:102B6C000093009B3EE000238DF8073009E09DF8B0
:102B7C0007301846FFF75CFF9DF8073001338DF8DE
:102B8C0007309DF807301F2BF1D900238DF8073043
:102B9C0009E09DF807301846FFF7BEFF9DF8073097
:102BAC0001338DF807309DF80730082BF1D904223A
:102BBC0000210F4806F0D2F806210620FFF79CFCF6
:102BCC000620FFF7B9FC4FF4BE70FFF7D8FC4FF0AE
:102BDC000040FFF7FDFC054B012283F84920002340
:102BEC000093009B184603B05DF804FB48190020C5
:102BFC008D19002000B587B0039002910192039BC0
:102C0C001F2B04D9364940F2072000F018FE002390
:102C1C0005930398FFF7D2FE0346002B02D008233E
:102C2C00059357E0029B9B78C3F34003DBB21A4633
:102C3C0001990398FFF732FF03468DF813309DF985
:102C4C001330B3F1FF3F43D0029B9B78C3F3800357
:102C5C00DBB283F00103DBB2002B13D0029B9B7819
:102C6C0003F00103DBB2002B03D00398FFF78CFDBC
:102C7C0005E0029B5B7819460398FFF770FD0398FB
:102C8C00FFF7E4FE029B9B7803F00203DBB2002B00
:102C9C0008D09DF91300029B1B781A460399FFF785
:102CAC00C5FC17E09DF91330083B0E4A134493F909
:102CBC004410029B1B789B015AB29DF91330083BC0
:102CCC000A4351B2074A13440A4683F8442001E0F0
:102CDC0004230593059B184607B05DF804FB00BF61
:102CEC00F89000004819002000B589B001900B46FF
:102CFC008DF80330019B1F2B04D93D4940F237203E
:102D0C0000F09DFD0198FFF759FE0346002B04D1FE
:102D1C0037494FF40E7000F092FD0198FFF73CFE1E
:102D2C000346002B2FD00198FFF79EFE0346083B6D
:102D3C00304A134493F944308DF80F309DF80F301E
:102D4C009B098DF80E309DF80E30032B0BD101989A
:102D5C00FFF764FD0346002B01D0032300E00223A0
:102D6C008DF81F3008E09DF80E30012B01D10223A5
:102D7C0000E003238DF81F309DF81F301946019891
:102D8C00FFF71EFD30E00198FFF7E8FD0346002B2E
:102D9C002AD00198FFF768FE03460693069B9BB268
:102DAC0040339BB29B00ADF81630069B1846FFF7DC
:102DBC0027FCBDF816301846FFF7E1FB9DF80330F1
:102DCC00002B11D00198FFF74FFE03461846FFF772
:102DDC0059FE0490049B002B06D00122069B02FA9C
:102DEC0003F31846FFF7F4FB00BF09B05DF804FBD2
:102DFC00F89000004819002000B595B000231393FB
:102E0C00002303934FF48073ADF8463001231093E5
:102E1C000023129321E0BDF846301846FFF79AFBC9
:102E2C000346002B0ED01098FFF7DEFB0346002B59
:102E3C0008D0BDF846301846FFF7A1FB139A109B3B
:102E4C0013431393109B5B001093BDF8463004336F
:102E5C00ADF84630129B01331293129B072BDAD933
:102E6C004FF4BE70FFF776FB0346002B0DD04FF4EA
:102E7C00BE70FFF784FB139B43F00043139303AB2B
:102E8C001A4601210020FFF7FDFC139BDBB2002B3F
:102E9C0029D0012310930023129321E0109A139B45
:102EAC001340002B16D01298FFF7F2FB0D901298DE
:102EBC00FFF7FEFB03468DF833301298FFF7E2FD67
:102ECC000B900B9B002B05D09DF833200B9B1146D0
:102EDC000D989847109B5B001093129B0133129333
:102EEC00129B072BDAD9139B002B80F2EE80002368
:102EFC008DF83B300023029300230F930AE00F9BC5
:102F0C009B0050336B444FF0FF3243F84C2C0F9B1B
:102F1C0001330F930F9B002BF1D000238DF83B3026
:102F2C000023129378E06B4A129B1344443393F9B9
:102F3C0000308DF82B309DF82B3023F0C003099313
:102F4C00644A129B1344443393F90030B3F1FF3FAE
:102F5C005FD001AB19460998FFF7C8FC0346002B5C
:102F6C0057D09DF82B309B098DF823300998FFF72B
:102F7C007BFD03461846FFF785FD0790079B002B4A
:102F8C0003D19DF82330032B43D19DF82330032B21
:102F9C0004D102AB19460998FFF7C0FC0998FFF75A
:102FAC0052FC03468DF81B3003AB19460998FFF70A
:102FBC009DFC0590059B002B03D09DF81B30022B2C
:102FCC0006D0059B002B24D19DF81B30032B20D160
:102FDC009DF82330032B13D19DF81B30022B01D10C
:102FEC00032300E002238DF813309DF813301946AB
:102FFC000998FFF7E5FB9DF83B3001338DF83B302A
:10300C00079B002B05D09DF82320079B11460998A0
:10301C009847129B01331293129B002B83D09DF87F
:10302C003B30002B4CD001238DF83A306B461A46BE
:10303C0001210020FFF726FC00230F9314E00F9BC7
:10304C009B0050336B4453F8502C0F9B9B00503318
:10305C006B4453F8443C9A4203D000238DF83A3029
:10306C0005E00F9B01330F930F9B002BE7D09DF8CE
:10307C003A30002B03D000238DF83B3020E00023A6
:10308C000F931AE00F9B9B0050336B4453F8502C5A
:10309C000F9B9B0050336B4443F8442C0F9B9B00BD
:1030AC0050336B4453F8482C0F9B9B0050336B44AC
:1030BC0043F84C2C0F9B01330F930F9B002BE1D04B
:1030CC009DF83B30002B7FF428AF00BF15B05DF8A6
:1030DC0004FB00BF4819002086B0039002910192B6
:1030EC0001238DF817309DF81730214A039B13608C
:1030FC001F4A029B53601E4A019B9360039B44F240
:10310C000102934213D0039B44F20202934221D159
:10311C00019B174AD360164BDB681B881A46144B6D
:10312C009A61134BDB685B68114AD36112E0019B17
:10313C000F4A13610E4B1B699B680D4A53610C4B74
:10314C001B691B680A4A9361094B1B695B68084A37
:10315C00D36100BF72B600BF00BF9DF81730DBB261
:10316C00002BFAD162B600BF00BF06B0704700BF9B
:10317C009419002000B583B002900091019244F2A2
:10318C00010071466A4600F003F803B000BD00BFB1
:10319C0000B587B003900291019272B600BF039BF9
:1031AC0044F20102934207D0039B44F20202934281
:1031BC0005D1019B059303E0019B049300E000BF44
:1031CC00074B1B6803F00103002B00D000BE019AD3
:1031DC0002990398FFF780FF00BF07B05DF804FB6E
:1031EC00F0ED00E084B00190019B9B680393019B80
:1031FC00DA68039BD31A184604B0704782B001906A
:10320C000B468DF80330019B1A68019BDB68019912
:10321C0089880B4013449DF803201A70019BDB68CE
:10322C005A1C019BDA6000BF02B0704784B0039057
:10323C000B460192ADF80A30039B1A68039B996800
:10324C00BDF80A300B44039989880B4013441A7853
:10325C00019B1A7000BF04B0704700B583B0019099
:10326C000091009A00210198FFF7E0FF019B9B68F9
:10327C005A1C019B9A6000BF03B05DF804FB84B03C
:10328C00039002911346ADF80630029B002B01D13E
:10329C000E231DE0BDF80630002B07D0BDF806301C
:1032AC005A1EBDF806301340002B01D009230FE045
:1032BC00039B029A1A60BDF80630013B9AB2039B3D
:1032CC009A80039B00229A60039B0022DA60002301
:1032DC00184604B0704700B583B001900B468DF8CA
:1032EC0003300198FFF77EFF0246019B9B889A42B0
:1032FC0007D89DF8033019460198FFF77FFF00238C
:10330C0000E00423184603B05DF804FB00B583B05D
:10331C00019000910198FFF765FF0346002B05D043
:10332C0000990198FFF799FF002300E00523184648
:10333C0003B05DF804FB000000B587B00390029168
:10334C0013468DF8073000230593039B1B781A4610
:10335C00114B9B5C002B09D0039B04339DF8072079
:10336C0002991846FEF736FD05900FE0039B1B787B
:10337C001A46094B9B5C002B08D1039B0C339DF820
:10338C00072002991846FDF703FF0590059B184688
:10339C0007B05DF804FB00BFEC19002000B585B048
:1033AC00019000238DF80F30019B1B781A46114BAE
:1033BC009B5C002B08D0019B04331846FEF7C8FD1C
:1033CC0003468DF80F300EE0019B1B781A46094B13
:1033DC009B5C002B07D1019B0C331846FDF760FF5B
:1033EC0003468DF80F309DF80F30184605B05DF888
:1033FC0004FB00BFEC19002000B587B003900291CC
:10340C0013468DF8073000230593039B1B781A464F
:10341C00114B9B5C002B09D0039B04339DF80720B8
:10342C0002991846FEF7ACFD05900FE0039B1B7844
:10343C001A46094B9B5C002B08D1039B0C339DF85F
:10344C00072002991846FDF783FF0590059B184647
:10345C0007B05DF804FB00BFEC19002084B00190AC
:10346C00019B9B680393019BDA68039BD31A184654
:10347C0004B0704700B587B001900091019B1B7898
:10348C00022B45D0022B6ADC002B52D0012B66D1CB
:10349C00019B1B7A002B05D1012233493348FFF7DE
:1034AC00ABFF5DE0019B5B681B7819463048FFF76A
:1034BC0012FF0590059B002B0AD001238DF80C30D0
:1034CC00059B04932B4B1B6803AA104698470DE0F1
:1034DC002748FFF7C3FF0346002B07D000238DF8C6
:1034EC000C30244B1B6803AA104698472048FFF762
:1034FC00B5FF03461E4A9288934205D801221A4909
:10350C001A48FFF779FF2BE01B4B01221A7027E0BA
:10351C0002238DF80C30019BDB68049301221249C5
:10352C001248FFF769FF134B1B6803AA1046984714
:10353C0016E012491248FFF7E9FE0346002B05D1AD
:10354C0001220E490948FFF7F7FE09E003238DF825
:10355C000C30084B1B6803AA1046984700E000BFCC
:10356C0000BF07B05DF804FBBC190020040000206C
:10357C00C0190020B4190020BD190020B819002072
:10358C00D019002030B591B00390029101928DF8C2
:10359C0003303C4A019B1360029B002B01D1072393
:1035AC006DE0029B1968029B5B689BB21A46364819
:1035BC00FFF765FE0F900F9B0E930E9B002B01D017
:1035CC000E9B5CE0029B9968029BDB689BB21A46DF
:1035DC002E48FFF754FE0F900F9B0D930D9B002B65
:1035EC0001D00D9B4BE02A4B04AC1D460FCD0FC4F4
:1035FC0095E80F0084E80F00039B5B690A93039B1B
:10360C001B7C002B14BF01230023DBB28DF824306C
:10361C009DF803308DF82C30039B5B7C002B01D084
:10362C000E2300E000238DF82530039BDB68069306
:10363C00039B9B680793039B1B680593039B5B6829
:10364C00049304AB134A1946134800F05FF90F902A
:10365C000F9B0C930C9B002B01D00C9B0FE00F4B82
:10366C0000221A70039B1B68B3F1FF3F06D00122A6
:10367C000B490948FFF7C0FE034600E0002318463B
:10368C0011B030BDB4190020C0190020D019002091
:10369C00349100008134000004000020BD1900208A
:1036AC00BC19002000B587B00190019B002B03D101
:1036BC001449CA2000F0C3F8134B1B788DF817304F
:1036CC0001991248FFF722FE04909DF81730002B49
:1036DC0012D00D4B00221A7001220D490D48FFF734
:1036EC008BFE0390039B0293029B002B04D0054A94
:1036FC00D6210298FFF73EFD049B184607B05DF8F3
:10370C0004FB00BF54910000BD190020C01900201B
:10371C00BC1900200400002000B585B003468DF8CC
:10372C0007309DF8073019461048FFF7D4FD039079
:10373C00039B002B15D10E48FFF730FE034683F098
:10374C000103DBB2002B0CD00A490848FFF7DEFD61
:10375C000346002B05D1012206490548FFF7ECFD75
:10376C000390039B184605B05DF804FBD0190020AC
:10377C0004000020B819002072B600BF034B1B6870
:10378C000133024A136000BF704700BFE0190020EC
:10379C00064B1B68013B054A1360044B1B68002B4E
:1037AC0001D162B600BF00BF704700BFE019002016
:1037BC0000B583B0019000F025F80346012B03D02F
:1037CC000449432000F03BF8FFF7D6FF00BF03B0DD
:1037DC005DF804FB9491000000B583B003468DF8AE
:1037EC00073000F00FF80346012B03D00449512099
:1037FC0000F025F8FFF7CCFF00BF03B05DF804FB29
:10380C009491000084B0EFF305830193019BC3F303
:10381C0008030393039B002B0DD1EFF31483009348
:10382C00009B0293029B03F00103002B0CBF0123AE
:10383C000023DBB200E00123184604B0704700B54A
:10384C0085B003460091ADF80630BDF80630ADF8F2
:10385C000830009B039302AB1A46002144F202008D
:10386C00FFF796FC00BF05B05DF804FB00B589B00E
:10387C0001900091009B0793019B1B788DF80C30F5
:10388C00019B5B680493019B9B68DBB28DF8143041
:10389C00019BDB680693074A079B52F823300649C5
:1038AC00079A51F8221003AA1046984700BF09B096
:1038BC005DF804FBE4190020E819002000B589B07C
:1038CC0001900091009B0793019B1B788DF80C30A5
:1038DC00019B5B680493019B9B68DBB28DF81430F1
:1038EC00019BDB680693074A079B52F82330064975
:1038FC00079A51F8221003AA1046984700BF09B046
:10390C005DF804FBE4190020E819002030B58FB0F5
:10391C00039002910192039B1B780C9326490C9BFC
:10392C00019A41F82320029B1A6924490C9B41F807
:10393C002320029B5B7F1946214A0C9B13440A46A9
:10394C001A70029B04AC1D460FCD0FC495E80F00F6
:10395C0084E80F000C9B089300230D93039B1B78AA
:10396C001A46174B9B5C002B0DD0039B181D019B1B
:10397C00002B01D0134A00E0002204AB1946FEF7DD
:10398C00C3F90D9014E0039B1B781A460C4B9B5CFF
:10399C00002B0DD1039B03F10C00019B002B01D0DC
:1039AC00094A00E0002204AB1946FDF73DFB0D90DF
:1039BC000D9B18460FB030BDE4190020E81900200B
:1039CC00EC19002079380000C938000082B0019051
:1039DC00019B002B07D0019BDB7803F0F003E02B5D
:1039EC0001D1012300E0002303F00103DBB21846F0
:1039FC0002B0704782B001900091019B054A1A6099
:103A0C00019B054A5A60019B009A9A6000BF02B064
:103A1C00704700BFFC9100004547000000B58FB017
:103A2C0003900291019204F03DFE924BDB7C03F07B
:103A3C000103002B0DD18F4BDB7C43F00103DAB279
:103A4C008C4BDA7404F040FE8B498C4803F07EF901
:103A5C0001E004F039FE039B5B680D9304F022FE39
:103A6C00039B1B68002B07D0039B9B68002B03D088
:103A7C000D9B824A934203D0C8218148FCF78CFEEF
:103A8C0004F022FE039B9B68029903989847034617
:103A9C008DF82B3004F006FE9DF82B30082B03D04C
:103AAC00D2217748FCF778FE764B1B7803F008039D
:103ABC00002B1FD0019BDB08724A13441B7C1A4657
:103ACC00019B03F0070322FA03F303F00103002B1D
:103ADC0010D0032002F06CFC039803F077F80D9BD8
:103AEC00184602F0E7FF039B9B68184602F0E2FFC2
:103AFC0002F000FD04F0E8FD06230C9300230B9369
:103B0C00039B9B680493039B9B685F4903989847AE
:103B1C000FE00B9B01330B93039B9A680B9B9B0051
:103B2C0038336B4443F8282C039B9B685649039805
:103B3C009847039B9B680D9A9A4202D00B9B042BCF
:103B4C00E7DD04F0AFFD039B9B680D9A9A4203D00E
:103B5C00DC214B48FCF720FE04F0B6FD049A039BD5
:103B6C009A600B9B9B0038336B4453F8283C4749B5
:103B7C00039898470346032B29D104F093FD414B3E
:103B8C001B7803F00203002B1FD0019BDB083D4A7E
:103B9C0013441B7C1A46019B03F0070322FA03F320
:103BAC0003F00103002B10D0012002F001FC03985C
:103BBC0003F00CF80B9B9B0038336B4453F8283CF8
:103BCC00184602F077FF02F095FC04F07DFD0B9B8C
:103BDC00013B0B930B9B002BC3DA049B0D930D9BAA
:103BEC002B490398984703468DF82B309DF82B30C2
:103BFC00082B29D104F056FD224B1B7803F0080347
:103C0C00002B1FD0019BDB081E4A13441B7C1A4659
:103C1C00019B03F0070322FA03F303F00103002BCB
:103C2C0010D0032002F0C4FB039802F0CFFF0D9BD1
:103C3C00184602F03FFF039B9B68184602F03AFFC0
:103C4C0002F058FC04F040FD0C9B013B0C939DF8DA
:103C5C002B30082B03D10C9B002B3FF74FAF04F0FC
:103C6C0021FD0C9B002B15DC4FF491710448FCF7E3
:103C7C0093FD00BFF01A0020F091000045470000B2
:103C8C00D8910000D01A0020E0910000E4910000CF
:103C9C00EC9100001A4B1B7803F01003002B20D082
:103CAC00019BDB08164A13441B7C1A46019B03F04C
:103CBC00070322FA03F303F00103002B11D00420B5
:103CCC0002F076FBFCF7FEFE0346184602F0F2FE0D
:103CDC00039802F07BFF0D9B184602F0EBFE02F0FE
:103CEC0009FC04F0F1FC039B0D9A5A60039B5B6882
:103CFC00DA43039B9A6000BF0FB05DF804FB00BF72
:103D0C00D01A002000B591B0039002910192039B50
:103D1C005B680B930B9B0F9304F0C4FC0B9B002B69
:103D2C0006D0039B5A68039B9B68DB439A4204D0E2
:103D3C004FF496719048FCF72FFD0298FFF746FE62
:103D4C000346002B04D14FF497718B48FCF724FDEC
:103D5C008A4B5B7803F00103002B25D0019BDB0819
:103D6C00864A13441B7C1A46019B03F0070322FA74
:103D7C0003F303F00103002B16D0082002F018FB0C
:103D8C00FCF7A0FE0346184602F094FE029B1B882B
:103D9C00184602F0A5FD039802F018FF0B9B18467D
:103DAC0002F088FE02F0A6FB04F08EFC039B0B9A3B
:103DBC009A6006230D93039B9B680B930B9B0299B4
:103DCC000398984703468DF83B309DF83B30022B07
:103DDC0030D104F067FC694B5B7803F00203002BD5
:103DEC001FD0019BDB08654A13441B7C1A46019BC0
:103DFC0003F0070322FA03F303F00103002B10D0A6
:103E0C00092002F0D5FA029B1B88184602F068FDC7
:103E1C00039802F0DBFE0B9B184602F04BFE02F0FF
:103E2C0069FB04F051FC0B9B5549039898470346DA
:103E3C008DF83B300D9B013B0D939DF83B30002BD7
:103E4C0002D10D9B002BB6DC04F02CFC0D9B002B3F
:103E5C0004DC4FF49B714848FCF79EFC04F034FCE6
:103E6C009DF83B30072B40F2AA81039B9B6805937E
:103E7C000F9B06930B9B079306230D9335E00F9B2B
:103E8C004049039898470346032B28D104F00AFCB9
:103E9C003A4B1B7803F00403002B1AD0019BDB0870
:103EAC00364A13441B7C1A46019B03F0070322FA83
:103EBC0003F303F00103002B0BD0022002F078FA7D
:103ECC00039802F083FE0F9B184602F0F3FD02F0FC
:103EDC0011FB04F0F9FB0F9B2949039898470D9BA4
:103EEC00013B0D93039B9B680F930F9A0B9B9A427C
:103EFC0002D00D9B002BC2DC04F0D4FB0D9B002BDD
:103F0C0004DC4FF4A0711C48FCF746FC04F0DCFB0D
:103F1C0005AB019A1946039800F02EFA0C909DF807
:103F2C003B300B2B69D104F0BDFB144B9B795BB27E
:103F3C00002B1EDA019BDB08104A13441B7C1A462B
:103F4C00019B03F0070322FA03F303F00103002B98
:103F5C000FD0372002F02CFA039802F037FE0F9B9B
:103F6C00184602F0A7FD059B184602F0A3FD02F0CF
:103F7C00C1FA04F0A9FB40E0D8910000D01A00204F
:103F8C00E0910000E89100000C9B9B0040336B44D7
:103F9C0053F82C3CA449039898470346032B29D18A
:103FAC0004F080FBA14B1B7803F00203002B1FD005
:103FBC00019BDB089D4A13441B7C1A46019B03F0B2
:103FCC00070322FA03F303F00103002B10D00120A6
:103FDC0002F0EEF9039802F0F9FD0C9B9B004033C4
:103FEC006B4453F82C3C184602F064FD02F082FA44
:103FFC0004F06AFB0C9B013B0C930C9B002BC3DA6B
:10400C00059B0F93039B0F9A9A609BE004F04AFB6D
:10401C00864B1B7803F00803002B1FD0019BDB0899
:10402C00824A13441B7C1A46019B03F0070322FAB5
:10403C0003F303F00103002B10D0032002F0B8F9B6
:10404C00039802F0C3FD0F9B184602F033FD039B4F
:10405C009B68184602F02EFD02F04CFA04F034FB7B
:10406C0000230C93039B9B680593039B9B687049EF
:10407C00039898470FE00C9B01330C93039B9A68B1
:10408C000C9B9B0040336B4443F82C2C039B9B688C
:10409C00674903989847039B9B680F9A9A4202D0F2
:1040AC000C9B042BE7DD04F0FDFA039B9B680F9A35
:1040BC009A4204D04FF4A5715E48FCF76DFB04F0F6
:1040CC0003FB059A039B9A600C9B9B0040336B444B
:1040DC0053F82C3C5449039898470346032B29D199
:1040EC0004F0E0FA514B1B7803F00203002B1FD0B5
:1040FC00019BDB084D4A13441B7C1A46019B03F0C1
:10410C00070322FA03F303F00103002B10D0012064
:10411C0002F04EF9039802F059FD0C9B9B004033C2
:10412C006B4453F82C3C184602F0C4FC02F0E2F944
:10413C0004F0CAFA0C9B013B0C930C9B002BC3DACA
:10414C00059B0F930F9B3C49039898470346082BFC
:10415C003FF45CAF04F0A6FA344B1B7803F0400339
:10416C00002B29D0019BDB08304A13441B7C1A46D8
:10417C00019B03F0070322FA03F303F00103002B66
:10418C001AD0062002F014F9FCF79CFC03461846E2
:10419C0002F090FC029B1B88184602F0A1FB0398CE
:1041AC0002F014FD0B9B184602F084FC0F9B184682
:1041BC0002F080FC02F09EF904F086FA6EE09DF8A5
:1041CC003B30032B3AD104F06DFA184B1B7803F0FB
:1041DC002003002B25D0019BDB08144A13441B7CC5
:1041EC001A46019B03F0070322FA03F303F00103C1
:1041FC00002B16D0052002F0DBF8FCF763FC03461D
:10420C00184602F057FC029B1B88184602F068FB0C
:10421C00039802F0DBFC0B9B184602F04BFC02F0FF
:10422C0069F904F051FA39E0E4910000D01A002049
:10423C00E0910000D8910000EC91000004F032FAFB
:10424C001C4B1B785BB2002B26DA019BDB08194A4E
:10425C0013441B7C1A46019B03F0070322FA03F359
:10426C0003F00103002B17D0072002F0A1F8FCF794
:10427C0029FC0346184602F01DFC029B1B881846BD
:10428C0002F02EFB039802F0A1FC039B5B6818461E
:10429C0002F010FC02F02EF904F016FA039B0F9AB0
:1042AC005A60039B5B68DA43039B9A6000BF11B0B2
:1042BC005DF804FBD01A002082B00190019B5B6872
:1042CC00184602B07047000000B587B0019000910D
:1042DC0004F0E8F9019B5A68019B9B68DB439A4206
:1042EC0004D040F25A212248FCF756FA04F0ECF9BB
:1042FC0000238DF81730019B5B680493072303930D
:10430C0000238DF80B3014E0049A009B9A4203D1E1
:10431C0001238DF8173013E0049B16490198984738
:10432C0003468DF80B30019B9B680493039B013B68
:10433C0003939DF80B30042B02D0039B002BE3DC82
:10434C0004F0B0F9039B002B04DC40F2B2210848C6
:10435C00FCF722FA04F0B8F9019B5B68DA43019B85
:10436C009A609DF81730184607B05DF804FB00BF43
:10437C00D8910000E091000000B58BB00390029141
:10438C0001924FF0FF330993029B1B680893029B29
:10439C009B680493049A089B9A422ED1049B9C49D7
:1043AC00039898470346032B24D104F07BF9994BCF
:1043BC001B7803F00403002B1AD0019BDB08954AF1
:1043CC0013441B7C1A46019B03F0070322FA03F3E8
:1043DC0003F00103002B0BD0022001F0E9FF03983E
:1043EC0002F0F4FB049B184602F064FB02F082F826
:1043FC0004F06AF90023099384E1089B8649039829
:10440C009847039B9B680893049A089B9A4202D195
:10441C000023099376E1049B7F4903989847039BFB
:10442C009B68089A9A422ED1049B79490398984725
:10443C000346032B24D104F035F9764B1B7803F09B
:10444C000403002B1AD0019BDB08724A13441B7C1B
:10445C001A46019B03F0070322FA03F303F001034E
:10446C00002B0BD0022001F0A3FF039802F0AEFB4F
:10447C00049B184602F01EFB02F03CF804F024F9F1
:10448C00002309933EE1039B9A68029B1B689A42A6
:10449C002DD1049B5E49039898470346032B40F0AB
:1044AC00318104F0FFF85B4B1B7803F00403002B05
:1044BC001AD0019BDB08574A13441B7C1A46019BFC
:1044CC0003F0070322FA03F303F00103002B0BD0D4
:1044DC00022001F06DFF039802F078FB049B184654
:1044EC0002F0E8FA02F006F804F0EEF80AE1002314
:1044FC00079301230993029B0433089A1A60039BC8
:10450C009B680893029B04331B68434903989847A4
:10451C0003468DF81B301FE0099B01330993099B5F
:10452C009B00029A1344039A92681A60039B9B683F
:10453C00049A9A4208D101230793099B013B0993E2
:10454C0003238DF81B3007E0039B9B6832490398CB
:10455C00984703468DF81B309DF81B30002B02D179
:10456C00099B042BD8DD04F09DF89DF81B30002B23
:10457C0004D14FF4FF712948FCF70EF904F0A4F8AC
:10458C00079B002B40F0BE80049B21490398984761
:10459C000346032B24D104F085F81E4B1B7803F043
:1045AC000403002B1AD0019BDB081A4A13441B7C12
:1045BC001A46019B03F0070322FA03F303F00103ED
:1045CC00002B0BD0022001F0F3FE039802F0FEFA50
:1045DC00049B184602F06EFA01F08CFF04F074F89C
:1045EC00099B079304238DF81B30079B9B00029AB1
:1045FC0013441B68089A9A4212D103238DF81B307E
:10460C00079B013B09934FF0FF3307930BE000BF6F
:10461C00E8910000D01A0020E0910000D891000031
:10462C00079B013B0793079B002BDEDA9DF81B30A1
:10463C00032B67D004238DF81B3006230593089BAE
:10464C003949039898470346032B28D104F02AF8DC
:10465C00364B1B7803F00403002B1AD0019BDB08AC
:10466C00324A13441B7C1A46019B03F0070322FABF
:10467C0003F303F00103002B0BD0022001F098FE92
:10468C00039802F0A3FA089B184602F013FA01F003
:10469C0031FF04F019F8089B254903989847039BB0
:1046AC009B680893099B0793079B9B00029A1344F2
:1046BC001B68089A9A4209D1079B013B09934FF05A
:1046CC00FF33079303238DF81B3002E0079B013B5C
:1046DC000793079B002BE7DA059B013B05939DF89D
:1046EC001B30032B02D0059B002BA8DC03F0DAFF58
:1046FC00059B002B04DC40F212210E48FCF74CF811
:10470C0003F0E2FF03F0CEFF099B052B04DD40F222
:10471C004E210848FCF740F803F0D6FF099B1846D9
:10472C000BB05DF804FB00BFE8910000D01A00202C
:10473C00E0910000D891000082B001900091042318
:10474C00184602B0704784B001900091019B03930E
:10475C00009B029308E0039B00221A70039B013319
:10476C000393029B013B0293029B002BF3D100BFEE
:10477C0000BF04B0704782B00190019B002B07D0A2
:10478C00019BDB7803F0F003E02B01D1012300E067
:10479C00002303F00103DBB2184602B0704782B06D
:1047AC000190019BDB7803F00F03184602B07047B1
:1047BC0082B001900091019B1A68009B013B012182
:1047CC0001FA03F31A43019B1A6000BF02B0704751
:1047DC0082B001900091019B1B68DA43009B1A6028
:1047EC0000BF02B0704782B00190019B9B78DBB296
:1047FC000133DAB2019B9A7000BF02B0704700001F
:10480C0000B587B0039002910192009303F04AFF28
:10481C00039B93F82430DB438DF816300298FFF796
:10482C00AAFF0346002B05D0039B1B7B9DF816208B
:10483C009A4203D066218748FBF7AEFF039BDB7FD0
:10484C008DF81530019B4FF6FF7293420ED19DF8F7
:10485C001530002B03D001238DF8173013E0002303
:10486C008DF81730BE217B48FBF796FF019BDBB21E
:10487C009DF815209A4203D901238DF8173002E0D8
:10488C0000238DF817300298FFF789FF0346002BA1
:10489C0002D00298FFF7A7FF9DF81730002B00F00D
:1048AC0089809DF81530013B8DF81530039B9DF8E0
:1048BC001520DA77039B93F820309DF815209A4247
:1048CC0004D2039B9DF8152083F82020624B5B7863
:1048DC0003F04003002B3FD0039B1B7BDB08DBB2B8
:1048EC001A465D4B13441B7C1A46039B1B7B03F03F
:1048FC00070322FA03F303F00103002B2CD00E2044
:10490C0001F056FDFCF7DEF80346184602F0D2F82B
:10491C00009802F05BF9029B1B88184601F0E0FF3F
:10492C00039802F053F90298FFF739FF0346DAB205
:10493C00029B9B78DBB21946104601F0F5FE9DF800
:10494C001530184601F070FE039B93F82030184682
:10495C0001F06AFE01F0CEFD039B5B69002B0DD1CB
:10496C00039B029A5A61039B1B7B19463B48FFF73A
:10497C001FFF3B493948FFF72BFF18E0039B9A694F
:10498C00039B5B7FDBB29B001344029A1A60039B70
:10499C005B7FDBB2002B03D1039B1A7F039B5A77FF
:1049AC00039B5B7FDBB2013BDAB2039B5A7703F0CC
:1049BC008BFE49E0284B5B7903F02003002B3ED0A3
:1049CC00039B1B7BDB08DBB21A46234B13441B7C7B
:1049DC001A46039B1B7B03F0070322FA03F303F035
:1049EC000103002B2BD02D2001F0E2FCFCF76AF820
:1049FC000346184602F05EF8009802F0E7F8029BB6
:104A0C001B88184601F06CFF039802F0DFF802983F
:104A1C00FFF7C5FE0346DAB2029B9B78DBB2194660
:104A2C00104601F081FE9DF81530184601F0FCFD92
:104A3C00019BDBB2184601F0F7FD01F05BFD03F0C2
:104A4C0043FE029800F0E8F99DF81730184607B0BD
:104A5C005DF804FB0C920000D01A00204C1B0020C7
:104A6C00541B002000B585B0019003F01BFE019B88
:104A7C005B69002B04D14FF49B715E48FBF78CFEF5
:104A8C00019B5B690393019BDB7FDBB201338DF8E8
:104A9C000B30019B9DF80B20DA77019B1B7F9DF857
:104AAC000B209A4257D8019B9A69019B9B7FDBB2E2
:104ABC009B0013441A68019B5A61019B9B7FDBB2DC
:104ACC00002B03D1019B1A7F019B9A77019B9B7F43
:104ADC00DBB2013BDAB2019B9A77474B9B7803F030
:104AEC000103002B7ED0019B1B7BDB08DBB21A463B
:104AFC00414B13441B7C1A46019B1B7B03F00703A1
:104B0C0022FA03F303F00103002B6BD0102001F009
:104B1C004FFCFBF7D7FF0346184601F0CBFF039B76
:104B2C001B88184601F0DCFE019802F04FF8039840
:104B3C00FFF735FE0346DAB2039B9B78DBB21946CE
:104B4C00104601F0F1FD9DF80B30184601F06CFD9C
:104B5C0001F0D0FC46E0019B00225A619DF80B202D
:104B6C00019B1B7F01339A4204D04FF49B71214867
:104B7C00FBF712FE204B9B7803F00203002B31D085
:104B8C00019B1B7BDB08DBB21A461B4B13441B7CC3
:104B9C001A46019B1B7B03F0070322FA03F303F075
:104BAC000103002B1ED0112001F002FCFBF78AFF41
:104BBC000346184601F07EFF039B1B88184601F044
:104BCC008FFE019802F002F80398FFF7E8FD034608
:104BDC00DAB2039B9B78DBB21946104601F0A4FDB8
:104BEC0001F088FC03F070FD039B184605B05DF8DE
:104BFC0004FB00BF0C920000D01A002082B0019080
:104C0C00019B002B07D0019BDB7803F0F003E02B1A
:104C1C0001D1012300E0002303F00103DBB21846AD
:104C2C0002B0704782B00190019BDB7803F00F0358
:104C3C00184602B0704782B00190019B9B78DBB2A2
:104C4C00013BDAB2019B9A7000BF02B070470000C2
:104C5C0000B583B003F026FD094BDB6B5A1E0849E7
:104C6C0013469B0013449B000B440C331B8801938D
:104C7C0003F02AFD019B184603B05DF804FB00BF4E
:104C8C00741A002000B587B003900291019203F0D2
:104C9C0009FD002305930FE05C49059A13469B0020
:104CAC0013449B000B440C331B881A46039B934202
:104CBC0008D9059B01330593544BDB6B059A9A423B
:104CCC00EAD300E000BF514BDB6B059A9A4204D348
:104CDC004FF496714E48FBF75FFD059B013305932E
:104CEC0003F0F2FC059B5A1E13469B0013449B00D9
:104CFC00464A9818029B4FF6FF72934201D0029BD2
:104D0C0000E00023059A4032194600F031F9049076
:104D1C00049B002B3DD0019B9AB2049B1A80049BF0
:104D2C0000229A70059BDBB263F01F03DAB2049B7E
:104D3C00DA7003F0B7FC374BDB7803F01003002B71
:104D4C0024D0059B4033DB08324A13441B7C1A46A3
:104D5C00059B03F0070322FA03F303F00103002B76
:104D6C0014D01C2001F024FBFBF7ACFE03461846C4
:104D7C0001F0A0FE039B9BB2184601F0B1FD019B14
:104D8C009BB2184601F0ACFD01F0B4FB03F09CFCA7
:104D9C0037E003F087FC029B4FF6FF72934204D17D
:104DAC004FF4A0711A48FBF7F7FC1A4B9B785BB2D7
:104DBC00002B24DA059B4033DB08164A13441B7C7A
:104DCC001A46059B03F0070322FA03F303F00103D1
:104DDC00002B14D0172001F0EBFAFBF773FE0346FF
:104DEC00184601F067FE039B9BB2184601F078FD54
:104DFC00019B9BB2184601F073FD01F07BFB03F0A5
:104E0C0063FC049B184607B05DF804FB741A002081
:104E1C0014920000D01A002000B585B0019003F068
:104E2C0041FC0198FFF7EAFE0346002B04D14FF436
:104E3C00C9714C48FBF7B0FC0198FFF7F3FE0390E7
:104E4C00039B002B00F08780019B9B78DBB2012B2E
:104E5C0034D9454BDB7803F02003002B28D0039B7F
:104E6C004033DB08404A13441B7C1A46039B03F077
:104E7C00070322FA03F303F00103002B18D01D20C3
:104E8C0001F096FAFBF71EFE0346184601F012FEDF
:104E9C00019B1B88184601F023FD039BDAB2019B92
:104EAC009B78DBB21946104601F03EFC01F022FB68
:104EBC000198FFF7C0FE03F007FC4EE02A4BDB78AD
:104ECC0003F04003002B28D0039B4033DB08264A19
:104EDC0013441B7C1A46039B03F0070322FA03F3CB
:104EEC0003F00103002B18D01E2001F061FAFBF730
:104EFC00E9FD0346184601F0DDFD019B1B881846B1
:104F0C0001F0EEFC039BDAB2019B9B78DBB21946F5
:104F1C00104601F009FC01F0EDFA144BDB6B039A1F
:104F2C009A4202D8039B032B04D94FF4CD710D4840
:104F3C00FBF732FC03F0C8FB039B5A1E13469B0085
:104F4C0013449B00094A9818039B40331A46019955
:104F5C0000F0D4F801E003F0B7FB00BF05B05DF83A
:104F6C0004FB00BF14920000D01A0020741A002019
:104F7C0000B587B003900291019203F093FB039B61
:104F8C001B8A9AB2029B9BB29A427DD9039B9B6867
:104F9C000593059B002B04D14FF496715548FBF7F4
:104FAC00FBFB059B1B680493059B5B68DA43049B26
:104FBC009A4204D04FF497714E48FBF7EDFB039BDC
:104FCC001B8A9BB2013B9AB2039B1A82039B1B8ADE
:104FDC009BB2002B0BD1049B002B04D04FF4A0717F
:104FEC004448FBF7D9FB039B00225A821AE0039B2F
:104FFC001B68049A9A4204D3039B5B68049A9A42F6
:10500C0004D94FF4A5713B48FBF7C6FB039B5A8AA6
:10501C00039B1B8A9BB29A4204D9039B1B8A9AB2AC
:10502C00039B5A82039B049A9A60334BDB7803F000
:10503C000103002B57D0019BDB082F4A13441B7C28
:10504C001A46019B03F0070322FA03F303F0010352
:10505C00002B48D0182001F0ABF9FBF733FD0346C9
:10506C00184601F027FD039801F0B0FD039B1B8A45
:10507C009BB2184601F034FC039B5B8A184601F086
:10508C002FFC01F037FA2EE0002305931A4B5B79C5
:10509C005BB2002B27DA019BDB08174A13441B7CFD
:1050AC001A46019B03F0070322FA03F303F00103F2
:1050BC00002B18D02F2001F07BF9FBF703FD0346E2
:1050CC00184601F0F7FC039801F080FD039B1B8A46
:1050DC009BB2184601F004FC029B9BB2184601F0EF
:1050EC00FFFB01F007FA03F0EFFA059B184607B037
:1050FC005DF804FB1C920000D01A002000B587B0AC
:10510C00039002910192029B059303F0CBFA039B4F
:10511C001B8A9AB2039BDB899A4209D2039B1B68B8
:10512C00059A9A4204D3039B5B68059A9A4203D969
:10513C00C8212248FBF730FB039B9A68059B1A6039
:10514C00059B1B68DA43059B5A60039B029A9A6085
:10515C00039B1B8A9BB201339AB2039B1A82184B96
:10516C00DB7803F00203002B22D0019BDB08144AEE
:10517C0013441B7C1A46019B03F0070322FA03F32A
:10518C0003F00103002B13D0192001F011F9FBF7E8
:10519C0099FC0346184601F08DFC039801F016FDAE
:1051AC00039B1B8A9BB2184601F09AFB01F0A2F9F3
:1051BC0003F08AFA00BF07B05DF804FB1C920000F4
:1051CC00D01A002082B00190019BDB7803F00F0312
:1051DC00184602B0704782B00190019B1B68002BEF
:1051EC0014BF01230023DBB2184602B0704782B013
:1051FC0001900091019B1A68009B013B012101FA6F
:10520C0003F3DB431A40019B1A6000BF02B07047E6
:10521C0082B00190019B1B68B3FA83F3C3F12003A6
:10522C00184602B0704782B001900091019B1A6839
:10523C00009B1B68DB439A420CBF01230023DBB2AB
:10524C00184602B0704782B00190019B9B78DBB28C
:10525C000133DAB2019B9A7000BF02B070470000B4
:10526C0000B58BB0039002910192039B1B88ADF8A3
:10527C001A3003F017FA674B1B689BB2BDF81A2063
:10528C009A4203D3C8216448FBF786FA634B1A6829
:10529C00BDF81A30DB0013441846604B1A68BDF891
:1052AC001A30DB00134404331946FFF7BCFF0346E6
:1052BC00002B03D1CA215848FBF76EFA584BDB7808
:1052CC0003F00403002B2DD0019BDB08544A13443C
:1052DC001B7C1A46019B03F0070322FA03F303F02D
:1052EC000103002B1ED01A2001F062F8FBF7EAFB39
:1052FC000346184601F0DEFB029801F067FCBDF88E
:10530C001A30184601F0ECFA0398FFF75BFF0346DE
:10531C00DAB2039B9B78DBB21946104601F004FA13
:10532C0001F0E8F80398FFF74DFF0346002B02D07D
:10533C000398FFF788FF394B1A68BDF81A30DB0069
:10534C0013441B68059303F0BFF905AB1846FFF730
:10535C0042FF0346002B56D005AB1846FFF758FF0B
:10536C00099003F09FF92F4A099B52F823300893B8
:10537C00089B002B03D1D2212748FBF70DFA03F031
:10538C00A3F921230793079B013B0793029B4FF63D
:10539C00FF7203990898FFF733FA05AB0999184681
:1053AC00FFF725FF05AB1846FFF715FF0346002B4B
:1053BC0015D005AB1846FFF72BFF099003F072F9D7
:1053CC00184A099B52F823300893089B002B03D1F1
:1053DC00DC211148FBF7E0F903F076F901E000233A
:1053EC000993099B002B02D0079B002BCBD103F018
:1053FC0059F9099B002B04D04FF491710648FBF727
:10540C00CBF903F061F90398FFF706FD00BF0BB071
:10541C005DF804FBB81A002024920000B41A002096
:10542C00D01A0020F019002000B583B00190009133
:10543C0028210198FFF787F900990198FEF7DAFA0D
:10544C00019B034A1A6000BF03B05DF804FB00BF68
:10545C003492000000B585B0019003F023F9019B54
:10546C005B7B002B03D1019B1A7B019B5A73019B25
:10547C001B7B002B11D0019B1B7B202B0DD8019B80
:10548C001B7B1A46394B53F82230002B05D1019B5C
:10549C001A7B019B5B7B9A4203D964213448FBF74E
:1054AC007BF9019B5B7B8DF80F30019B5B7B8DF84F
:1054BC000E30019B1B7B013B029310E02B4A029B9D
:1054CC0052F82330002B07D0284A029B52F8233085
:1054DC005B7B8DF80F3005E0029B013B0293029B36
:1054EC00002BEBD1019B1B7B0133029310E01F4A75
:1054FC00029B52F82330002B07D01C4A029B52F817
:10550C0023305B7B8DF80E3005E0029B0133029358
:10551C00029B202BEBD9019B5B7B9DF80F209A42C1
:10552C0005D8019B5B7B9DF80E209A4203D2BE21CD
:10553C000F48FBF731F9019B1B7BDB43DAB2019B74
:10554C0083F82420019B5B7BDB43DAB2019B83F85D
:10555C002520019B1B7B1946044A019B42F82130F4
:10556C0003F0B2F800BF05B05DF804FBF0190020A1
:10557C002C92000084B0039002910192039B0022B4
:10558C001A60039B029A5A60019BDAB2039B1A724F
:10559C00019B002B05D0039B00225A72039B002217
:1055AC009A72019BDBB20133DAB2039BDA72039B72
:1055BC00DB7ADAB2039B1A7300BF04B0704782B077
:1055CC000190019B002B07D0019BDB7803F0F003CB
:1055DC00E02B01D1012300E0002303F00103DBB237
:1055EC00184602B07047000000B585B003900291D8
:1055FC000192009303F056F8019B002B02D0009B04
:10560C00002B04D04FF496710F48FBF7C5F803F04C
:10561C005BF8019B9AB2039B1A80009BDAB2039B46
:10562C009A70039BE022DA70039B00225A60039B62
:10563C00029A9A60039B0022DA60039B00221A6193
:10564C0000BF05B05DF804FB4492000000B589B0C2
:10565C00039002910192039B9B78DBB203F00F0342
:10566C000793039BDB680693039B9B681B7B05934B
:10567C0003F018F8039B9B68002B0CD0069B002BA7
:10568C0009D1029B002B06D0079B002B03D1039B57
:10569C001B88032B04D84FF4C8713248FBF77CF8F5
:1056AC00039B029ADA60039B019A1A61039B9B7815
:1056BC00DBB25BB2002B1CDB039B9B78DBB263F091
:1056CC007F03DAB2039B9A702749079A13469B0013
:1056DC0013449B000B4408331A68039B5A602249FD
:1056EC00079A13469B0013449B000B440833039A00
:1056FC001A601E4B1B7903F00103002B2CD0059B69
:10570C00DB081A4A13441B7C1A46059B03F007035B
:10571C0022FA03F303F00103002B1DD0202000F02C
:10572C0047FEFBF7CFF90346184601F0C3F903987F
:10573C0001F04CFA039B9B68184601F047FA02985B
:10574C0001F0B8F9019801F0B5F9079BDBB21846E6
:10575C0000F06AFF00F0CEFE02F0B6FF00BF09B009
:10576C005DF804FB44920000BC1A0020D01A002003
:10577C0000B585B00190019B9B681B7B029302F0E6
:10578C0091FF019BDB68002B49D001238DF80F3072
:10579C00019B9B78DBB243F04003DAB2019B9A7019
:1057AC00414B1B7903F00803002B34D0029BDB0820
:1057BC003D4A13441B7C1A46029B03F0070322FA52
:1057CC0003F303F00103002B25D0232000F0F0FDA0
:1057DC00FBF778F90346184601F06CF9019801F0D3
:1057EC00F5F9019B9B68184601F0F0F9019BDB6809
:1057FC00184601F05FF9019B1B69184601F05AF934
:10580C00019B9B78DBB203F00F03DBB2184600F070
:10581C000BFF00F06FFE019B0022DA603BE00023DF
:10582C008DF80F30019B9B78DBB223F04003DAB28A
:10583C00019B9A701C4B1B7903F00403002B2AD09C
:10584C00029BDB08184A13441B7C1A46029B03F08C
:10585C00070322FA03F303F00103002B1BD02220D1
:10586C0000F0A6FDFBF72EF90346184601F022F9CD
:10587C00019801F0ABF9019B9B68184601F0A6F961
:10588C00019B9B78DBB203F00F03DBB2184600F0F0
:10589C00CBFE00F02FFE02F017FF9DF80F301846DC
:1058AC0005B05DF804FB00BFD01A002000B587B02E
:1058BC000190009102F0F6FE019B002B03D06421B5
:1058CC009248FAF769FF019A13469B0013449B0018
:1058DC008F4A134405938F4BDB785BB2002B19DA9C
:1058EC008C4B1B7C03F00103002B13D01F2000F00A
:1058FC005FFD059BDB685A1C059BDA60059BDB682A
:10590C00184601F0D7F8019BDBB2184600F08CFE6C
:10591C0000F0F0FD40230493E5E0059B5B680393E6
:10592C00039B002B2AD17A49019A13469B001344FE
:10593C009B000B4408331B68002B00F0D980059B9F
:10594C00002B03D16E217148FAF726FF7049019A9A
:10595C0013469B0013449B000B4408331A68059BA9
:10596C005A606B49019A13469B0013449B000B44ED
:10597C00083300221A60059B5B6803930398FFF7BA
:10598C001EFE0346002B03D170216048FAF704FF7A
:10599C00039BDB68002B10D1039B5A68059B5A6054
:1059AC00039B9B78DBB203F07F03DAB2039B9A7004
:1059BC0002F08AFEBFF36F8F90E0039BDB685A1EE8
:1059CC00039BDA60039BDB68002B40F08180039B18
:1059DC009B680293039B1B69002B06D0039B1A69DF
:1059EC00039BDA60039B059334E0039B5A68059B89
:1059FC005A60039B9B78DBB203F07F03DAB2039B04
:105A0C009A70444B1B7903F00203002B22D0029BAB
:105A1C001B7BDB08DBB21A463E4B13441B7C1A463D
:105A2C00029B1B7B03F0070322FA03F303F0010331
:105A3C00002B0FD0212000F0BBFC039801F0C6F81E
:105A4C00029801F0C3F8019BDBB2184600F0ECFDA4
:105A5C0000F050FD2F4B1B7903F02003002B2DD0B1
:105A6C00029B1B7BDB08DBB21A462A4B13441B7CC4
:105A7C001A46029B1B7B03F0070322FA03F303F085
:105A8C000103002B1AD0252000F092FCFBF71AF82A
:105A9C000346184601F00EF8039801F097F8039BA3
:105AAC001B88184600F01CFF029801F08FF8019B30
:105ABC00DBB2184600F0B8FD00F01CFD02F004FE4D
:105ACC000399009B4FF6FF720298FEF799FE05E0D2
