:100000000000012071030000590300005B030000A1
:100010005D0300005F0300006103000000000000BA
:10002000000000000000000000000000630300006A
:100030006503000000000000670300005506000093
:100040006B0300006B030000CD2E00006B0300006B
:100050006B0300006B0300006B0300006B030000E8
:100060006B0300006B0300006B0300006B030000D8
:100070006B0300006B0300006B0300006B030000C8
:100080006B0300006B0300006B0300006B030000B8
:100090006B0300006B0300006B0300006B030000A8
:1000A0006B0300006B0300006B0300006B03000098
:1000B0006B0300006B030000000000000000000064
:1000C0006B0300006B0300006B0300006B03000078
:1000D0006B0300006B0300006B03000000000000D6
:1000E0000000000000000000000000000000000010
:1000F0000000000000000000000000000000000000
:1001000000000000000000000000000000000000EF
:1001100000000000000000000000000000000000DF
:1001200000000000000000000000000000000000CF
:1001300000000000000000000000000000000000BF
:1001400000000000000000000000000000000000AF
:10015000000000000000000000000000000000009F
:10016000000000000000000000000000000000008F
:10017000000000000000000000000000000000007F
:10018000000000000000000000000000000000006F
:10019000000000000000000000000000000000005F
:1001A000000000000000000000000000000000004F
:1001B000000000000000000000000000000000003F
:1001C000000000000000000000000000000000002F
:1001D000000000000000000000000000000000001F
:1001E000000000000000000000000000000000000F
:1001F00000000000000000000000000000000000FF
:10020000344935480A1A02D0072291438D463349B2
:1002100033480A1A06D00722914381F30988022243
:1002200082F314882F483049304A00F041F83048B2
:100230003049314A00F03CF830483149314A00F049
:1002400037F831483149324A00F032F83148324902
:10025000324A00F02DF832483249334A00F028F88B
:1002600032483349334A00F023F8334833490022F7
:1002700000F029F832483349002200F024F83248CF
:100280003249091A09F0DEF8314A90471F482049DF
:10029000884205D00268043003B4904703BCF7E7F6
:1002A00000208646EC46002000212A4A9047FEE7BF
:1002B000884207D0521A05D0037801300B70013103
:1002C000013AF9D17047884202D002700130FAE752
:1002D000704700000000012000E000200000012025
:1002E00000000120E8990000000000201C00002010
:1002F000CC030000CC03000058940000E8990000F3
:1003000000000020000000205894000058940000D5
:10031000589400005894000058940000589400002D
:100320005894000058940000E8990000049A0000D6
:100330001C0000201C0000201C000020A01D00202C
:10034000A01D0020A01D0020A01D0020A03D002019
:100350009903000065160000FEE7FEE7FEE7FEE7F2
:10036000FEE7FEE7FEE7FEE7FEE7FEE700F002B885
:10037000FFF7FCBF0F484FF00701884385460E4842
:1003800080470E48016841F470010160BFF34F8F50
:10039000BFF36F8FFFF734BF09480A490A4A884202
:1003A00007D0521A05D0037801300B700131013AA1
:1003B000F9D1704700000120798E000088ED00E03F
:0C03C00058940000000000200000002005
:1003CC0084B003468DF80730144BDB8C9BB20133A1
:1003DC00ADF80E30114B9B8CBDF80E209A4202D119
:1003EC000023ADF80E300D4B1B8D9BB2BDF80E20CB
:1003FC009A420ED0094B1B6A084AD28C92B2134413
:10040C009DF807201A70054ABDF80E30D3840123DD
:10041C0000E00023184604B0704700BF481D0020C0
:10042C0008B5124A0021042006F0B2FE104A002141
:10043C00052006F0ADFE0F4A0021062006F0A8FEAE
:10044C000D4A0021072006F0A3FE0C4A00210820CB
:10045C0006F09EFE0A4A00210A2006F099FE094A7F
:10046C0000210B2006F094FE00BF08BD589400003C
:10047C00609400006C940000789400008494000058
:10048C00909400009C94000084B00190019B03F0B8
:10049C00070303930B4BDB680293029A4FF6FF039F
:1004AC0013400293039B1A02029B134343F0BF6356
:1004BC0043F400330293034A029BD36000BF04B0A1
:1004CC00704700BF00ED00E082B0034600918DF84C
:1004DC0007309DF90730002B0CDA009BDAB20C497F
:1004EC009DF8073003F00F03043B5201D2B20B44CA
:1004FC001A7609E0009BDAB206499DF907305201E1
:10050C00D2B20B4483F8002300BF02B0704700BF87
:10051C0000ED00E000E100E0BFF34F8F00BF074BA0
:10052C00DB6803F4E0620549054B1343CB60BFF372
:10053C004F8F00BF00BF00BFFCE700BF00ED00E025
:10054C000400FA0500B583B00190019B013BB3F1A7
:10055C00807F01D301230FE0094A019B013B5360CB
:10056C0007214FF0FF30FFF7AFFF054B00229A60D9
:10057C00034B07221A600023184603B05DF804FBF6
:10058C0010E000E000B583B00190019B1B681F2BAD
:10059C0004D9054940F2CD1003F0A1F84FF0A04367
:1005AC00184603B05DF804FBA894000000B585B0B4
:1005BC000190084611461A4603468DF803300B4647
:1005CC008DF8023013468DF8013001AB1846FFF759
:1005DC00D9FF03909DF803209DF802305B001A436D
:1005EC009DF801309B001A439DF818301B0242EA1B
:1005FC0003019DF81C301B04019A1943039B02F55F
:10060C00E07243F8221000BF05B05DF804FB00B5A2
:10061C0085B0039000230193002300930023012253
:10062C0001210398FFF7C2FF00BF05B05DF804FB82
:10063C0000B583B00190009142F2107200990198BC
:10064C0006F018FFFEE7000008B50F4B1B680133DE
:10065C000D4A13600C4B1A6813469B0013445B0045
:10066C001A460A4B1A60084B19680949002005F014
:10067C0029FA084B1A68084B1B681344054A136087
:10068C00BFF34F8F00BF08BD2000002024000020C6
:10069C00C8950000280000202C00002000B585B073
:1006AC000190019B1B78022B07D1019B5B68174AB9
:1006BC009921184602F0AEFC23E0019B1B78012B1C
:1006CC0007D1019B5B68114AA021184602F0A2FCDD
:1006DC0017E0019B1B78002B0CD10DF10F03184672
:1006EC0002F030FF9DF80F301846FFF769FEBFF39C
:1006FC004F8F06E0019B1B78032B02D1044B012288
:10070C001A7000BF05B05DF804FB00BFD094000068
:10071C000000002030B58DB0134B04AC1D460FCD3E
:10072C000FC495E8030084E80300104B00934FF4CA
:10073C00006301930E4B02934FF4006303936946DD
:10074C0004A807230B4A02F06DFE0B900B9B0A9337
:10075C000A9B002B04D0084AB8210A9802F05AFCD4
:10076C0000BF0DB030BD00BF24950000300000204C
:10077C0030080020A9060000D094000008B50B201A
:10078C00FFF745FF08F068FB40F2D24000F00EF98D
:10079C00002000F067F90346002B05D108F0F4FAAD
:1007AC00C8211048FFF744FFFFF7B4FF0E490F486C
:1007BC0006F017FD0E49642006F040FE0D49652039
:1007CC0006F03CFE0C49662006F038FEFFF728FECA
:1007DC00F02005F01DFB6FF01E0005F019FB00BFAB
:1007EC0008BD00BF749500003C950000C895000042
:1007FC00509500005C9500006895000000B587B02E
:10080C0008225021234804F073F90921224804F0EE
:10081C0077FD00238DF8173024E09DF8173018462B
:10082C0000F0BCF99DF817301C4A52F823009DF8D3
:10083C0017309BB2033399B29DF8172013469B00D7
:10084C001344DB00164A1A4400230293002301933D
:10085C00002300930A2308F03DFA9DF8173001336A
:10086C008DF817309DF81730042BD6D900F076FB95
:10087C000C4B186800230293002301930023009370
:10088C000523094A0C2108F025FA00BF07B05DF8D2
:10089C0004FB00BF301000208010002020960000C8
:1008AC00C8100020E89600009011002000B583B01D
:1008BC00034600918DF807301B4B1B7B03F0100394
:1008CC00002B2CD0194B1B681B7BDB08DBB21A46A8
:1008DC00154B13441B7C1A46144B1B681B7B03F0F3
:1008EC00070322FA03F303F00103002B17D008F0DF
:1008FC004BFA642005F068FE00F0E0F80346184659
:10090C0006F0E4F99DF807301946112006F0E0FADC
:10091C00009806F0B9FB05F0F9FE08F047FA00BFA5
:10092C0003B05DF804FB00BF101D0020E89600002A
:10093C0000B583B003468DF807301A4B1B7B03F0D0
:10094C002003002B29D0184B1B681B7BDB08DBB268
:10095C001A46144B13441B7C1A46134B1B681B7B07
:10096C0003F0070322FA03F303F00103002B14D066
:10097C0008F00AFA652005F027FE00F09FF8034600
:10098C00184606F0A3F99DF807301946112006F019
:10099C009FFA05F0BBFE08F009FA00BF03B05DF842
:1009AC0004FB00BF101D0020E896000082B00190EF
:1009BC00024A019B136000BF02B070471C0000206C
:1009CC0082B0074B1B68074A02FB03F30193044AEE
:1009DC00019B1360019B1B0A184602B0704700BFB5
:1009EC001C000020CD0D010008B5094B1B68094AFD
:1009FC00A2FB03235B091846FFF7A4FD0020FFF7B9
:100A0C0043FD02214FF0FF30FFF75EFD00BF08BD34
:100A1C00180000201F85EB5100B583B008F0A2F937
:100A2C0006F028FF0E4B1B78002B14D008F088F929
:100A3C0005F0B4F90346ADF8063008F093F9BDF8AB
:100A4C0006304FF6FF72934205D0BDF80630DBB28C
:100A5C00184602F0B1FD00BF03B05DF804FB00BF07
:100A6C000000002000B583B001904FF400610C48E9
:100A7C0005F05EF964210B4806F0B4FE0A4B1B68C6
:100A8C000A4AA2FB03235B09094A1360084B1B6843
:100A9C00084A13600123184603B05DF804FB00BF3D
:100AAC00A4110020A4190020180000201F85EB5170
:100ABC002C0000202800002000BF70470A4B1B6848
:100ACC0003F48033002B05D1084B1A68064B9B6846
:100ADC00D31A07E0054B1A68054B1B681A44024BE6
:100AEC009B68D31A1846704710E000E028000020DD
:100AFC002C00002000B583B005F050F90346ADF88A
:100B0C000630BDF806304FF6FF7293420AD0084B00
:100B1C001B78002BF0D0BDF80630DBB2184602F083
:100B2C004BFDE9E700BF00BF03B05DF804FB00BF5D
:100B3C000000002008B5FFF7EFFC00BF08BD84B033
:100B4C0002910192009303468DF80F3000BF04B060
:100B5C007047000008B5FFF733FF0246054BA3FBB7
:100B6C0002135B09642101FB03F3D31A32331846D9
:100B7C0008BD00BF1F85EB5108B5FFF721FF0246EA
:100B8C00054BA3FB02135B09642101FB03F3D31A8E
:100B9C006433184608BD00BF1F85EB5100B585B006
:100BAC000190019B9B010C4A13440393039B0B493B
:100BBC00184604F045FD039B03F12800039900231C
:100BCC000A2204F01DFE019BDAB2039B83F83C2041
:100BDC0000BF05B05DF804FB081A0020ED0B000007
:100BEC0000B583B001900091019B93F83C309B01C0
:100BFC001A4A9818019B93F83C30194A194606F08A
:100C0C0011FB019B93F83C309B012833134A981835
:100C1C00019B93F83C30134A194606F003FB019BE9
:100C2C000421184604F082FC019B0821184604F0AC
:100C3C007DFC0D490D4806F0DFFB0D490D4806F013
:100C4C00DBFB0D490D4806F0D7FB019B074A9A6068
:100C5C000823184603B05DF804FB00BF081A0020F7
:100C6C003496000048960000649600008D0C00003D
:100C7C00749600005D0D000084960000210E0000AB
:100C8C0010B584B001900091009B1B88013B092B8F
:100C9C004CD801A252F823F0CD0C0000EB0C000054
:100CAC00390D00000B0D00000B0D0000390D00007C
:100CBC00390D0000310D0000390D0000FD0C000055
:100CCC00019B03F12804FFF745FF03460022194658
:100CDC00204604F0C7FD03238DF80F302DE0019B57
:100CEC002833184604F050FE03238DF80F3024E00F
:100CFC00019B144A9A6008238DF80F301DE008F010
:100D0C0043F8009B1A79019B93F83C309A4203D12B
:100D1C0098210D48FFF78CFC08F048F803238DF858
:100D2C000F300AE003238DF80F3006E0019B074AD1
:100D3C009A6000238DF80F3000BF9DF80F301846D5
:100D4C0004B010BD5D0D0000CC950000E545000021
:100D5C0000B585B001900091009B1B88052B30D00D
:100D6C00052B41DC012B02D0042B18D03CE00B22CC
:100D7C004FF6FF71062003F02FFF0290019B93F8B2
:100D8C003C20029B1A711F4B18680299019B4FF66D
:100D9C00FF7203F085FC03238DF80F302BE0009BD2
:100DAC001A79019B93F83C309A4206D1019B164A62
:100DBC009A6008238DF80F301DE002238DF80F3058
:100DCC0019E007F0E1FF009B1A79019B93F83C3086
:100DDC009A4203D1C7210D48FFF72AFC07F0E6FF22
:100DEC0003238DF80F3006E0019B094A9A6000231B
:100DFC008DF80F3000BF9DF80F30184605B05DF828
:100E0C0004FB00BFE8960000210E0000CC9500000A
:100E1C00E545000010B584B001900091009B1B8843
:100E2C00013B092B5BD801A252F823F0610E0000A4
:100E3C007F0E0000EB0E0000C50E0000C50E00007A
:100E4C00EB0E0000EB0E0000EB0E0000EB0E0000B2
:100E5C00B70E0000019B03F12804FFF78DFE03463B
:100E6C0000221946204604F0FDFC03238DF80F30B8
:100E7C003CE0019B2833184604F086FD05224FF612
:100E8C00FF71062003F0A8FE0290019B93F83C2012
:100E9C00029B1A7102980199019B1B7B1A4604F064
:100EAC0061FA03238DF80F3020E0019B124A9A60FF
:100EBC0008238DF80F3019E007F066FF009B1A79B4
:100ECC00019B93F83C309A4203D1F4210B48FFF775
:100EDC00AFFB07F06BFF03238DF80F3006E0019B8F
:100EEC00074A9A6000238DF80F3000BF9DF80F3031
:100EFC00184604B010BD00BF8D0C0000CC9500004E
:100F0C00E545000082B003468DF807309DF80730A8
:100F1C00191D064BA3FB01239A0813469B0013448F
:100F2C00CA1AD3B2184602B0704700BFCDCCCCCC95
:100F3C0082B003468DF807309DF80730591C064BDC
:100F4C00A3FB01239A0813469B001344CA1AD3B27D
:100F5C00184602B0704700BFCDCCCCCC00B583B0E6
:100F6C00134B0093009B1349184604F069FB0023B4
:100F7C008DF8073012E09DF80730009A13440022D8
:100F8C0083F828209DF80730009A1344002283F838
:100F9C002D209DF8073001338DF807309DF8073070
:100FAC00042BE8D900BF00BF03B05DF804FB00BF01
:100FBC00481B0020C50F000000B585B001900091C2
:100FCC00019B02932649029806F00BF9019B05211F
:100FDC00184604F0ABFA019B0621184604F0A6FA59
:100FEC00019B0721184604F0A1FA019B0821184621
:100FFC0004F09CFA00238DF80F3018E09DF80F30A8
:10100C00019A1344002283F828209DF80F30019A8E
:10101C001344002283F82D209DF80F3011491846F7
:10102C00FFF744FC9DF80F3001338DF80F309DF81D
:10103C000F30042BE2D90C490C4806F0DDF90C49B1
:10104C000C4806F0D9F90C490C4806F0D5F9019B6F
:10105C00084A9A600823184605B05DF804FB00BFE7
:10106C00EC960000F8960000049700008D1000002C
:10107C0014970000D910000024970000CD14000034
:10108C0000B585B001900091009B1B88042B05D006
:10109C00082B09D103238DF80F300CE007F074FEF8
:1010AC0094210848FFF7C4FA019B074A9A60002371
:1010BC008DF80F3000BF9DF80F30184605B05DF865
:1010CC0004FB00BF94960000E545000000B589B014
:1010DC0001900091009B1B88013B0A2B00F2D681EA
:1010EC0001A252F823F000BF211100009914000056
:1010FC00991400007D140000B91200008B1400003C
:10110C00991400009914000099140000991400001F
:10111C00E111000000238DF81E3053E09DF81E30C5
:10112C00019A134493F82D30002B46D09DF81E30B5
:10113C001846FFF7FDFE03461A46019B134493F82D
:10114C002830002B39D19DF81E30019A134493F8A6
:10115C002830002B31D19DF81E301846FFF7E8FEE1
:10116C0003461A46019B1344012283F828209DF85C
:10117C001E30019A1344012283F8282004224FF6D2
:10118C00FF71062003F028FD0290029B9DF81E20A3
:10119C001A7102980199019B1B7B1A4604F0E2F824
:1011AC009DF81E30019A1344002283F82D209DF8DF
:1011BC001E30BD491846FFF779FB9DF81E300133F0
:1011CC008DF81E309DF81E30042BA7D903238DF803
:1011DC001F3062E1009B1B798DF81D3007F0D4FDA8
:1011EC009DF81D30042B07D89DF81D30019A13442F
:1011FC0093F82D30002B03D0C121AC48FFF718FA1F
:10120C0007F0D4FD9DF81D30A9491846FFF74EFB99
:10121C009DF81D301846FFF78BFE03468DF81C30E9
:10122C009DF81C30019A134493F82830002B32D1CE
:10123C009DF81D30019A134493F82830002B2AD1C5
:10124C009DF81C30019A1344012283F828209DF844
:10125C001D30019A1344012283F8282004224FF6F2
:10126C00FF71062003F0B8FC0690069B9DF81D202C
:10127C001A7106980199019B1B7B1A4604F072F8AF
:10128C009DF81D3088491846FFF710FB03238DF895
:10129C001F3000BF01E19DF81D30019A134401225B
:1012AC0083F82D2003238DF81F30F6E0009B1B796B
:1012BC008DF8173007F068FD9DF81730042B07D810
:1012CC009DF81730019A134493F82D30002B03D05E
:1012DC00DF217648FFF7ACF907F068FD9DF8173071
:1012EC0074491846FFF7E2FA9DF817301846FFF7D5
:1012FC001FFE03468DF8163007F046FD9DF817309B
:10130C00019A134493F82830012B07D19DF816301D
:10131C00019A134493F82830012B03D0E52163483C
:10132C00FFF786F907F042FD9DF81630019A134439
:10133C00002283F828209DF81730019A13440022CC
:10134C0083F828209DF817301846FFF7DBFD03467D
:10135C008DF816309DF81630019A134493F82D3001
:10136C00002B34D09DF81630019A134493F8283092
:10137C00002B2CD19DF81730019A1344012283F8CD
:10138C0028209DF81630019A1344012283F8282056
:10139C009DF81630019A1344002283F82D20042264
:1013AC004FF6FF71062003F017FC0490049B9DF888
:1013BC0016201A7104980199019B1B7B1A4603F0A5
:1013CC00D1FF9DF8163038491846FFF76FFA9DF893
:1013DC0017301846FFF7ACFD03468DF816309DF814
:1013EC0016301846FFF7A4FD03468DF817309DF80C
:1013FC001630019A134493F82D30002B34D09DF8FD
:10140C001730019A134493F82830002B2CD19DF8F7
:10141C001630019A1344012283F828209DF81730C6
:10142C00019A1344012283F828209DF81630019A62
:10143C001344002283F82D2004224FF6FF7106205E
:10144C0003F0CAFB0390039B9DF816201A710398B6
:10145C000199019B1B7B1A4603F084FF9DF8163003
:10146C0011491846FFF722FA03238DF81F3014E0B8
:10147C0007F08AFC4FF486710C48FFF7D9F8019BF2
:10148C000D4A9A6008238DF81F3006E0019B0B4A29
:10149C009A6000238DF81F3000BF9DF81F3018464E
:1014AC0009B05DF804FB00BF34970000949600006F
:1014BC0040970000F8960000CD1400008D1000003D
:1014CC0000B585B001900091009B1B88013B0A2B55
:1014DC0000F2AB8001A252F823F000BF15150000FA
:1014EC002315000037160000371600009315000076
:1014FC0037160000311500003716000037160000B3
:10150C00371600003F1500000120FFF711FA0323E6
:10151C008DF80F3090E00020FFF70AFA03238DF8C6
:10152C000F3089E0019B474A9A6008238DF80F30F1
:10153C0082E0009B1B798DF80E3007F025FC9DF89E
:10154C000E30042B07D89DF80E30019A134493F8F3
:10155C002D30002B04D040F237113B48FFF768F8D0
:10156C0007F024FC9DF80E30019A1344012283F8F5
:10157C002D209DF80E3035491846FFF797F90323B7
:10158C008DF80F3058E0009B1B798DF80D3007F06B
:10159C00FBFB9DF80D30042B07D89DF80D30019AFC
:1015AC00134493F82D30002B04D040F243112648FD
:1015BC00FFF73EF807F0FAFB9DF80D30244918466A
:1015CC00FFF774F99DF80D301846FFF7B1FC034690
:1015DC008DF80C3007F0D8FB9DF80D30019A1344B0
:1015EC0093F82830012B07D19DF80C30019A134445
:1015FC0093F82830012B04D040F249111248FFF720
:10160C0017F807F0D3FB9DF80C30019A1344002215
:10161C0083F828209DF80D30019A1344002283F89A
:10162C00282003238DF80F3006E0019B094A9A60AD
:10163C0000238DF80F3000BF9DF80F30184605B011
:10164C005DF804FBD9100000949600004097000050
:10165C00F89600008D10000008B507F039FAFFF776
:10166C008DF8FFF7CBF807F06FFA0346184608BD64
:10167C0082B003468DF807309DF8073003F01F0247
:10168C0005499DF907305B09012000FA02F241F887
:10169C00232000BF02B0704700E100E082B0034697
:1016AC0000918DF807309DF90730002B0CDA009B68
:1016BC00DAB20C499DF8073003F00F03043B5201DA
:1016CC00D2B20B441A7609E0009BDAB206499DF9B6
:1016DC0007305201D2B20B4483F8002300BF02B092
:1016EC00704700BF00ED00E000E100E082B0019027
:1016FC00019B1B0B5BB2184602B0704700B583B060
:10170C0003460A468DF8073013468DF806309DF8CF
:10171C000630072B03D908496B2001F0E0FF9DF838
:10172C0006209DF9073011461846FFF7B7FF00BF9A
:10173C0003B05DF804FB00BF4C97000000B583B00C
:10174C0003468DF807309DF907301846FFF790FFD8
:10175C0000BF03B05DF804FB84B001900B46ADF8FC
:10176C000230BDF80230019A134400221A60BDF811
:10177C000230019A13441B680393039B00BF04B00F
:10178C00704782B001900B46ADF80230BDF80230C4
:10179C00019A13441B68002B14BF01230023DBB2F6
:1017AC00184602B0704782B001900091019B009ADC
:1017BC00C3F8042300BF02B0704782B001900091BF
:1017CC00019BD3F80423009B1340002B14BF01236F
:1017DC000023DBB2184602B0704782B00190009132
:1017EC00019B009AC3F8082300BF02B0704784B075
:1017FC000190019BD3F880340393019B039AC3F8A7
:10180C008024039B184604B0704782B00190019B62
:10181C000422C3F8002500BF02B0704784B00390C7
:10182C0002910192039B019AC3F81425039B029A1F
:10183C00C3F80C2500BF04B0704784B0039002912C
:10184C000192039B029AC3F80825039B019AC3F8E3
:10185C00102500BF04B0704782B00190019BD3F8F3
:10186C001835DBB2184602B0704782B001900B46B7
:10187C008DF803309DF80320019BC3F81C2500BF95
:10188C0002B0704782B001900B468DF803309DF882
:10189C000330019A134401221A6000BF02B0704752
:1018AC0082B001900B468DF8033013468DF8023050
:1018BC009DF803209DF802301343DBB21A46019BBE
:1018CC00C3F86C2500BF02B0704782B00190009144
:1018DC00019B009AC3F8242500BF02B0704700009A
:1018EC0000B583B00190019B1B681F2B04D90549DF
:1018FC0040F2CD1001F0F3FE4FF0A043184603B0B8
:10190C005DF804FB7497000000B585B001900846A3
:10191C0011461A4603468DF803300B468DF80230FB
:10192C0013468DF8013001AB1846FFF7D9FF039031
:10193C009DF803209DF802305B001A439DF801309E
:10194C009B001A439DF818301B0242EA03019DF8D4
:10195C001C301B04019A1943039B02F5E07243F8F7
:10196C00221000BF05B05DF804FB00B585B00390F4
:10197C0000230193002300930023012201210398EB
:10198C00FFF7C2FF00BF05B05DF804FB00B585B0E2
:10199C0003900B468DF80B309DF80B300022019212
:1019AC0000220092002200210398FFF7ADFF00BF38
:1019BC0005B05DF804FB00B585B0019001AB18468D
:1019CC00FFF78EFF0390019B012202FA03F31946E5
:1019DC00039800F004F800BF05B05DF804FB82B07A
:1019EC0001900091019B009AC3F8082500BF02B03A
:1019FC00704700B583B001900091009B1B68B3F158
:101A0C00FF3F09D0009B1B681846FFF7D4FF009BD3
:101A1C001B681846FFF7A9FF009B5B68B3F1FF3FFB
:101A2C0005D0009B5B6800211846FFF7AFFF019BB8
:101A3C001A68009B9B6919461046FFF746FF019BED
:101A4C001868009B597D009B1B7D1A46FFF728FFE9
:101A5C00019B1868009B1968009B5B681A46FFF78E
:101A6C00DDFE009B1B7D012B22D1009B9B68B3F1FB
:101A7C00FF3F05D0009B9B6800211846FFF786FFAF
:101A8C00009BDB68B3F1FF3F09D0009BDB68184675
:101A9C00FFF791FF009BDB681846FFF766FF019B81
:101AAC001868009BD968009B9B681A46FFF7C5FE17
:101ABC0000BF03B05DF804FB00B583B001900B468A
:101ACC008DF80330019B1B684FF48E711846FFF79D
:101ADC0043FE019B1B684FF4A2711846FFF73CFEB6
:101AEC00019B1B680E491846FFF75DFE019B1B68A6
:101AFC001846FFF7FBFD03461A469DF803301946BE
:101B0C001046FFF7FBFD019B1B681846FFF7EEFD27
:101B1C0003461846FFF712FE00BF03B05DF804FB46
:101B2C008000020000B587B0039002910192029BE5
:101B3C00002B03D12D49AA2001F0D1FD039B1B7969
:101B4C001A462C2302FB03F3294A13440593002362
:101B5C000493059B93F82A30002B03D0082304939D
:101B6C00049B3EE0039B1A68039B1B791946214B8F
:101B7C0053F821301946104601F0C4F90346002BE6
:101B8C0003D011230493049B2BE002990398FFF7D5
:101B9C0030FF059B019A5A60029B1A69059B1A60DB
:101BAC00059B5B68002B05D0029B1B7F1946039895
:101BBC00FFF782FF039B1B681846FFF726FE059B69
:101BCC0000229A61059B0022DA61059B002283F8B2
:101BDC002920059B00225A61059B012283F82A20AB
:101BEC00049B184607B05DF804FB00BF9C970000EF
:101BFC007C1B0020CC97000000B585B001900091B3
:101C0C004FF48E710198FFF7A7FD009B9A68009B1B
:101C1C001B6A13441B788DF80F30009B1B6A5A1CEF
:101C2C00009B1A629DF80F3019460198FFF71DFEB4
:101C3C0000BF05B05DF804FB00B585B001900091C4
:101C4C00009B5B69039316E0009B93F82830DBB292
:101C5C00002B01D0002314E04FF48E710198FFF794
:101C6C0090FD034683F00103DBB2002BECD100990D
:101C7C000198FFF7C1FF009B1B6A039A9A42EBD8AD
:101C8C000123184605B05DF804FB000000B587B0D1
:101C9C00039002910192039B1B791A462C2302FBA1
:101CAC0003F33C4A13440493049B93F82A30012B0E
:101CBC0004D039494FF48C7001F011FD029B002BBC
:101CCC0004D1354940F2191001F009FD019B002B9C
:101CDC0004D131494FF48D7001F001FD039800F0EF
:101CEC005DF80346002B03D011230593059B4CE0B4
:101CFC00049B019A5A61049B029A9A60049B0022ED
:101D0C001A62049B002283F8282000230593039B6E
:101D1C001B684FF48E711846FFF71EFD039B1B6862
:101D2C0008211846FFF7AEFD039B1B680499184663
:101D3C00FFF762FF049B5B68002B25D1039B1B689C
:101D4C0004991846FFF778FF034683F00103DBB2D2
:101D5C00002B02D00F23059313E000BF039B1B68DD
:101D6C004FF48E711846FFF70CFD034683F0010308
:101D7C00DBB2002BF2D1039B1B680C211846FFF73A
:101D8C0081FD049B00225A61059B184607B05DF843
:101D9C0004FB00BF7C1B00209C97000082B00190CC
:101DAC00019B1B791946074A2C2301FB03F31344AF
:101DBC0014331B68002B14BF01230023DBB218461D
:101DCC0002B070477C1B002000B583B00190019BD2
:101DDC001B684FF492711846FFF7BEFC019B1B6801
:101DEC004FF484711846FFF7B7FC019B1B68002168
:101DFC001846FFF747FD00BF03B05DF804FB10B5B4
:101E0C0082B001900091009B9B69002B08D14FF48C
:101E1C0084710198FFF7A0FC0198FFF71DFD13E0FA
:101E2C004FF484710198FFF797FC009BDA68009BD4
:101E3C005B6AD4180198FFF70FFD03462370009BD3
:101E4C005B6A5A1C009B5A6202B010BD00B589B087
:101E5C00039002910192039B1B791A462C2302FBDF
:101E6C0003F37F4A13440693039B1B7919467C4A60
:101E7C002C2301FB03F313442A331B78012B04D0CE
:101E8C0078494FF4B67001F02AFC029B002B04D168
:101E9C00744940F26D1001F022FC019B002B04D11F
:101EAC0070494FF4B77001F01AFC00238DF81F3005
:101EBC00069B5B68002B06D0039B1B684FF40171DB
:101ECC001846FFF78AFC069B9B69002B15D0069BD6
:101EDC00DB69002B0ED0069B5B68002B06D0039BA6
:101EEC001B684FF401711846FFF75DFC1123059335
:101EFC00059BB0E001238DF81F309DF81F3083F057
:101F0C000103DBB2002B0CD0069B019A9A61069B55
:101F1C00029ADA60069B00225A62069B0022DA6162
:101F2C0005E0069B029A1A61069B019ADA61069BF0
:101F3C0093F8293083F00103DBB2002B09D09DF814
:101F4C001F3083F00103DBB2002B02D00398FFF7A4
:101F5C003BFF069B5B68002B73D1039B1B684FF404
:101F6C00A2711846FFF7F8FB039B1B684FF49271A4
:101F7C001846FFF706FC03468DF81330039B1B68CD
:101F8C004FF484711846FFF7FCFB03468DF81230B2
:101F9C00039B1B684FF4A2711846FFF7F2FB034634
:101FAC008DF811309DF8123083F00103DBB2002B59
:101FBC000DD09DF8113083F00103DBB2002B06D05D
:101FCC009DF8133083F00103DBB2002BCCD19DF8CC
:101FDC001330002B0FD19DF81130002B0BD1039B2C
:101FEC001B6806991846FFF70AFF069B9A69069B21
:101FFC005B6A9A42B8D8069B00229A619DF813300E
:10200C00002B03D003230593059B24E09DF811308E
:10201C00002B03D00F230593059B1CE0069B93F824
:10202C002930002B06D0039B1B6800211846FFF7B4
:10203C0029FC0DE0039B1B6804211846FFF722FCCA
:10204C0006E0039B1B684FF401711846FFF7ABFBCE
:10205C0000230593059B184609B05DF804FB00BFEF
:10206C007C1B00209C97000000B589B00390029166
:10207C00019201238DF81030029B0693019B05936E
:10208C00039B5B68039A116804AA1046984700BF2B
:10209C0009B05DF804FB00B587B0019000910023F6
:1020AC008DF80830009B0493019B9B680393019B64
:1020BC0000225A61019B5B68019A116802AA1046C2
:1020CC00984700BF07B05DF804FB00B58BB00190DA
:1020DC0000914FF400710198FFF76FFB0346002B42
:1020EC0039D04FF492710198FFF74BFB0346002B4C
:1020FC0031D04FF492710198FFF72EFB4FF4017120
:10210C000198FFF76AFB009B93F8293083F00103D9
:10211C00DBB2002B03D004210198FFF7B3FB0223A1
:10212C008DF80C300198FFF762FB03460693009B79
:10213C009B690593009BDB680493009B00229A61CA
:10214C00009B0022DA61009B5B68009A116803AA6D
:10215C001046984752E004210198FFF72EFB0346E6
:10216C00002B4BD04FF484710198FFF70AFB034608
:10217C00002B43D000990198FFF741FE009B9A6910
:10218C00009B5B6A9A4239D1009BDB69002B19D00A
:10219C00009BDB680993009B5B6A0893009BDA69E0
:1021AC00009B9A61009B1A69009BDA60009B0022DD
:1021BC00DA61009B00225A62099A08990098FFF78D
:1021CC0053FF1BE0009B93F8293083F00103DBB233
:1021DC00002B03D004210198FFF754FB4FF401713D
:1021EC000198FFF7FAFA009B00229A61009B596A4A
:1021FC00009BDB681A460098FFF736FF4FF48E7190
:10220C000198FFF7BEFA0346002B24D0009B5B69B4
:10221C000793009B1B6A079A9A420DD9009B93F86F
:10222C002830DBB283F00103DBB2002B04D0009921
:10223C000198FFF7E1FC0EE04FF48E710198FFF767
:10224C008BFA009B5B69002B05D0009B5B691946E0
:10225C000098FFF720FF4FF4A2710198FFF791FA55
:10226C000346002B1CD04FF4A2710198FFF774FAAF
:10227C00009B93F82930002B03D000210198FFF725
:10228C0001FB009B9B69002B0AD0009B00229A61EA
:10229C00009B596A009BDB681A460098FFF7E4FE26
:1022AC0000BF0BB05DF804FB08B503490348FFF70A
:1022BC000CFF00BF08BD00BF7C1B002000200040AD
:1022CC0082B003468DF807309DF8073003F01F02EB
:1022DC0005499DF907305B09012000FA02F241F82B
:1022EC00232000BF02B0704700E100E082B003463B
:1022FC0000918DF807309DF90730002B0CDA009B0C
:10230C00DAB20C499DF8073003F00F03043B52017D
:10231C00D2B20B441A7609E0009BDAB206499DF959
:10232C0007305201D2B20B4483F8002300BF02B035
:10233C00704700BF00ED00E000E100E082B00190CA
:10234C00019B03F06043B3F1005F0CBF012300233A
:10235C00DBB2184602B0704782B00190019B1B0B98
:10236C005BB2184602B0704700B583B003460A460C
:10237C008DF8073013468DF806309DF80630072B84
:10238C0003D908496B2001F0AAF99DF806209DF9A4
:10239C00073011461846FFF7A9FF00BF03B05DF8E0
:1023AC0004FB00BFD097000000B583B003468DF846
:1023BC0007309DF907301846FFF782FF00BF03B0C6
:1023CC005DF804FB84B001900B46ADF80230BDF80B
:1023DC000230019A134400221A60BDF80230019AAF
:1023EC0013441B680393039B00BF04B0704782B077
:1023FC0001900B46ADF80230BDF80230019A13443F
:10240C001B68002B14BF01230023DBB2184602B05B
:10241C00704782B001900091019BD3F80022009B81
:10242C001A43019BC3F8002200BF02B0704782B070
:10243C0001900091019BD3F80022009BDB431A40D2
:10244C00019BC3F8002200BF02B0704782B001901C
:10245C000091019B009AC3F8042300BF02B070479F
:10246C0082B001900091019B009AC3F8082300BF31
:10247C0002B0704784B00190019BD3F88034039371
:10248C00019B039AC3F88024039B184604B0704741
:10249C0082B00190019B0822C3F8002500BF02B056
:1024AC00704784B0039002910192039B029AC3F887
:1024BC000C25039B019AC3F8142500BF04B0704788
:1024CC0084B0039002910192039B029AC3F80825F1
:1024DC00039B019AC3F8102500BF04B0704782B06B
:1024EC0001900B468DF803309DF80330019A13448C
:1024FC0001221A6000BF02B0704782B001900B46F7
:10250C008DF8033013468DF802309DF803209DF8AA
:10251C0002301343DBB21A46019BC3F86C2500BF93
:10252C0002B0704782B001900091019B009AC3F8F1
:10253C00242500BF02B0704784B003900291019231
:10254C00029A039BC3F84425039B019AC3F84825C0
:10255C0000BF04B0704782B00190019BD3F84C359A
:10256C00184602B0704784B0039002910192029A0F
:10257C00039BC3F83425039B019AC3F8382500BF8D
:10258C0004B0704782B00190019BD3F83C351846DB
:10259C0002B0704700B583B00190019B1B681F2BE4
:1025AC0004D9054940F2CD1001F099F84FF0A04341
:1025BC00184603B05DF804FBF897000000B585B031
:1025CC000190084611461A4603468DF803300B4617
:1025DC008DF8023013468DF8013001AB1846FFF729
:1025EC00D9FF03909DF803209DF802305B001A433D
:1025FC009DF801309B001A439DF818301B0242EAEB
:10260C0003019DF81C301B04019A1943039B02F52E
:10261C00E07243F8221000BF05B05DF804FB00B572
:10262C0085B0039000230193002300930023012223
:10263C0001210398FFF7C2FF00BF05B05DF804FB52
:10264C0000B585B003900B468DF80B309DF80B3020
:10265C000022019200220092002200210398FFF731
:10266C00ADFF00BF05B05DF804FB00B585B001906F
:10267C0001AB1846FFF78EFF0390019B012202FA73
:10268C0003F31946039800F004F800BF05B05DF899
:10269C0004FB82B001900091019B009AC3F80825BD
:1026AC0000BF02B0704700B583B001900091009B51
:1026BC001B68B3F1FF3F09D0009B1B681846FFF75E
:1026CC00D4FF009B1B681846FFF7A9FF009B5B68B3
:1026DC00B3F1FF3F05D0009B5B6800211846FFF764
:1026EC00AFFF019B1A68009B9B6919461046FFF7C8
:1026FC0019FF019B1868009B597D009B1B7D1A4696
:10270C00FFF7FBFE019B1868009B1968009B5B6838
:10271C001A46FFF7C6FE009B1B7D012B22D1009BA6
:10272C009B68B3F1FF3F05D0009B9B6800211846C6
:10273C00FFF786FF009BDB68B3F1FF3F09D0009BDE
:10274C00DB681846FFF791FF009BDB681846FFF724
:10275C0066FF019B1868009BD968009B9B681A4612
:10276C00FFF7AEFE00BF03B05DF804FB00B583B00D
:10277C0001900B468DF80330019B1B684FF4887158
:10278C001846FFF71FFE019B1B684FF4907118460B
:10279C00FFF718FE019B1B684FF492711846FFF768
:1027AC0011FE019B1B684FF4A2711846FFF70AFE3D
:1027BC00019B1B684FF4AC711846FFF703FE019B9D
:1027CC001B680F491846FFF741FE019B1B68184612
:1027DC00FFF7C2FD03461A469DF803301946104612
:1027EC00FFF7C2FD019B1B681846FFF7B5FD0346BA
:1027FC001846FFF7D9FD00BF03B05DF804FB00BF1E
:10280C001003420000B587B0039002910192029B25
:10281C00002B03D12B49CF2000F061FF039B1B79C8
:10282C001A461346DB0013449B00274A13440593B6
:10283C0000230493059B93F82030002B03D008232E
:10284C000493049B3AE0039B1A68039B1B7919467B
:10285C001E4B53F821301946104600F053FB03462B
:10286C00002B03D011230493049B27E002990398B7
:10287C00FFF719FF059B019A5A60029B1A69059B89
:10288C001A60059B5B68002B05D0029B1B7F1946C9
:10289C000398FFF76BFF039B1B681846FFF7F8FDC7
:1028AC00059B00229A61059B0022DA61059B0022A0
:1028BC005A61059B012283F82020049B184607B01F
:1028CC005DF804FB20980000A81B00205498000021
:1028DC0000B589B0039002910192039B1B791A46B3
:1028EC001346DB0013449B00564A13440693069B85
:1028FC0093F82030012B04D0534940F22D1000F0F6
:10290C00EEFE029B002B04D14F494FF4977000F060
:10291C00E6FE019B002B04D14B4940F22F1000F036
:10292C00DEFE039B1B79002B02D1019BFF2B04D9EC
:10293C0045494FF4987000F0D2FE0298FFF7FEFC68
:10294C00034683F00103DBB2002B03D01023079363
:10295C00079B73E0039800F079F80346002B03D033
:10296C0011230793079B69E0069B019A5A61069B0A
:10297C00029A9A6000230793039B1B684FF4907193
:10298C001846FFF71FFD039B1B684FF4AC711846EC
:10299C00FFF718FD039B1868069B9968069B5B69FB
:1029AC001A46FFF7C9FD039B1B6808211846FFF761
:1029BC0096FD069B5B68002B3FD1039B1B684FF475
:1029CC0090711846FFF713FD03468DF81730039BE3
:1029DC001B684FF4AC711846FFF709FD03468DF8E0
:1029EC0016309DF8173083F00103DBB2002B06D0B4
:1029FC009DF8163083F00103DBB2002BDDD19DF87E
:102A0C001630002B02D00F23079313E0039B1B6897
:102A1C000C211846FFF763FD00BF039B1B684FF4A6
:102A2C00AC711846FFF7E3FC034683F00103DBB2FD
:102A3C00002BF2D1069B00225A61079B184609B065
:102A4C005DF804FBA81B00202098000082B00190C8
:102A5C00019B1B791946084A0B46DB000B449B0073
:102A6C00134414331B68002B14BF01230023DBB267
:102A7C00184602B0704700BFA81B002000B589B0F3
:102A8C00039002910192039B1B791A461346DB00BB
:102A9C0013449B00864A13440593039B1B791946E8
:102AAC00834A0B46DB000B449B00134420331B78FA
:102ABC00012B04D07F494FF4C07000F010FE029B34
:102ACC00002B04D17B4940F2811000F008FE019BE1
:102ADC00002B04D177494FF4C17000F000FE039B2A
:102AEC001B79002B02D1019BFF2B04D9714940F2B9
:102AFC00831000F0F4FD0298FFF720FC034683F0EE
:102B0C000103DBB2002B03D010230793079BCAE011
:102B1C0000238DF81B30059B5B68002B06D0039BB4
:102B2C001B684FF404711846FFF79AFC059B9B69D0
:102B3C00002B15D0059BDB69002B0ED0059B5B6829
:102B4C00002B06D0039B1B684FF404711846FFF74B
:102B5C007DFC11230793079BA5E001238DF81B3007
:102B6C009DF81B3083F00103DBB2002B09D0059BD1
:102B7C00019A9A61059B029ADA60059B0022DA6140
:102B8C0005E0059B029A1A61059B019ADA61002304
:102B9C000793039B1B684FF488711846FFF712FCD0
:102BAC00039B1B684FF4A2711846FFF70BFC039BA9
:102BBC001B68019A02991846FFF7D5FC9DF81B304B
:102BCC0083F00103DBB2002B06D0039B1B680021B2
:102BDC001846FFF784FC05E0039B1B682021184670
:102BEC00FFF717FC039B1B791946314A0B46DB0098
:102BFC000B449B00134404331B68002B4BD1039BE9
:102C0C001B684FF488711846FFF7F1FB03468DF8EB
:102C1C001330039B1B684FF4A2711846FFF7E7FBB8
:102C2C0003468DF81230039B1B684FF492711846C3
:102C3C00FFF7DDFB03468DF811309DF8133083F060
:102C4C000103DBB2002B0DD09DF8123083F0010391
:102C5C00DBB2002B06D09DF8113083F00103DBB200
:102C6C00002BCCD1039B1B791946114A0B46DB0078
:102C7C000B449B001344183300221A609DF811304A
:102C8C00002B01D0032307939DF81230002B09D0A1
:102C9C000F23079306E0039B1B684FF4047118463F
:102CAC00FFF7D4FB079B184609B05DF804FB00BF87
:102CBC00A81B00202098000000B589B00390029159
:102CCC00019201238DF81030029B0693019B059312
:102CDC00039B5B68039A116804AA1046984700BFCF
:102CEC0009B05DF804FB00B587B00190009100239A
:102CFC008DF80830009B0493019B9B680393019B08
:102D0C0000225A61019B5B68019A116802AA104665
:102D1C00984700BF07B05DF804FB00B589B001907F
:102D2C0000914FF492710198FFF761FB0346002B61
:102D3C0022D04FF492710198FFF744FB02238DF8D7
:102D4C0008300198FFF796FB034605930198FFF7AF
:102D5C0019FC03460493009BDB680393009B002241
:102D6C009A61009B0022DA61009B5B68009A1168F3
:102D7C0002AA104698473BE04FF488710198FFF780
:102D8C0036FB0346002B33D04FF488710198FFF7C4
:102D9C0019FB0198FFF7F6FB0790009B9B69079ABC
:102DAC009A4225D1009BDB69002B17D0009BDB6876
:102DBC00069320210198FFF73AFB009BDA69009BF0
:102DCC009A61009B1A69009BDA60009B0022DA6111
:102DDC00069A07990098FFF76FFF09E0009B002205
:102DEC009A61009BDB681A4607990098FFF764FF0D
:102DFC004FF4A2710198FFF7FAFA0346002B18D092
:102E0C004FF4A2710198FFF7DDFA009B9B69002B30
:102E1C000FD0009B00229A61009B0022DA6101987E
:102E2C00FFF7B0FB0146009BDB681A460098FFF7E2
:102E3C0043FF4FF490710198FFF7D9FA0346002B2A
:102E4C0014D04FF490710198FFF7BCFA0C21019843
:102E5C00FFF745FB009B5B69002B07D00198FFF740
:102E6C007AFB034619460098FFF73DFF4FF4AC710F
:102E7C000198FFF7BCFA0346002B10D04FF4AC714D
:102E8C000198FFF79FFA009B5B69002B07D0019814
:102E9C00FFF761FB034619460098FFF724FF00BFBC
:102EAC0009B05DF804FB000008B503490348FFF7BF
:102EBC0034FF00BF08BD00BFA81B0020002000404D
:102ECC0008B5064B1B68002B03D10549512000F0B7
:102EDC0006FC024B1B68984700BF08BDCC1B0020AA
:102EEC005898000082B00190019B044A934201D192
:102EFC00034B00E00023184602B07047002000404E
:102F0C00CC1B002000B587B001900091019B002BD9
:102F1C0003D11849772000F0E2FB0198FFF7E2FF9C
:102F2C000490049B002B1ED000238DF8173000203A
:102F3C0000F08EFB049B1B79002B03D001238DF832
:102F4C00173005E0049B009A1A60049B01221A7149
:102F5C00002000F091FB9DF81730002B03D01123BB
:102F6C000393039B02E000230393039B184607B0D3
:102F7C005DF804FB5898000086B003900291019212
:102F8C0001238DF817309DF81730214A039B1360ED
:102F9C001F4A029B53601E4A019B9360039B44F2A1
:102FAC000102934213D0039B44F20202934221D1BB
:102FBC00019B174AD360164BDB681B881A46144BCF
:102FCC009A61134BDB685B68114AD36112E0019B79
:102FDC000F4A13610E4B1B699B680D4A53610C4BD6
:102FEC001B691B680A4A9361094B1B695B68084A99
:102FFC00D36100BF72B600BF00BF9DF81730DBB2C3
:10300C00002BFAD162B600BF00BF06B0704700BFFC
:10301C00D41B002000B583B002900091019244F2C1
:10302C00010071466A4600F003F803B000BD00BF12
:10303C0000B587B003900291019272B600BF039B5A
:10304C0044F20102934207D0039B44F202029342E2
:10305C0005D1019B059303E0019B049300E000BFA5
:10306C00074B1B6803F00103002B00D000BE019A34
:10307C0002990398FFF780FF00BF07B05DF804FBCF
:10308C00F0ED00E084B00190019B9B680393019BE1
:10309C00DA68039BD31A184604B0704782B00190CB
:1030AC000B468DF80330019B1A68019BDB68019974
:1030BC0089880B4013449DF803201A70019BDB6830
:1030CC005A1C019BDA6000BF02B0704784B00390B9
:1030DC000B460192ADF80A30039B1A68039B996862
:1030EC00BDF80A300B44039989880B4013441A78B5
:1030FC00019B1A7000BF04B0704700B583B00190FB
:10310C000091009A00210198FFF7E0FF019B9B685A
:10311C005A1C019B9A6000BF03B05DF804FB84B09D
:10312C00039002911346ADF80630029B002B01D19F
:10313C000E231DE0BDF80630002B07D0BDF806307D
:10314C005A1EBDF806301340002B01D009230FE0A6
:10315C00039B029A1A60BDF80630013B9AB2039B9E
:10316C009A80039B00229A60039B0022DA60002362
:10317C00184604B0704700B583B001900B468DF82B
:10318C0003300198FFF77EFF0246019B9B889A4211
:10319C0007D89DF8033019460198FFF77FFF0023ED
:1031AC0000E00423184603B05DF804FB00B583B0BF
:1031BC00019000910198FFF765FF0346002B05D0A5
:1031CC0000990198FFF799FF002300E005231846AA
:1031DC0003B05DF804FB000000B587B003900291CA
:1031EC0013468DF8073000230593039B1B781A4672
:1031FC00114B9B5C002B09D0039B04339DF80720DB
:10320C0002991846FFF764FB05900FE0039B1B78AF
:10321C001A46094B9B5C002B08D1039B0C339DF881
:10322C00072002991846FEF731FD0590059B1846BC
:10323C0007B05DF804FB00BF2C1C002000B585B066
:10324C00019000238DF80F30019B1B781A46114B0F
:10325C009B5C002B08D0019B04331846FFF7F6FB50
:10326C0003468DF80F300EE0019B1B781A46094B74
:10327C009B5C002B07D1019B0C331846FEF78EFD8F
:10328C0003468DF80F309DF80F30184605B05DF8E9
:10329C0004FB00BF2C1C002000B587B003900291EA
:1032AC0013468DF8073000230593039B1B781A46B1
:1032BC00114B9B5C002B09D0039B04339DF807201A
:1032CC0002991846FFF7DAFB05900FE0039B1B7879
:1032DC001A46094B9B5C002B08D1039B0C339DF8C1
:1032EC00072002991846FEF7B1FD0590059B18467C
:1032FC0007B05DF804FB00BF2C1C002084B00190CB
:10330C00019B9B680393019BDA68039BD31A1846B5
:10331C0004B0704700B587B001900091019B1B78F9
:10332C00022B45D0022B6ADC002B52D0012B66D12C
:10333C00019B1B7A002B05D1012233493348FFF73F
:10334C00ABFF5DE0019B5B681B7819463048FFF7CB
:10335C0012FF0590059B002B0AD001238DF80C3031
:10336C00059B04932B4B1B6803AA104698470DE052
:10337C002748FFF7C3FF0346002B07D000238DF827
:10338C000C30244B1B6803AA104698472048FFF7C3
:10339C00B5FF03461E4A9288934205D801221A496A
:1033AC001A48FFF779FF2BE01B4B01221A7027E01C
:1033BC0002238DF80C30019BDB6804930122124927
:1033CC001248FFF769FF134B1B6803AA1046984776
:1033DC0016E012491248FFF7E9FE0346002B05D10F
:1033EC0001220E490948FFF7F7FE09E003238DF887
:1033FC000C30084B1B6803AA1046984700E000BF2E
:10340C0000BF07B05DF804FBFC1B0020040000208B
:10341C00001C0020F41B0020FD1B0020F81B0020CA
:10342C00101C002030B591B00390029101928DF8E0
:10343C0003303C4A019B1360029B002B01D10723F4
:10344C006DE0029B1968029B5B689BB21A4636487A
:10345C00FFF765FE0F900F9B0E930E9B002B01D078
:10346C000E9B5CE0029B9968029BDB689BB21A4640
:10347C002E48FFF754FE0F900F9B0D930D9B002BC6
:10348C0001D00D9B4BE02A4B04AC1D460FCD0FC455
:10349C0095E80F0084E80F00039B5B690A93039B7C
:1034AC001B7C002B14BF01230023DBB28DF82430CE
:1034BC009DF803308DF82C30039B5B7C002B01D0E6
:1034CC000E2300E000238DF82530039BDB68069368
:1034DC00039B9B680793039B1B680593039B5B688B
:1034EC00049304AB134A1946134800F05FF90F908C
:1034FC000F9B0C930C9B002B01D00C9B0FE00F4BE4
:10350C0000221A70039B1B68B3F1FF3F06D0012207
:10351C000B490948FFF7C0FE034600E0002318469C
:10352C0011B030BDF41B0020001C0020101C00202A
:10353C008C9800002133000004000020FD1B0020AB
:10354C00FC1B002000B587B00190019B002B03D120
:10355C001449CA2000F0C3F8134B1B788DF81730B0
:10356C0001991248FFF722FE04909DF81730002BAA
:10357C0012D00D4B00221A7001220D490D48FFF795
:10358C008BFE0390039B0293029B002B04D0054AF5
:10359C00D6210298FFF73EFD049B184607B05DF854
:1035AC0004FB00BFAC980000FD1B0020001C002099
:1035BC00FC1B00200400002000B585B003468DF8EC
:1035CC0007309DF8073019461048FFF7D4FD0390DB
:1035DC00039B002B15D10E48FFF730FE034683F0FA
:1035EC000103DBB2002B0CD00A490848FFF7DEFDC3
:1035FC000346002B05D1012206490548FFF7ECFDD7
:10360C000390039B184605B05DF804FB101C0020CA
:10361C0004000020F81B002072B600BF034B1B688F
:10362C000133024A136000BF704700BF201C00200A
:10363C00064B1B68013B054A1360044B1B68002BAF
:10364C0001D162B600BF00BF704700BF201C002034
:10365C0000B583B0019000F025F80346012B03D090
:10366C000449432000F03BF8FFF7D6FF00BF03B03E
:10367C005DF804FBE498000000B583B003468DF8B8
:10368C00073000F00FF80346012B03D004495120FA
:10369C0000F025F8FFF7CCFF00BF03B05DF804FB8A
:1036AC00E498000084B0EFF305830193019BC3F30E
:1036BC0008030393039B002B0DD1EFF314830093AA
:1036CC00009B0293029B03F00103002B0CBF012310
:1036DC000023DBB200E00123184604B0704700B5AC
:1036EC0085B003460091ADF80630BDF80630ADF854
:1036FC000830009B039302AB1A46002144F20200EF
:10370C00FFF796FC00BF05B05DF804FB00B589B06F
:10371C0001900091009B0793019B1B788DF80C3056
:10372C00019B5B680493019B9B68DBB28DF81430A2
:10373C00019BDB680693074A079B52F82330064926
:10374C00079A51F8221003AA1046984700BF09B0F7
:10375C005DF804FB241C0020281C002000B589B057
:10376C0001900091009B0793019B1B788DF80C3006
:10377C00019B5B680493019B9B68DBB28DF8143052
:10378C00019BDB680693074A079B52F823300649D6
:10379C00079A51F8221003AA1046984700BF09B0A7
:1037AC005DF804FB241C0020281C002030B58FB0D1
:1037BC00039002910192039B1B780C9326490C9B5E
:1037CC00019A41F82320029B1A6924490C9B41F869
:1037DC002320029B5B7F1946214A0C9B13440A460B
:1037EC001A70029B04AC1D460FCD0FC495E80F0058
:1037FC0084E80F000C9B089300230D93039B1B780C
:10380C001A46174B9B5C002B0DD0039B181D019B7C
:10381C00002B01D0134A00E0002204AB1946FEF73E
:10382C00F1FF0D9014E0039B1B781A460C4B9B5C2C
:10383C00002B0DD1039B03F10C00019B002B01D03D
:10384C00094A00E0002204AB1946FEF76BF90D9013
:10385C000D9B18460FB030BD241C0020281C0020E6
:10386C002C1C0020193700006937000082B0019031
:10387C00019B002B07D0019BDB7803F0F003E02BBE
:10388C0001D1012300E0002303F00103DBB2184651
:10389C0002B0704782B001900091019B054A1A60FA
:1038AC00019B054A5A60019B009A9A6000BF02B0C6
:1038BC00704700BF44990000E545000000B58FB08B
:1038CC0003900291019205F05FFA924BDB7C03F0BE
:1038DC000103002B0DD18F4BDB7C43F00103DAB2DB
:1038EC008C4BDA7405F062FA8B498C4803F084FD3A
:1038FC0001E005F05BFA039B5B680D9305F044FA5D
:10390C00039B1B68002B07D0039B9B68002B03D0E9
:10391C000D9B824A934203D0C8218148FCF788FE54
:10392C0005F044FA039B9B68029903989847034659
:10393C008DF82B3005F028FA9DF82B30082B03D08E
:10394C00D2217748FCF774FE764B1B7803F0080302
:10395C00002B1FD0019BDB08724A13441B7C1A46B8
:10396C00019B03F0070322FA03F303F00103002B7E
:10397C0010D0032002F028FE039803F033FA0D9BBD
:10398C00184603F0A3F9039B9B68184603F09EF9B5
:10399C0002F0BCFE05F00AFA06230C9300230B93ED
:1039AC00039B9B680493039B9B685F490398984710
:1039BC000FE00B9B01330B93039B9A680B9B9B00B3
:1039CC0038336B4443F8282C039B9B685649039867
:1039DC009847039B9B680D9A9A4202D00B9B042B31
:1039EC00E7DD05F0D1F9039B9B680D9A9A4203D051
:1039FC00DC214B48FCF71CFE05F0D8F9049A039B1C
:103A0C009A600B9B9B0038336B4453F8283C474916
:103A1C00039898470346032B29D105F0B5F9414B80
:103A2C001B7803F00203002B1FD0019BDB083D4ADF
:103A3C0013441B7C1A46019B03F0070322FA03F381
:103A4C0003F00103002B10D0012002F0BDFD039800
:103A5C0003F0C8F90B9B9B0038336B4453F8283C9C
:103A6C00184603F033F902F051FE05F09FF90B9B59
:103A7C00013B0B930B9B002BC3DA049B0D930D9B0B
:103A8C002B490398984703468DF82B309DF82B3023
:103A9C00082B29D105F078F9224B1B7803F0080389
:103AAC00002B1FD0019BDB081E4A13441B7C1A46BB
:103ABC00019B03F0070322FA03F303F00103002B2D
:103ACC0010D0032002F080FD039803F08BF90D9BBE
:103ADC00184603F0FBF8039B9B68184603F0F6F8B6
:103AEC0002F014FE05F062F90C9B013B0C939DF85F
:103AFC002B30082B03D10C9B002B3FF74FAF05F05D
:103B0C0043F90C9B002B15DC4FF491710448FCF726
:103B1C008FFD00BF301D002038990000E5450000E6
:103B2C0020990000101D0020289900002C990000FD
:103B3C00349900001A4B1B7803F01003002B20D093
:103B4C00019BDB08164A13441B7C1A46019B03F0AD
:103B5C00070322FA03F303F00103002B11D0042016
:103B6C0002F032FDFCF7AAFF0346184603F0AEF84C
:103B7C00039803F037F90D9B184603F0A7F802F0F1
:103B8C00C5FD05F013F9039B0D9A5A60039B5B6806
:103B9C00DA43039B9A6000BF0FB05DF804FB00BFD3
:103BAC00101D002000B591B0039002910192039B6F
:103BBC005B680B930B9B0F9305F0E6F80B9B002BAC
:103BCC0006D0039B5A68039B9B68DB439A4204D044
:103BDC004FF496719048FCF72BFD0298FFF746FEC8
:103BEC000346002B04D14FF497718B48FCF720FD52
:103BFC008A4B5B7803F00103002B25D0019BDB087B
:103C0C00864A13441B7C1A46019B03F0070322FAD5
:103C1C0003F303F00103002B16D0082002F0D4FCB0
:103C2C00FCF74CFF0346184603F050F8029B1B8828
:103C3C00184602F061FF039803F0D4F80B9B18466A
:103C4C0003F044F802F062FD05F0B0F8039B0B9A08
:103C5C009A6006230D93039B9B680B930B9B029915
:103C6C000398984703468DF83B309DF83B30022B68
:103C7C0030D105F089F8694B5B7803F00203002B17
:103C8C001FD0019BDB08654A13441B7C1A46019B21
:103C9C0003F0070322FA03F303F00103002B10D007
:103CAC00092002F091FC029B1B88184602F024FFAD
:103CBC00039803F097F80B9B184603F007F802F0F3
:103CCC0025FD05F073F80B9B55490398984703465F
:103CDC008DF83B300D9B013B0D939DF83B30002B39
:103CEC0002D10D9B002BB6DC05F04EF80D9B002B82
:103CFC0004DC4FF49B714848FCF79AFC05F056F82D
:103D0C009DF83B30072B40F2AA81039B9B680593DF
:103D1C000F9B06930B9B079306230D9335E00F9B8C
:103D2C004049039898470346032B28D105F02CF8FB
:103D3C003A4B1B7803F00403002B1AD0019BDB08D1
:103D4C00364A13441B7C1A46019B03F0070322FAE4
:103D5C0003F303F00103002B0BD0022002F034FC20
:103D6C00039803F03FF80F9B184602F0AFFF02F0E8
:103D7C00CDFC05F01BF80F9B2949039898470D9B28
:103D8C00013B0D93039B9B680F930F9A0B9B9A42DD
:103D9C0002D00D9B002BC2DC04F0F6FF0D9B002B18
:103DAC0004DC4FF4A0711C48FCF742FC04F0FEFF4D
:103DBC0005AB019A1946039800F02EFA0C909DF869
:103DCC003B300B2B69D104F0DFFF144B9B795BB2BA
:103DDC00002B1EDA019BDB08104A13441B7C1A468D
:103DEC00019B03F0070322FA03F303F00103002BFA
:103DFC000FD0372002F0E8FB039802F0F3FF0F9B83
:103E0C00184602F063FF059B184602F05FFF02F0B4
:103E1C007DFC04F0CBFF40E020990000101D002039
:103E2C0028990000309900000C9B9B0040336B4498
:103E3C0053F82C3CA449039898470346032B29D1EB
:103E4C0004F0A2FFA14B1B7803F00203002B1FD040
:103E5C00019BDB089D4A13441B7C1A46019B03F013
:103E6C00070322FA03F303F00103002B10D0012007
:103E7C0002F0AAFB039802F0B5FF0C9B9B004033A9
:103E8C006B4453F82C3C184602F020FF02F03EFC29
:103E9C0004F08CFF0C9B013B0C930C9B002BC3DAA6
:103EAC00059B0F93039B0F9A9A609BE004F06CFFA9
:103EBC00864B1B7803F00803002B1FD0019BDB08FB
:103ECC00824A13441B7C1A46019B03F0070322FA17
:103EDC0003F303F00103002B10D0032002F074FB5A
:103EEC00039802F07FFF0F9B184602F0EFFE039B36
:103EFC009B68184602F0EAFE02F008FC04F056FF3C
:103F0C0000230C93039B9B680593039B9B68704950
:103F1C00039898470FE00C9B01330C93039B9A6812
:103F2C000C9B9B0040336B4443F82C2C039B9B68ED
:103F3C00674903989847039B9B680F9A9A4202D053
:103F4C000C9B042BE7DD04F01FFF039B9B680F9A6F
:103F5C009A4204D04FF4A5715E48FCF769FB04F05B
:103F6C0025FF059A039B9A600C9B9B0040336B4486
:103F7C0053F82C3C5449039898470346032B29D1FA
:103F8C0004F002FF514B1B7803F00203002B1FD0EF
:103F9C00019BDB084D4A13441B7C1A46019B03F022
:103FAC00070322FA03F303F00103002B10D00120C6
:103FBC0002F00AFB039802F015FF0C9B9B004033A8
:103FCC006B4453F82C3C184602F080FE02F09EFB2A
:103FDC0004F0ECFE0C9B013B0C930C9B002BC3DA06
:103FEC00059B0F930F9B3C49039898470346082B5E
:103FFC003FF45CAF04F0C8FE344B1B7803F0400375
:10400C00002B29D0019BDB08304A13441B7C1A4639
:10401C00019B03F0070322FA03F303F00103002BC7
:10402C001AD0062002F0D0FAFCF748FD03461846D9
:10403C0002F04CFE029B1B88184602F05DFD0398B3
:10404C0002F0D0FE0B9B184602F040FE0F9B184668
:10405C0002F03CFE02F05AFB04F0A8FE6EE09DF864
:10406C003B30032B3AD104F08FFE184B1B7803F036
:10407C002003002B25D0019BDB08144A13441B7C26
:10408C001A46019B03F0070322FA03F303F0010322
:10409C00002B16D0052002F097FAFCF70FFD034613
:1040AC00184602F013FE029B1B88184602F024FDF2
:1040BC00039802F097FE0B9B184602F007FE02F0E5
:1040CC0025FB04F073FE39E02C990000101D002034
:1040DC0028990000209900003499000004F054FE47
:1040EC001C4B1B785BB2002B26DA019BDB08194AB0
:1040FC0013441B7C1A46019B03F0070322FA03F3BB
:10410C0003F00103002B17D0072002F05DFAFCF737
:10411C00D5FC0346184602F0D9FD029B1B881846B5
:10412C0002F0EAFC039802F05DFE039B5B68184604
:10413C0002F0CCFD02F0EAFA04F038FE039B0F9A71
:10414C005A60039B5B68DA43039B9A6000BF11B013
:10415C005DF804FB101D002082B00190019B5B6890
:10416C00184602B07047000000B587B0019000916E
:10417C0004F00AFE019B5A68019B9B68DB439A4240
:10418C0004D040F25A212248FCF752FA04F00EFEF9
:10419C0000238DF81730019B5B680493072303936E
:1041AC0000238DF80B3014E0049A009B9A4203D143
:1041BC0001238DF8173013E0049B1649019898479A
:1041CC0003468DF80B30019B9B680493039B013BCA
:1041DC0003939DF80B30042B02D0039B002BE3DCE4
:1041EC0004F0D2FD039B002B04DC40F2B221084802
:1041FC00FCF71EFA04F0DAFD019B5B68DA43019BC5
:10420C009A609DF81730184607B05DF804FB00BFA4
:10421C00209900002899000000B58BB00390029102
:10422C0001924FF0FF330993029B1B680893029B8A
:10423C009B680493049A089B9A422ED1049B9C4938
:10424C00039898470346032B24D104F09DFD994B0A
:10425C001B7803F00403002B1AD0019BDB08954A52
:10426C0013441B7C1A46019B03F0070322FA03F349
:10427C0003F00103002B0BD0022002F0A5F90398E8
:10428C0002F0B0FD049B184602F020FD02F03EFA4D
:10429C0004F08CFD0023099384E1089B8649039864
:1042AC009847039B9B680893049A089B9A4202D1F7
:1042BC000023099376E1049B7F4903989847039B5D
:1042CC009B68089A9A422ED1049B79490398984787
:1042DC000346032B24D104F057FD764B1B7803F0D7
:1042EC000403002B1AD0019BDB08724A13441B7C7D
:1042FC001A46019B03F0070322FA03F303F00103B0
:10430C00002B0BD0022002F05FF9039802F06AFD3B
:10431C00049B184602F0DAFC02F0F8F904F046FDB2
:10432C00002309933EE1039B9A68029B1B689A4207
:10433C002DD1049B5E49039898470346032B40F00C
:10434C00318104F021FD5B4B1B7803F00403002B3F
:10435C001AD0019BDB08574A13441B7C1A46019B5D
:10436C0003F0070322FA03F303F00103002B0BD035
:10437C00022002F029F9039802F034FD049B184640
:10438C0002F0A4FC02F0C2F904F010FD0AE10023D3
:10439C00079301230993029B0433089A1A60039B29
:1043AC009B680893029B04331B6843490398984706
:1043BC0003468DF81B301FE0099B01330993099BC1
:1043CC009B00029A1344039A92681A60039B9B68A1
:1043DC00049A9A4208D101230793099B013B099344
:1043EC0003238DF81B3007E0039B9B68324903982D
:1043FC00984703468DF81B309DF81B30002B02D1DB
:10440C00099B042BD8DD04F0BFFC9DF81B30002B5E
:10441C0004D14FF4FF712948FCF70AF904F0C6FCEB
:10442C00079B002B40F0BE80049B214903989847C2
:10443C000346032B24D104F0A7FC1E4B1B7803F07E
:10444C000403002B1AD0019BDB081A4A13441B7C73
:10445C001A46019B03F0070322FA03F303F001034E
:10446C00002B0BD0022002F0AFF8039802F0BAFC3C
:10447C00049B184602F02AFC02F048F904F096FC62
:10448C00099B079304238DF81B30079B9B00029A12
:10449C0013441B68089A9A4212D103238DF81B30DF
:1044AC00079B013B09934FF0FF3307930BE000BFD1
:1044BC0030990000101D0020289900002099000060
:1044CC00079B013B0793079B002BDEDA9DF81B3003
:1044DC00032B67D004238DF81B3006230593089B10
:1044EC003949039898470346032B28D104F04CFC18
:1044FC00364B1B7803F00403002B1AD0019BDB080E
:10450C00324A13441B7C1A46019B03F0070322FA20
:10451C0003F303F00103002B0BD0022002F054F83C
:10452C00039802F05FFC089B184602F0CFFB02F0E8
:10453C00EDF804F03BFC089B254903989847039B36
:10454C009B680893099B0793079B9B00029A134453
:10455C001B68089A9A4209D1079B013B09934FF0BB
:10456C00FF33079303238DF81B3002E0079B013BBD
:10457C000793079B002BE7DA059B013B05939DF8FE
:10458C001B30032B02D0059B002BA8DC04F0FCFB9A
:10459C00059B002B04DC40F212210E48FCF748F876
:1045AC0004F004FC04F0F0FB099B052B04DD40F245
:1045BC004E210848FCF73CF804F0F8FB099B184620
:1045CC000BB05DF804FB00BF30990000101D0020FB
:1045DC00289900002099000082B0019000910423DA
:1045EC00184602B0704784B001900091019B039370
:1045FC00009B029308E0039B00221A70039B01337B
:10460C000393029B013B0293029B002BF3D100BF4F
:10461C0000BF04B0704782B00190019B002B07D003
:10462C00019BDB7803F0F003E02B01D1012300E0C8
:10463C00002303F00103DBB2184602B0704782B0CE
:10464C000190019BDB7803F00F03184602B0704712
:10465C0082B001900091019B1A68009B013B0121E3
:10466C0001FA03F31A43019B1A6000BF02B07047B2
:10467C0082B001900091019B1B68DA43009B1A6089
:10468C0000BF02B0704782B00190019B9B78DBB2F7
:10469C000133DAB2019B9A7000BF02B07047000080
:1046AC0000B587B0039002910192009304F06CFB6B
:1046BC00039B93F82430DB438DF816300298FFF7F8
:1046CC00AAFF0346002B05D0039B1B7B9DF81620ED
:1046DC009A4203D066218748FBF7AAFF039BDB7F36
:1046EC008DF81530019B4FF6FF7293420ED19DF859
:1046FC001530002B03D001238DF8173013E0002365
:10470C008DF81730BE217B48FBF792FF019BDBB283
:10471C009DF815209A4203D901238DF8173002E039
:10472C0000238DF817300298FFF789FF0346002B02
:10473C0002D00298FFF7A7FF9DF81730002B00F06E
:10474C0089809DF81530013B8DF81530039B9DF841
:10475C001520DA77039B93F820309DF815209A42A8
:10476C0004D2039B9DF8152083F82020624B5B78C4
:10477C0003F04003002B3FD0039B1B7BDB08DBB219
:10478C001A465D4B13441B7C1A46039B1B7B03F0A0
:10479C00070322FA03F303F00103002B2CD00E20A5
:1047AC0001F012FFFCF78AF90346184602F08EFA64
:1047BC00009802F017FB029B1B88184602F09CF92C
:1047CC00039802F00FFB0298FFF739FF0346DAB2A9
:1047DC00029B9B78DBB21946104602F0B1F89DF8AB
:1047EC001530184602F02CF8039B93F8203018462D
:1047FC0002F026F801F08AFF039B5B69002B0DD1B8
:10480C00039B029A5A61039B1B7B19463B48FFF79B
:10481C001FFF3B493948FFF72BFF18E0039B9A69B0
:10482C00039B5B7FDBB29B001344029A1A60039BD1
:10483C005B7FDBB2002B03D1039B1A7F039B5A7760
:10484C00039B5B7FDBB2013BDAB2039B5A7704F02C
:10485C00ADFA49E0284B5B7903F02003002B3ED0E6
:10486C00039B1B7BDB08DBB21A46234B13441B7CDC
:10487C001A46039B1B7B03F0070322FA03F303F096
:10488C000103002B2BD02D2001F09EFEFCF716F916
:10489C000346184602F01AFA009802F0A3FA029B9B
:1048AC001B88184602F028F9039802F09BFA02982C
:1048BC00FFF7C5FE0346DAB2029B9B78DBB21946C2
:1048CC00104602F03DF89DF81530184601F0B8FF7F
:1048DC00019BDBB2184601F0B3FF01F017FF04F0A7
:1048EC0065FA029800F042FA9DF81730184607B0A6
:1048FC005DF804FB54990000101D00208C1D002055
:10490C00941D002000B585B0019004F03DFA019B88
:10491C005B69002B04D14FF49B715E48FBF788FE5A
:10492C00019B5B690393019BDB7FDBB201338DF849
:10493C000B30019B9DF80B20DA77019B1B7F9DF8B8
:10494C000B209A4257D8019B9A69019B9B7FDBB243
:10495C009B0013441A68019B5A61019B9B7FDBB23D
:10496C00002B03D1019B1A7F019B9A77019B9B7FA4
:10497C00DBB2013BDAB2019B9A77474B9B7803F091
:10498C000103002B7ED0019B1B7BDB08DBB21A469C
:10499C00414B13441B7C1A46019B1B7B03F0070302
:1049AC0022FA03F303F00103002B6BD0102001F06B
:1049BC000BFEFCF783F80346184602F087F9039BBD
:1049CC001B88184602F098F8019802F00BFA03982D
:1049DC00FFF735FE0346DAB2039B9B78DBB2194630
:1049EC00104601F0ADFF9DF80B30184601F028FF82
:1049FC0001F08CFE46E0019B00225A619DF80B20D1
:104A0C00019B1B7F01339A4204D04FF49B712148C8
:104A1C00FBF70EFE204B9B7803F00203002B31D0EA
:104A2C00019B1B7BDB08DBB21A461B4B13441B7C24
:104A3C001A46019B1B7B03F0070322FA03F303F0D6
:104A4C000103002B1ED0112001F0BEFDFCF736F83F
:104A5C000346184602F03AF9039B1B88184602F0ED
:104A6C004BF8019802F0BEF90398FFF7E8FD0346F6
:104A7C00DAB2039B9B78DBB21946104601F060FF5B
:104A8C0001F044FE04F092F9039B184605B05DF862
:104A9C0004FB00BF54990000101D002082B001904F
:104AAC00019B002B07D0019BDB7803F0F003E02B7C
:104ABC0001D1012300E0002303F00103DBB218460F
:104ACC0002B0704782B00190019BDB7803F00F03BA
:104ADC00184602B0704782B00190019B9B78DBB204
:104AEC00013BDAB2019B9A7000BF02B07047000024
:104AFC0000B589B0039002910192274BDB6B0793B1
:104B0C0004F042F9079B022B03D9C8212348FBF779
:104B1C008FFD079B002B11D0079B5A1E1E49134675
:104B2C009B0013449B000B440C331B881A46019BBF
:104B3C00934203D8C9211948FBF77AFD079B01332F
:104B4C00154AD36304F032F9079A13469B001344B9
:104B5C009B00114A9818019B029A039900F0B2F934
:104B6C000F4A04AB07CA03C31A70079BDBB231337D
:104B7C00DBB28DF81730079A13469B0013449B0049
:104B8C00054A134404AA1146184602F02AFB00BF3A
:104B9C0009B05DF804FB00BFB41C00205C99000058
:104BAC006499000000B583B004F0EEF8094BDB6BA0
:104BBC005A1E084913469B0013449B000B440C33AC
:104BCC001B88019304F0F2F8019B184603B05DF8C2
:104BDC0004FB00BFB41C002000B587B00390029109
:104BEC00019204F0D1F8002305930FE05C49059A7B
:104BFC0013469B0013449B000B440C331B881A4632
:104C0C00039B934208D9059B01330593544BDB6BF3
:104C1C00059A9A42EAD300E000BF514BDB6B059A30
:104C2C009A4204D34FF496714E48FBF701FD059B55
:104C3C000133059304F0BAF8059B5A1E13469B00EA
:104C4C0013449B00464A9818029B4FF6FF729342FE
:104C5C0001D0029B00E00023059A4032194600F077
:104C6C00B5F90490049B002B3DD0019B9AB2049B98
:104C7C001A80049B00229A70059BDBB263F01F0321
:104C8C00DAB2049BDA7004F07FF8374BDB7803F070
:104C9C001003002B24D0059B4033DB08324A13440D
:104CAC001B7C1A46059B03F0070322FA03F303F05F
:104CBC000103002B14D01C2001F086FCFBF7FEFE38
:104CCC000346184602F002F8039B9BB2184601F00B
:104CDC0013FF019B9BB2184601F00EFF01F016FD6D
:104CEC0004F064F837E004F04FF8029B4FF6FF72C3
:104CFC00934204D14FF4A0711A48FBF799FC1A4B5C
:104D0C009B785BB2002B24DA059B4033DB08164AF8
:104D1C0013441B7C1A46059B03F0070322FA03F38A
:104D2C0003F00103002B14D0172001F04DFCFBF70E
:104D3C00C5FE0346184601F0C9FF039B9BB21846FB
:104D4C0001F0DAFE019B9BB2184601F0D5FE01F092
:104D5C00DDFC04F02BF8049B184607B05DF804FB4F
:104D6C00B41C00205C990000101D002000B585B01B
:104D7C00019004F009F80198FFF790FE0346002B10
:104D8C0004D14FF4C9714C48FBF752FC0198FFF762
:104D9C0099FE0390039B002B00F08780019B9B786E
:104DAC00DBB2012B34D9454BDB7803F02003002B0D
:104DBC0028D0039B4033DB08404A13441B7C1A4623
:104DCC00039B03F0070322FA03F303F00103002B08
:104DDC0018D01D2001F0F8FBFBF770FE03461846B7
:104DEC0001F074FF019B1B88184601F085FE039BA4
:104DFC00DAB2019B9B78DBB21946104601F0A0FD9C
:104E0C0001F084FC0198FFF766FE03F0CFFF4EE043
:104E1C002A4BDB7803F04003002B28D0039B403354
:104E2C00DB08264A13441B7C1A46039B03F007033A
:104E3C0022FA03F303F00103002B18D01E2001F01B
:104E4C00C3FBFBF73BFE0346184601F03FFF019BFB
:104E5C001B88184601F050FE039BDAB2019B9B782D
:104E6C00DBB21946104601F06BFD01F04FFC144B00
:104E7C00DB6B039A9A4202D8039B032B04D94FF4A1
:104E8C00CD710D48FBF7D4FB03F090FF039B5A1E2A
:104E9C0013469B0013449B00094A9818039B40330C
:104EAC001A46019900F058F901E003F07FFF00BFAA
:104EBC0005B05DF804FB00BF5C990000101D0020DC
:104ECC00B41C002000B589B00390029101920093AC
:104EDC0003F05AFF029B002B06D0019B072B03D932
:104EEC00009B13F1090F03D964213748FBF7A0FB92
:104EFC00039B029A9A60039B08229A8101230793D1
:104F0C0008E0039B9B8908339AB2039B9A81079B09
:104F1C0001330793039B9A89009B9BB29A42F0D36F
:104F2C00039B9B891A46019B934203D26E21264810
:104F3C00FBF77EFB039B9B680693039B0122DA81A4
:104F4C00039B9B891A46019B9B1A059319E0079BAF
:104F5C00DB00069A1A44069B1A60069B1B68DA4310
:104F6C00069B5A60069B1B680693039BDB890133E7
:104F7C009AB2039BDA81039B9B891A46059B9B1A69
:104F8C000593039B9B891A46059B9342DFD2069B94
:104F9C0000221A60069B1B68DA43069B5A60039B2F
:104FAC00DA89039B1A82039BDA89039B5A82039B3F
:104FBC00029A1A60039B069A5A6003F0F7FE00BF30
:104FCC0009B05DF804FB00BF7099000000B587B014
:104FDC0003900291019203F0D7FE039B1B8A9AB2B5
:104FEC00029B9BB29A427DD9039B9B680593059BC0
:104FFC00002B04D14FF496715548FBF719FB059B18
:10500C001B680493059B5B68DA43049B9A4204D0AB
:10501C004FF497714E48FBF70BFB039B1B8A9BB21B
:10502C00013B9AB2039B1A82039B1B8A9BB2002BF7
:10503C000BD1049B002B04D04FF4A0714448FBF718
:10504C00F7FA039B00225A821AE0039B1B68049A0E
:10505C009A4204D3039B5B68049A9A4204D94FF496
:10506C00A5713B48FBF7E4FA039B5A8A039B1B8A06
:10507C009BB29A4204D9039B1B8A9AB2039B5A8215
:10508C00039B049A9A60334BDB7803F00103002BEB
:10509C0057D0019BDB082F4A13441B7C1A46019BFB
:1050AC0003F0070322FA03F303F00103002B48D0AB
:1050BC00182001F089FAFBF701FD0346184601F0B0
:1050CC0005FE039801F08EFE039B1B8A9BB21846CB
:1050DC0001F012FD039B5B8A184601F00DFD01F0F7
:1050EC0015FB2EE0002305931A4B5B795BB2002B6A
:1050FC0027DA019BDB08174A13441B7C1A46019BD9
:10510C0003F0070322FA03F303F00103002B18D07A
:10511C002F2001F059FAFBF7D1FC0346184601F099
:10512C00D5FD039801F05EFE039B1B8A9BB21846CB
:10513C0001F0E2FC029B9BB2184601F0DDFC01F091
:10514C00E5FA03F033FE059B184607B05DF804FB47
:10515C0070990000101D002000B587B003900291DB
:10516C000192029B059303F00FFE039B1B8A9AB2DC
:10517C00039BDB899A4209D2039B1B68059A9A42CE
:10518C0004D3039B5B68059A9A4203D9C821224831
:10519C00FBF74EFA039B9A68059B1A60059B1B68EC
:1051AC00DA43059B5A60039B029A9A60039B1B8A05
:1051BC009BB201339AB2039B1A82184BDB7803F033
:1051CC000203002B22D0019BDB08144A13441B7CE6
:1051DC001A46019B03F0070322FA03F303F00103C1
:1051EC00002B13D0192001F0EFF9FBF767FC0346F5
:1051FC00184601F06BFD039801F0F4FD039B1B8A2C
:10520C009BB2184601F078FC01F080FA03F0CEFD59
:10521C0000BF07B05DF804FB70990000101D002062
:10522C0082B00190019BDB7803F00F03184602B0AB
:10523C00704782B00190019B00221A6000BF02B03F
:10524C00704782B00190019B1B68002B14BF012397
:10525C000023DBB2184602B0704782B00190009177
:10526C00019B1A68009B013B012101FA03F31A43CD
:10527C00019B1A6000BF02B0704782B00190009190
:10528C00019B1A68009B013B012101FA03F3DB43EC
:10529C001A40019B1A6000BF02B0704782B00190A7
:1052AC00019B1B68B3FA83F3C3F12003184602B0C9
:1052BC00704782B001900091019B1B68DA43009B00
:1052CC001A6000BF02B0704782B001900091019B40
:1052DC001A68009B1B68DB439A420CBF0123002316
:1052EC00DBB2184602B0704782B00190019B9B78EC
:1052FC00DBB20133DAB2019B9A7000BF02B0704787
:10530C0000B585B001900091144A019B1360144ABA
:10531C00009B13600023039316E0039BDB00019AB0
:10532C0013441846FFF785FF039BDB00019A1344D7
:10533C001846039BDB00019A134404331946FFF70C
:10534C00B8FF039B01330393039A009B9A42E4DB5F
:10535C0000BF00BF05B05DF804FB00BFF41C0020CB
:10536C00F81C002000B58BB0039002910192039BB6
:10537C001B88ADF81A3003F007FD674B1B689BB216
:10538C00BDF81A209A4203D3C8216448FBF750F9A0
:10539C00634B1A68BDF81A30DB0013441846604B97
:1053AC001A68BDF81A30DB00134404331946FFF7B2
:1053BC008BFF0346002B03D1CA215848FBF738F961
:1053CC00584BDB7803F00403002B2DD0019BDB083A
:1053DC00544A13441B7C1A46019B03F0070322FA20
:1053EC0003F303F00103002B1ED01A2001F0ECF89C
:1053FC00FBF764FB0346184601F068FC029801F0C9
:10540C00F1FCBDF81A30184601F076FB0398FFF753
:10541C0007FF0346DAB2039B9B78DBB219461046B2
:10542C0001F08EFA01F072F90398FFF7F9FE0346CA
:10543C00002B02D00398FFF757FF394B1A68BDF8C1
:10544C001A30DB0013441B68059303F0AFFC05AB6B
:10545C001846FFF7F6FE0346002B56D005AB184650
:10546C00FFF71CFF099003F08FFC2F4A099B52F8A1
:10547C0023300893089B002B03D1D2212748FBF73C
:10548C00D7F803F093FC21230793079B013B079369
:10549C00029B4FF6FF7203990898FFF701F905ABD1
:1054AC0009991846FFF7E9FE05AB1846FFF7C9FE48
:1054BC000346002B15D005AB1846FFF7EFFE0990FD
:1054CC0003F062FC184A099B52F823300893089B9E
:1054DC00002B03D1DC211148FBF7AAF803F066FC82
:1054EC0001E000230993099B002B02D0079B002BA2
:1054FC00CBD103F049FC099B002B04D04FF49171E4
:10550C000648FBF795F803F051FC0398FFF72EFCC7
:10551C0000BF0BB05DF804FBF81C0020789900006C
:10552C00F41C0020101D0020301C002000B585B09C
:10553C0001900091019B1B7B039303F025FC009BC6
:10554C00032B11DD394B1B68009A9A420CDA039B32
:10555C00002B09D0039B202B06D8354A039B52F80D
:10556C002330019A9A4204D04FF496713148FBF7DC
:10557C005FF8314B1A68009BDB00134418462E4B26
:10558C001A68009BDB00134404331946FFF79CFE9A
:10559C000346002B04D14FF497712648FBF748F8CB
:1055AC00264B5B7803F01003002B21D0039BDB0808
:1055BC00224A13441B7C1A46039B03F0070322FA6E
:1055CC0003F303F00103002B12D00C2000F0FCFFBE
:1055DC00FBF774FA0346184601F078FB009B9BB26C
:1055EC00184601F089FA019801F0FCFB01F08EF8E5
:1055FC00114B1A68009BDB00134403991846FFF704
:10560C002CFE0D4B1A68009BDB00134418460A4B0A
:10561C001A68009BDB00134404331946FFF749FE5C
:10562C0003F0C4FB00BF05B05DF804FBF81C0020C0
:10563C00301C002078990000F41C0020101D002064
:10564C0000B583B00190009128210198FEF7CBFFA3
:10565C0000990198FEF71EF9019B034A1A6000BFDE
:10566C0003B05DF804FB00BF8899000000B585B05D
:10567C00019003F089FB019B5B7B002B03D1019B09
:10568C001A7B019B5A73019B1B7B002B11D0019B36
:10569C001B7B202B0DD8019B1B7B1A46394B53F8D7
:1056AC002230002B05D1019B1A7B019B5B7B9A421C
:1056BC0003D964213448FAF7BBFF019B5B7B8DF85F
:1056CC000F30019B5B7B8DF80E30019B1B7B013BEC
:1056DC00029310E02B4A029B52F82330002B07D088
:1056EC00284A029B52F823305B7B8DF80F3005E083
:1056FC00029B013B0293029B002BEBD1019B1B7B7A
:10570C000133029310E01F4A029B52F82330002B06
:10571C0007D01C4A029B52F823305B7B8DF80E306D
:10572C0005E0029B01330293029B202BEBD9019BDA
:10573C005B7B9DF80F209A4205D8019B5B7B9DF803
:10574C000E209A4203D2BE210F48FAF771FF019B3B
:10575C001B7BDB43DAB2019B83F82420019B5B7B30
:10576C00DB43DAB2019B83F82520019B1B7B194696
:10577C00044A019B42F8213003F018FB00BF05B02E
:10578C005DF804FB301C00208099000084B003906D
:10579C0002910192039B00221A60039B029A5A60A9
:1057AC00019BDAB2039B1A72019B002B05D0039B61
:1057BC0000225A72039B00229A72019BDBB20133C6
:1057CC00DAB2039BDA72039BDB7ADAB2039B1A73AD
:1057DC0000BF04B0704782B00190019B002B07D032
:1057EC00019BDB7803F0F003E02B01D1012300E0F7
:1057FC00002303F00103DBB2184602B0704700002F
:10580C0000B585B0039002910192009303F0BCFAAD
:10581C00019B002B02D0009B002B04D04FF49671FF
:10582C000F48FAF705FF03F0C1FA019B9AB2039BEC
:10583C001A80009BDAB2039B9A70039BE022DA7009
:10584C00039B00225A60039B029A9A60039B0022DE
:10585C00DA60039B00221A6100BF05B05DF804FBFF
:10586C009899000000B589B0039002910192039BB6
:10587C009B78DBB203F00F030793039BDB68069363
:10588C00039B9B681B7B059303F07EFA039B9B6831
:10589C00002B0CD0069B002B09D1029B002B06D0B1
:1058AC00079B002B03D1039B1B88032B04D84FF4BD
:1058BC00C8713248FAF7BCFE039B029ADA60039B6C
:1058CC00019A1A61039B9B78DBB25BB2002B1CDB49
:1058DC00039B9B78DBB263F07F03DAB2039B9A7075
:1058EC002749079A13469B0013449B000B4408332B
:1058FC001A68039B5A602249079A13469B0013446B
:10590C009B000B440833039A1A601E4B1B7903F05F
:10591C000103002B2CD0059BDB081A4A13441B7C7B
:10592C001A46059B03F0070322FA03F303F0010365
:10593C00002B1DD0202000F047FEFBF7BFF80346DC
:10594C00184601F0C3F9039801F04CFA039B9B68CD
:10595C00184601F047FA029801F0B8F9019801F0E5
:10596C00B5F9079BDBB2184600F06AFF00F0CEFEDB
:10597C0003F01CFA00BF09B05DF804FB9899000015
:10598C00FC1C0020101D002000B585B00190019B6F
:10599C009B681B7B029303F0F7F9019BDB68002BE0
:1059AC0049D001238DF80F30019B9B78DBB243F07B
:1059BC004003DAB2019B9A70414B1B7903F0080348
:1059CC00002B34D0029BDB083D4A13441B7C1A4647
:1059DC00029B03F0070322FA03F303F00103002BED
:1059EC0025D0232000F0F0FDFBF768F8034618469D
:1059FC0001F06CF9019801F0F5F9019B9B681846D0
:105A0C0001F0F0F9019BDB68184601F05FF9019B8E
:105A1C001B69184601F05AF9019B9B78DBB203F025
:105A2C000F03DBB2184600F00BFF00F06FFE019B7A
:105A3C000022DA603BE000238DF80F30019B9B784D
:105A4C00DBB223F04003DAB2019B9A701C4B1B793A
:105A5C0003F00403002B2AD0029BDB08184A1344E2
:105A6C001B7C1A46029B03F0070322FA03F303F094
:105A7C000103002B1BD0222000F0A6FDFBF71EF823
:105A8C000346184601F022F9019801F0ABF9019B8D
:105A9C009B68184601F0A6F9019B9B78DBB203F0DA
:105AAC000F03DBB2184600F0CBFE00F02FFE03F024
:105ABC007DF99DF80F30184605B05DF804FB00BF6A
:105ACC00101D002000B587B00190009103F05CF927
