:100000000000012071030000590300005B030000A1
:100010005D0300005F0300006103000000000000BA
:10002000000000000000000000000000630300006A
:100030006503000000000000670300006507000082
:100040006B0300006B0300009D2300006B030000A6
:100050006B0300006B030000D12D00006B03000058
:100060006B0300006B0300006B0300006B030000D8
:100070006B0300006B0300006B0300006B030000C8
:100080006B0300006B0300006B0300006B030000B8
:100090006B0300006B0300006B0300006B030000A8
:1000A0006B0300006B0300006B0300006B03000098
:1000B0006B0300006B030000000000000000000064
:1000C0006B0300006B0300006B0300006B03000078
:1000D0006B0300006B0300006B03000000000000D6
:1000E0000000000000000000000000000000000010
:1000F0000000000000000000000000000000000000
:1001000000000000000000000000000000000000EF
:1001100000000000000000000000000000000000DF
:1001200000000000000000000000000000000000CF
:1001300000000000000000000000000000000000BF
:1001400000000000000000000000000000000000AF
:10015000000000000000000000000000000000009F
:10016000000000000000000000000000000000008F
:10017000000000000000000000000000000000007F
:10018000000000000000000000000000000000006F
:10019000000000000000000000000000000000005F
:1001A000000000000000000000000000000000004F
:1001B000000000000000000000000000000000003F
:1001C000000000000000000000000000000000002F
:1001D000000000000000000000000000000000001F
:1001E000000000000000000000000000000000000F
:1001F00000000000000000000000000000000000FF
:10020000344935480A1A02D0072291438D463349B2
:1002100033480A1A06D00722914381F30988022243
:1002200082F314882F483049304A00F041F83048B2
:100230003049314A00F03CF830483149314A00F049
:1002400037F831483149324A00F032F83148324902
:10025000324A00F02DF832483249334A00F028F88B
:1002600032483349334A00F023F8334833490022F7
:1002700000F029F832483349002200F024F83248CF
:100280003249091A08F034FD314A90471F48204985
:10029000884205D00268043003B4904703BCF7E7F6
:1002A00000208646EC46002000212A4A9047FEE7BF
:1002B000884207D0521A05D0037801300B70013103
:1002C000013AF9D17047884202D002700130FAE752
:1002D000704700000000012000E000200000012025
:1002E00000000120D0910000000000201C00002030
:1002F000CC030000CC030000048D0000D09100006E
:100300000000002000000020048D0000048D00008B
:10031000048D0000048D0000048D0000048D000099
:10032000048D0000048D0000D0910000EC910000CD
:100330001C0000201C0000201C000020701B00205E
:10034000701B0020701B0020701B0020703B0020E1
:1003500099030000330B0000FEE7FEE7FEE7FEE72F
:10036000FEE7FEE7FEE7FEE7FEE7FEE700F002B885
:10037000FFF7FCBF0F484FF00701884385460E4842
:1003800080470E48016841F470010160BFF34F8F50
:10039000BFF36F8FFFF734BF09480A490A4A884202
:1003A00007D0521A05D0037801300B700131013AA1
:1003B000F9D1704700000120BD86000088ED00E003
:0C03C000048D0000000000200000002060
:1003CC0000B583B0054B0193019B0549184605F018
:1003DC00EFF800BF03B05DF804FB00BF1C00002069
:1003EC00F103000000B583B0019000910421019845
:1003FC0005F054F80849094806F01BFC084A00218E
:10040C00042006F0EDFB019B064A9A60082318466F
:10041C0003B05DF804FB00BF088D00001C00002039
:10042C00188D00005904000084B001900091019BCC
:10043C00054A9A6000238DF80F3000BF9DF80F30ED
:10044C00184604B0704700BF1147000000B585B0D6
:10045C0001900091009B1B88012B02D0042B06D02D
:10046C000CE000F08FF903238DF80F300DE0019BA9
:10047C00094A9A6008238DF80F3006E0019B074A61
:10048C009A6000238DF80F3000BF9DF80F3018468E
:10049C0005B05DF804FB00BFAD040000350400009E
:1004AC0000B585B001900091009B1B88012B02D0F8
:1004BC00042B06D00CE000F065F903238DF80F3007
:1004CC000DE0019B094A9A6008238DF80F3006E075
:1004DC00019B074A9A6000238DF80F3000BF9DF8EE
:1004EC000F30184605B05DF804FB00BF590400003E
:1004FC003504000084B003468DF80730144BDB8CB8
:10050C009BB20133ADF80E30114B9B8CBDF80E2015
:10051C009A4202D10023ADF80E300D4B1B8D9BB2CD
:10052C00BDF80E209A420ED0094B1B6A084AD28C99
:10053C0092B213449DF807201A70054ABDF80E308C
:10054C00D384012300E00023184604B0704700BF99
:10055C00181B002084B00190019B03F00703039348
:10056C000B4BDB680293029A4FF6FF031340029386
:10057C00039B1A02029B134343F0BF6343F4003303
:10058C000293034A029BD36000BF04B0704700BFC4
:10059C0000ED00E082B0034600918DF807309DF924
:1005AC000730002B0CDA009BDAB20C499DF80730AF
:1005BC0003F00F03043B5201D2B20B441A7609E04C
:1005CC00009BDAB206499DF907305201D2B20B44B6
:1005DC0083F8002300BF02B0704700BF00ED00E0BD
:1005EC0000E100E0BFF34F8F00BF074BDB6803F463
:1005FC00E0620549054B1343CB60BFF34F8F00BF3F
:10060C0000BF00BFFCE700BF00ED00E00400FA05EE
:10061C0000B583B00190019B013BB3F1807F01D306
:10062C0001230FE0094A019B013B536007214FF066
:10063C00FF30FFF7AFFF054B00229A60034B0722F8
:10064C001A600023184603B05DF804FB10E000E0CC
:10065C0000B583B00190019B1B681F2B04D9054981
:10066C0040F2CD1003F0D1F84FF0A043184603B080
:10067C005DF804FB288D000000B585B0019008469C
:10068C0011461A4603468DF803300B468DF802309E
:10069C0013468DF8013001AB1846FFF7D9FF0390D4
:1006AC009DF803209DF802305B001A439DF8013041
:1006BC009B001A439DF818301B0242EA03019DF877
:1006CC001C301B04019A1943039B02F5E07243F89A
:1006DC00221000BF05B05DF804FB00B585B0039097
:1006EC00002301930023009300230122012103988E
:1006FC00FFF7C2FF00BF05B05DF804FB00B585B085
:10070C00019001AB1846FFF7A3FF0390039BD3F8AE
:10071C0004350293029BDA43019B012101FA03F396
:10072C001A40039BC3F80825019B01229A40029BA7
:10073C001A40039BC3F80C2500BF05B05DF804FB01
:10074C0000B583B00190009142F2107200990198AB
:10075C0006F0B2FAFEE7000008B50749002005F0E4
:10076C0039F8064B1A68064B1B681344034A13608E
:10077C00BFF34F8F00BF08BD4C8E0000440000201B
:10078C004800002008B50B20FFF7B8FF00BF08BDDC
:10079C0000B585B00190019B1B78022B07D1019B02
:1007AC005B68174A9521184602F0CAFC23E0019BAE
:1007BC001B78012B07D1019B5B68114A9C211846C1
:1007CC0002F0BEFC17E0019B1B78002B0CD10DF145
:1007DC000F03184602F04CFF9DF80F301846FFF738
:1007EC0089FEBFF34F8F06E0019B1B78032B02D1D0
:1007FC00044B01221A7000BF05B05DF804FB00BF6A
:10080C00588D00000000002030B58DB0134B04ACA7
:10081C001D460FCD0FC495E8030084E80300104B70
:10082C0000934FF4006301930E4B02934FF400635B
:10083C000393694604A807230B4A02F089FE0B9028
:10084C000B9B0A930A9B002B04D0084AB6210A98EA
:10085C0002F076FC00BF0DB030BD00BFB08D0000C3
:10086C004C0000204C0800209D070000588D000013
:10087C0000B583B001900B468DF8033000231A4667
:10088C000349044804F026FD00BF03B05DF804FBE7
:10089C00508E0000548E000000B585B002F03EF979
:1008AC000390039B0293029B002B04D02B4AC42180
:1008BC00029802F045FC2A4A6B46126811461980D0
:1008CC000233120C1A7003238DF801306B46254A43
:1008DC001946122002F074F90390039B0193019BBB
:1008EC00002B04D01D4AC821019802F029FC0121DB
:1008FC00122002F0DFF90B20FFF7EFFE07F0CEFE1F
:10090C00002000F099F80346002B05D107F05EFE9D
:10091C00D2211548FFF714FFFFF776FF134914484F
:10092C0006F087F91349144806F083F9F12005F015
:10093C00F7F8F22005F0F4F8F32005F0F1F8F420C4
:10094C0005F0EEF8F62005F0EBF86FF01E0005F060
:10095C00E7F800BF05B05DF804FB00BF588D000040
:10096C00F08D00007D080000F48D0000C88D0000A3
:10097C004C8E0000DC8D0000508E000000B585B060
:10098C0005210B4804F074FCFFF71AFD094B18689D
:10099C000023029300230193002300930A23064AA9
:1009AC00022107F0B9FD00BF05B05DF804FB00BFE4
:1009BC004C100020048D00007410002008B5094B69
:1009CC001B68094AA2FB03235B091846FFF720FEAC
:1009DC000020FFF7BFFD02214FF0FF30FFF7DAFDDB
:1009EC0000BF08BD180000201F85EB5100B583B077
:1009FC0007F0DAFD06F060FB0E4B1B78002B14D0D1
:100A0C0007F0C0FD05F052F80346ADF8063007F0CC
:100A1C00CBFDBDF806304FF6FF72934205D0BDF802
:100A2C000630DBB2184602F05DFE00BF03B05DF885
:100A3C0004FB00BF0000002000B583B001904FF410
:100A4C0000610C4804F0FCFF64210B4806F0ECFA42
:100A5C000A4B1B680A4AA2FB03235B09094A136071
:100A6C00084B1B68084A13600123184603B05DF855
:100A7C0004FB00BF9C1000209C18002018000020D4
:100A8C001F85EB51480000204400002000BF704738
:100A9C000A4B1B6803F48033002B05D1084B1A68F2
:100AAC00064B9B68D31A07E0054B1A68054B1B686D
:100ABC001A44024B9B68D31A1846704710E000E0AA
:100ACC00440000204800002000B583B004F0EEFF85
:100ADC000346ADF80630BDF806304FF6FF72934270
:100AEC000AD0084B1B78002BF0D0BDF80630DBB2D7
:100AFC00184602F0F7FDE9E700BF00BF03B05DF850
:100B0C0004FB00BF0000002008B5FFF76BFD00BF21
:100B1C0008BD84B002910192009303468DF80F300A
:100B2C0000BF04B0704708B507F0F4FBFFF7B4FE44
:100B3C00FFF724FF07F02AFC0346184608BD000007
:100B4C0082B003468DF807309DF8073003F01F0282
:100B5C0005499DF907305B09012000FA02F241F8C2
:100B6C00232000BF02B0704700E100E082B00346D2
:100B7C0000918DF807309DF90730002B0CDA009BA3
:100B8C00DAB20C499DF8073003F00F03043B520115
:100B9C00D2B20B441A7609E0009BDAB206499DF9F1
:100BAC0007305201D2B20B4483F8002300BF02B0CD
:100BBC00704700BF00ED00E000E100E082B0019062
:100BCC00019B1B0B5BB2184602B0704700B583B09B
:100BDC0003460A468DF8073013468DF806309DF80B
:100BEC000630072B03D908496B2002F00EFE9DF846
:100BFC0006209DF9073011461846FFF7B7FF00BFD6
:100C0C0003B05DF804FB00BF588E000000B583B044
:100C1C0003468DF807309DF907301846FFF790FF13
:100C2C0000BF03B05DF804FB84B001900B46ADF837
:100C3C000230BDF80230019A134400221A60BDF84C
:100C4C000230019A13441B680393039B00BF04B04A
:100C5C00704782B001900B46ADF80230BDF80230FF
:100C6C00019A13441B68002B14BF01230023DBB231
:100C7C00184602B0704782B001900091019B009A17
:100C8C00C3F8042300BF02B0704782B001900091FA
:100C9C00019BD3F80423009B1340002B14BF0123AA
:100CAC000023DBB2184602B0704782B0019000916D
:100CBC00019B009AC3F8082300BF02B0704784B0B0
:100CCC000190019BD3F880340393019B039AC3F8E2
:100CDC008024039B184604B0704782B00190019B9E
:100CEC000422C3F8002500BF02B0704784B0039003
:100CFC0002910192039B019AC3F81425039B029A5B
:100D0C00C3F80C2500BF04B0704784B00390029167
:100D1C000192039B029AC3F80825039B019AC3F81E
:100D2C00102500BF04B0704782B00190019BD3F82E
:100D3C001835DBB2184602B0704782B001900B46F2
:100D4C008DF803309DF80320019BC3F81C2500BFD0
:100D5C0002B0704782B001900B468DF803309DF8BD
:100D6C000330019A134401221A6000BF02B070478D
:100D7C0082B001900B468DF8033013468DF802308B
:100D8C009DF803209DF802301343DBB21A46019BF9
:100D9C00C3F86C2500BF02B0704782B0019000917F
:100DAC00019B009AC3F8242500BF02B070470000D5
:100DBC0000B583B00190019B1B681F2B04D905491A
:100DCC0040F2CD1002F021FD4FF0A043184603B0C5
:100DDC005DF804FB888E000000B585B001900846D4
:100DEC0011461A4603468DF803300B468DF8023037
:100DFC0013468DF8013001AB1846FFF7D9FF03906D
:100E0C009DF803209DF802305B001A439DF80130D9
:100E1C009B001A439DF818301B0242EA03019DF80F
:100E2C001C301B04019A1943039B02F5E07243F832
:100E3C00221000BF05B05DF804FB00B585B003902F
:100E4C000023019300230093002301220121039826
:100E5C00FFF7C2FF00BF05B05DF804FB00B585B01D
:100E6C0003900B468DF80B309DF80B30002201924D
:100E7C0000220092002200210398FFF7ADFF00BF73
:100E8C0005B05DF804FB00B585B0019001AB1846C8
:100E9C00FFF78EFF0390019B012202FA03F3194620
:100EAC00039800F004F800BF05B05DF804FB82B0B5
:100EBC0001900091019B009AC3F8082500BF02B075
:100ECC00704700B583B001900091009B1B68B3F193
:100EDC00FF3F09D0009B1B681846FFF7D4FF009B0F
:100EEC001B681846FFF7A9FF009B5B68B3F1FF3F37
:100EFC0005D0009B5B6800211846FFF7AFFF019BF4
:100F0C001A68009B9B6919461046FFF746FF019B28
:100F1C001868009B597D009B1B7D1A46FFF728FF24
:100F2C00019B1868009B1968009B5B681A46FFF7C9
:100F3C00DDFE009B1B7D012B22D1009B9B68B3F136
:100F4C00FF3F05D0009B9B6800211846FFF786FFEA
:100F5C00009BDB68B3F1FF3F09D0009BDB681846B0
:100F6C00FFF791FF009BDB681846FFF766FF019BBC
:100F7C001868009BD968009B9B681A46FFF7C5FE52
:100F8C0000BF03B05DF804FB00B583B001900B46C5
:100F9C008DF80330019B1B684FF48E711846FFF7D8
:100FAC0043FE019B1B684FF4A2711846FFF73CFEF1
:100FBC00019B1B680E491846FFF75DFE019B1B68E1
:100FCC001846FFF7FBFD03461A469DF803301946F9
:100FDC001046FFF7FBFD019B1B681846FFF7EEFD63
:100FEC0003461846FFF712FE00BF03B05DF804FB82
:100FFC008000020000B587B0039002910192029B21
:10100C00002B03D12D49AA2002F0FFFB039B1B7977
:10101C001A462C2302FB03F3294A1344059300239D
:10102C000493059B93F82A30002B03D008230493D8
:10103C00049B3EE0039B1A68039B1B791946214BCA
:10104C0053F821301946104601F0C4F90346002B21
:10105C0003D011230493049B2BE002990398FFF710
:10106C0030FF059B019A5A60029B1A69059B1A6016
:10107C00059B5B68002B05D0029B1B7F19460398D0
:10108C00FFF782FF039B1B681846FFF726FE059BA4
:10109C0000229A61059B0022DA61059B002283F8ED
:1010AC002920059B00225A61059B012283F82A20E6
:1010BC00049B184607B05DF804FB00BFB88E000017
:1010CC0000190020F48E000000B585B0019000914D
:1010DC004FF48E710198FFF7A7FD009B9A68009B57
:1010EC001B6A13441B788DF80F30009B1B6A5A1C2B
:1010FC00009B1A629DF80F3019460198FFF71DFEF0
:10110C0000BF05B05DF804FB00B585B001900091FF
:10111C00009B5B69039316E0009B93F82830DBB2CD
:10112C00002B01D0002314E04FF48E710198FFF7CF
:10113C0090FD034683F00103DBB2002BECD1009948
:10114C000198FFF7C1FF009B1B6A039A9A42EBD8E8
:10115C000123184605B05DF804FB000000B587B00C
:10116C00039002910192039B1B791A462C2302FBDC
:10117C0003F33C4A13440493049B93F82A30012B49
:10118C0004D039494FF48C7002F03FFB029B002BCA
:10119C0004D1354940F2191002F037FB019B002BAA
:1011AC0004D131494FF48D7002F02FFB039800F0FD
:1011BC005DF80346002B03D011230593059B4CE0EF
:1011CC00049B019A5A61049B029A9A60049B002228
:1011DC001A62049B002283F8282000230593039BAA
:1011EC001B684FF48E711846FFF71EFD039B1B689E
:1011FC0008211846FFF7AEFD039B1B68049918469F
:10120C00FFF762FF049B5B68002B25D1039B1B68D7
:10121C0004991846FFF778FF034683F00103DBB20D
:10122C00002B02D00F23059313E000BF039B1B6818
:10123C004FF48E711846FFF70CFD034683F0010343
:10124C00DBB2002BF2D1039B1B680C211846FFF775
:10125C0081FD049B00225A61059B184607B05DF87E
:10126C0004FB00BF00190020B88E000082B0019072
:10127C00019B1B791946074A2C2301FB03F31344EA
:10128C0014331B68002B14BF01230023DBB2184658
:10129C0002B070470019002000B583B00190019B8B
:1012AC001B684FF492711846FFF7BEFC019B1B683C
:1012BC004FF484711846FFF7B7FC019B1B680021A3
:1012CC001846FFF747FD00BF03B05DF804FB10B5EF
:1012DC0082B001900091009B9B69002B08D14FF4C8
:1012EC0084710198FFF7A0FC0198FFF71DFD13E036
:1012FC004FF484710198FFF797FC009BDA68009B10
:10130C005B6AD4180198FFF70FFD03462370009B0E
:10131C005B6A5A1C009B5A6202B010BD00B589B0C2
:10132C00039002910192039B1B791A462C2302FB1A
:10133C0003F37F4A13440693039B1B7919467C4A9B
:10134C002C2301FB03F313442A331B78012B04D009
:10135C0078494FF4B67002F058FA029B002B04D176
:10136C00744940F26D1002F050FA019B002B04D12D
:10137C0070494FF4B77002F048FA00238DF81F3013
:10138C00069B5B68002B06D0039B1B684FF4017116
:10139C001846FFF78AFC069B9B69002B15D0069B11
:1013AC00DB69002B0ED0069B5B68002B06D0039BE1
:1013BC001B684FF401711846FFF75DFC1123059370
:1013CC00059BB0E001238DF81F309DF81F3083F092
:1013DC000103DBB2002B0CD0069B019A9A61069B91
:1013EC00029ADA60069B00225A62069B0022DA619E
:1013FC0005E0069B029A1A61069B019ADA61069B2C
:10140C0093F8293083F00103DBB2002B09D09DF84F
:10141C001F3083F00103DBB2002B02D00398FFF7DF
:10142C003BFF069B5B68002B73D1039B1B684FF43F
:10143C00A2711846FFF7F8FB039B1B684FF49271DF
:10144C001846FFF706FC03468DF81330039B1B6808
:10145C004FF484711846FFF7FCFB03468DF81230ED
:10146C00039B1B684FF4A2711846FFF7F2FB03466F
:10147C008DF811309DF8123083F00103DBB2002B94
:10148C000DD09DF8113083F00103DBB2002B06D098
:10149C009DF8133083F00103DBB2002BCCD19DF807
:1014AC001330002B0FD19DF81130002B0BD1039B67
:1014BC001B6806991846FFF70AFF069B9A69069B5C
:1014CC005B6A9A42B8D8069B00229A619DF8133049
:1014DC00002B03D003230593059B24E09DF81130CA
:1014EC00002B03D00F230593059B1CE0069B93F860
:1014FC002930002B06D0039B1B6800211846FFF7F0
:10150C0029FC0DE0039B1B6804211846FFF722FC05
:10151C0006E0039B1B684FF401711846FFF7ABFB09
:10152C0000230593059B184609B05DF804FB00BF2A
:10153C0000190020B88E000000B589B0039002910C
:10154C00019201238DF81030029B0693019B0593A9
:10155C00039B5B68039A116804AA1046984700BF66
:10156C0009B05DF804FB00B587B001900091002331
:10157C008DF80830009B0493019B9B680393019B9F
:10158C0000225A61019B5B68019A116802AA1046FD
:10159C00984700BF07B05DF804FB00B58BB0019015
:1015AC0000914FF400710198FFF76FFB0346002B7D
:1015BC0039D04FF492710198FFF74BFB0346002B87
:1015CC0031D04FF492710198FFF72EFB4FF401715B
:1015DC000198FFF76AFB009B93F8293083F0010315
:1015EC00DBB2002B03D004210198FFF7B3FB0223DD
:1015FC008DF80C300198FFF762FB03460693009BB5
:10160C009B690593009BDB680493009B00229A6105
:10161C00009B0022DA61009B5B68009A116803AAA8
:10162C001046984752E004210198FFF72EFB034621
:10163C00002B4BD04FF484710198FFF70AFB034643
:10164C00002B43D000990198FFF741FE009B9A694B
:10165C00009B5B6A9A4239D1009BDB69002B19D045
:10166C00009BDB680993009B5B6A0893009BDA691B
:10167C00009B9A61009B1A69009BDA60009B002218
:10168C00DA61009B00225A62099A08990098FFF7C8
:10169C0053FF1BE0009B93F8293083F00103DBB26E
:1016AC00002B03D004210198FFF754FB4FF4017178
:1016BC000198FFF7FAFA009B00229A61009B596A85
:1016CC00009BDB681A460098FFF736FF4FF48E71CB
:1016DC000198FFF7BEFA0346002B24D0009B5B69F0
:1016EC000793009B1B6A079A9A420DD9009B93F8AB
:1016FC002830DBB283F00103DBB2002B04D000995D
:10170C000198FFF7E1FC0EE04FF48E710198FFF7A2
:10171C008BFA009B5B69002B05D0009B5B6919461B
:10172C000098FFF720FF4FF4A2710198FFF791FA90
:10173C000346002B1CD04FF4A2710198FFF774FAEA
:10174C00009B93F82930002B03D000210198FFF760
:10175C0001FB009B9B69002B0AD0009B00229A6125
:10176C00009B596A009BDB681A460098FFF7E4FE61
:10177C0000BF0BB05DF804FB08B503490348FFF745
:10178C000CFF00BF08BD00BF001900200020004066
:10179C0082B003468DF807309DF8073003F01F0226
:1017AC0005499DF907305B09012000FA02F241F866
:1017BC00232000BF02B0704700E100E082B0034676
:1017CC0000918DF807309DF90730002B0CDA009B47
:1017DC00DAB20C499DF8073003F00F03043B5201B9
:1017EC00D2B20B441A7609E0009BDAB206499DF995
:1017FC0007305201D2B20B4483F8002300BF02B071
:10180C00704700BF00ED00E000E100E082B0019005
:10181C00019B03F06043B3F1005F0CBF0123002375
:10182C00DBB2184602B0704782B00190019B1B0BD3
:10183C005BB2184602B0704700B583B003460A4647
:10184C008DF8073013468DF806309DF80630072BBF
:10185C0003D908496B2001F0D8FF9DF806209DF9AB
:10186C00073011461846FFF7A9FF00BF03B05DF81B
:10187C0004FB00BFF88E000000B583B003468DF862
:10188C0007309DF907301846FFF782FF00BF03B001
:10189C005DF804FB84B001900B46ADF80230BDF846
:1018AC000230019A134400221A60BDF80230019AEA
:1018BC0013441B680393039B00BF04B0704782B0B2
:1018CC0001900B46ADF80230BDF80230019A13447A
:1018DC001B68002B14BF01230023DBB2184602B097
:1018EC00704782B001900091019BD3F80022009BBD
:1018FC001A43019BC3F8002200BF02B0704782B0AC
:10190C0001900091019BD3F80022009BDB431A400D
:10191C00019BC3F8002200BF02B0704782B0019057
:10192C000091019B009AC3F8042300BF02B07047DA
:10193C0082B001900091019B009AC3F8082300BF6C
:10194C0002B0704784B00190019BD3F880340393AC
:10195C00019B039AC3F88024039B184604B070477C
:10196C0082B00190019B0822C3F8002500BF02B091
:10197C00704784B0039002910192039B029AC3F8C2
:10198C000C25039B019AC3F8142500BF04B07047C3
:10199C0084B0039002910192039B029AC3F808252C
:1019AC00039B019AC3F8102500BF04B0704782B0A6
:1019BC0001900B468DF803309DF80330019A1344C7
:1019CC0001221A6000BF02B0704782B001900B4632
:1019DC008DF8033013468DF802309DF803209DF8E6
:1019EC0002301343DBB21A46019BC3F86C2500BFCF
:1019FC0002B0704782B001900091019B009AC3F82D
:101A0C00242500BF02B0704784B00390029101926C
:101A1C00029A039BC3F84425039B019AC3F84825FB
:101A2C0000BF04B0704782B00190019BD3F84C35D5
:101A3C00184602B0704784B0039002910192029A4A
:101A4C00039BC3F83425039B019AC3F8382500BFC8
:101A5C0004B0704782B00190019BD3F83C35184616
:101A6C0002B0704700B583B00190019B1B681F2B1F
:101A7C0004D9054940F2CD1001F0C7FE4FF0A04348
:101A8C00184603B05DF804FB288F000000B585B044
:101A9C000190084611461A4603468DF803300B4652
:101AAC008DF8023013468DF8013001AB1846FFF764
:101ABC00D9FF03909DF803209DF802305B001A4378
:101ACC009DF801309B001A439DF818301B0242EA26
:101ADC0003019DF81C301B04019A1943039B02F56A
:101AEC00E07243F8221000BF05B05DF804FB00B5AE
:101AFC0085B003900023019300230093002301225F
:101B0C0001210398FFF7C2FF00BF05B05DF804FB8D
:101B1C0000B585B003900B468DF80B309DF80B305B
:101B2C000022019200220092002200210398FFF76C
:101B3C00ADFF00BF05B05DF804FB00B585B00190AA
:101B4C0001AB1846FFF78EFF0390019B012202FAAE
:101B5C0003F31946039800F004F800BF05B05DF8D4
:101B6C0004FB82B001900091019B009AC3F80825F8
:101B7C0000BF02B0704700B583B001900091009B8C
:101B8C001B68B3F1FF3F09D0009B1B681846FFF799
:101B9C00D4FF009B1B681846FFF7A9FF009B5B68EE
:101BAC00B3F1FF3F05D0009B5B6800211846FFF79F
:101BBC00AFFF019B1A68009B9B6919461046FFF703
:101BCC0019FF019B1868009B597D009B1B7D1A46D1
:101BDC00FFF7FBFE019B1868009B1968009B5B6874
:101BEC001A46FFF7C6FE009B1B7D012B22D1009BE2
:101BFC009B68B3F1FF3F05D0009B9B680021184602
:101C0C00FFF786FF009BDB68B3F1FF3F09D0009B19
:101C1C00DB681846FFF791FF009BDB681846FFF75F
:101C2C0066FF019B1868009BD968009B9B681A464D
:101C3C00FFF7AEFE00BF03B05DF804FB00B583B048
:101C4C0001900B468DF80330019B1B684FF4887193
:101C5C001846FFF71FFE019B1B684FF49071184646
:101C6C00FFF718FE019B1B684FF492711846FFF7A3
:101C7C0011FE019B1B684FF4A2711846FFF70AFE78
:101C8C00019B1B684FF4AC711846FFF703FE019BD8
:101C9C001B680F491846FFF741FE019B1B6818464D
:101CAC00FFF7C2FD03461A469DF80330194610464D
:101CBC00FFF7C2FD019B1B681846FFF7B5FD0346F5
:101CCC001846FFF7D9FD00BF03B05DF804FB00BF59
:101CDC001003420000B587B0039002910192029B61
:101CEC00002B03D12B49CF2001F08FFD039B1B79D7
:101CFC001A461346DB0013449B00274A13440593F2
:101D0C0000230493059B93F82030002B03D0082369
:101D1C000493049B3AE0039B1A68039B1B791946B6
:101D2C001E4B53F821301946104600F053FB034666
:101D3C00002B03D011230493049B27E002990398F2
:101D4C00FFF719FF059B019A5A60029B1A69059BC4
:101D5C001A60059B5B68002B05D0029B1B7F194604
:101D6C000398FFF76BFF039B1B681846FFF7F8FD02
:101D7C00059B00229A61059B0022DA61059B0022DB
:101D8C005A61059B012283F82020049B184607B05A
:101D9C005DF804FB588F00002C190020948F000074
:101DAC0000B589B0039002910192039B1B791A46EE
:101DBC001346DB0013449B00564A13440693069BC0
:101DCC0093F82030012B04D0534940F22D1001F030
:101DDC001CFD029B002B04D14F494FF4977001F06E
:101DEC0014FD019B002B04D14B4940F22F1001F044
:101DFC000CFD039B1B79002B02D1019BFF2B04D9FB
:101E0C0045494FF4987001F000FD0298FFF7FEFC75
:101E1C00034683F00103DBB2002B03D0102307939E
:101E2C00079B73E0039800F079F80346002B03D06E
:101E3C0011230793079B69E0069B019A5A61069B45
:101E4C00029A9A6000230793039B1B684FF49071CE
:101E5C001846FFF71FFD039B1B684FF4AC71184627
:101E6C00FFF718FD039B1868069B9968069B5B6936
:101E7C001A46FFF7C9FD039B1B6808211846FFF79C
:101E8C0096FD069B5B68002B3FD1039B1B684FF4B0
:101E9C0090711846FFF713FD03468DF81730039B1E
:101EAC001B684FF4AC711846FFF709FD03468DF81B
:101EBC0016309DF8173083F00103DBB2002B06D0EF
:101ECC009DF8163083F00103DBB2002BDDD19DF8B9
:101EDC001630002B02D00F23079313E0039B1B68D3
:101EEC000C211846FFF763FD00BF039B1B684FF4E2
:101EFC00AC711846FFF7E3FC034683F00103DBB239
:101F0C00002BF2D1069B00225A61079B184609B0A0
:101F1C005DF804FB2C190020588F000082B0019052
:101F2C00019B1B791946084A0B46DB000B449B00AE
:101F3C00134414331B68002B14BF01230023DBB2A2
:101F4C00184602B0704700BF2C19002000B589B0AC
:101F5C00039002910192039B1B791A461346DB00F6
:101F6C0013449B00864A13440593039B1B79194623
:101F7C00834A0B46DB000B449B00134420331B7835
:101F8C00012B04D07F494FF4C07001F03EFC029B42
:101F9C00002B04D17B4940F2811001F036FC019BEF
:101FAC00002B04D177494FF4C17001F02EFC039B38
:101FBC001B79002B02D1019BFF2B04D9714940F2F4
:101FCC00831001F022FC0298FFF720FC034683F0FB
:101FDC000103DBB2002B03D010230793079BCAE04D
:101FEC0000238DF81B30059B5B68002B06D0039BF0
:101FFC001B684FF404711846FFF79AFC059B9B690C
:10200C00002B15D0059BDB69002B0ED0059B5B6864
:10201C00002B06D0039B1B684FF404711846FFF786
:10202C007DFC11230793079BA5E001238DF81B3042
:10203C009DF81B3083F00103DBB2002B09D0059B0C
:10204C00019A9A61059B029ADA60059B0022DA617B
:10205C0005E0059B029A1A61059B019ADA6100233F
:10206C000793039B1B684FF488711846FFF712FC0B
:10207C00039B1B684FF4A2711846FFF70BFC039BE4
:10208C001B68019A02991846FFF7D5FC9DF81B3086
:10209C0083F00103DBB2002B06D0039B1B680021ED
:1020AC001846FFF784FC05E0039B1B6820211846AB
:1020BC00FFF717FC039B1B791946314A0B46DB00D3
:1020CC000B449B00134404331B68002B4BD1039B24
:1020DC001B684FF488711846FFF7F1FB03468DF827
:1020EC001330039B1B684FF4A2711846FFF7E7FBF4
:1020FC0003468DF81230039B1B684FF492711846FF
:10210C00FFF7DDFB03468DF811309DF8133083F09B
:10211C000103DBB2002B0DD09DF8123083F00103CC
:10212C00DBB2002B06D09DF8113083F00103DBB23B
:10213C00002BCCD1039B1B791946114A0B46DB00B3
:10214C000B449B001344183300221A609DF8113085
:10215C00002B01D0032307939DF81230002B09D0DC
:10216C000F23079306E0039B1B684FF4047118467A
:10217C00FFF7D4FB079B184609B05DF804FB00BFC2
:10218C002C190020588F000000B589B003900291E3
:10219C00019201238DF81030029B0693019B05934D
:1021AC00039B5B68039A116804AA1046984700BF0A
:1021BC0009B05DF804FB00B587B0019000910023D5
:1021CC008DF80830009B0493019B9B680393019B43
:1021DC0000225A61019B5B68019A116802AA1046A1
:1021EC00984700BF07B05DF804FB00B589B00190BB
:1021FC0000914FF492710198FFF761FB0346002B9D
:10220C0022D04FF492710198FFF744FB02238DF812
:10221C0008300198FFF796FB034605930198FFF7EA
:10222C0019FC03460493009BDB680393009B00227C
:10223C009A61009B0022DA61009B5B68009A11682E
:10224C0002AA104698473BE04FF488710198FFF7BB
:10225C0036FB0346002B33D04FF488710198FFF7FF
:10226C0019FB0198FFF7F6FB0790009B9B69079AF7
:10227C009A4225D1009BDB69002B17D0009BDB68B1
:10228C00069320210198FFF73AFB009BDA69009B2B
:10229C009A61009B1A69009BDA60009B0022DA614C
:1022AC00069A07990098FFF76FFF09E0009B002240
:1022BC009A61009BDB681A4607990098FFF764FF48
:1022CC004FF4A2710198FFF7FAFA0346002B18D0CD
:1022DC004FF4A2710198FFF7DDFA009B9B69002B6C
:1022EC000FD0009B00229A61009B0022DA610198BA
:1022FC00FFF7B0FB0146009BDB681A460098FFF71E
:10230C0043FF4FF490710198FFF7D9FA0346002B65
:10231C0014D04FF490710198FFF7BCFA0C2101987E
:10232C00FFF745FB009B5B69002B07D00198FFF77B
:10233C007AFB034619460098FFF73DFF4FF4AC714A
:10234C000198FFF7BCFA0346002B10D04FF4AC7188
:10235C000198FFF79FFA009B5B69002B07D001984F
:10236C00FFF761FB034619460098FFF724FF00BFF7
:10237C0009B05DF804FB000008B503490348FFF7FA
:10238C0034FF00BF08BD00BF2C1900200020004006
:10239C0008B5064B1B68002B03D10549512001F0F1
:1023AC0034FA024B1B68984700BF08BD5019002037
:1023BC00988F000082B00190019B044A934201D196
:1023CC00034B00E00023184602B070470020004089
:1023DC005019002000B587B001900091019B002B93
:1023EC0003D11849772001F010FA0198FFF7E2FFAA
:1023FC000490049B002B1ED000238DF81730002076
:10240C0001F0BCF9049B1B79002B03D001238DF840
:10241C00173005E0049B009A1A60049B01221A7184
:10242C00002001F0BFF99DF81730002B03D01123C9
:10243C000393039B02E000230393039B184607B00E
:10244C005DF804FB988F000082B003468DF80730CE
:10245C009DF8073003F01F0205499DF907305B0911
:10246C00012000FA02F241F8232000BF02B07047AD
:10247C0000E100E082B0034600918DF807309DF931
:10248C000730002B0CDA009BDAB20C499DF80730B0
:10249C0003F00F03043B5201D2B20B441A7609E04D
:1024AC00009BDAB206499DF907305201D2B20B44B7
:1024BC0083F8002300BF02B0704700BF00ED00E0BE
:1024CC0000E100E000B583B003460A468DF8073002
:1024DC0013468DF806309DF80630072B03D90849B2
:1024EC006B2001F092F99DF806209DF907301146FA
:1024FC001846FFF7BFFF00BF03B05DF804FB00BF39
:10250C00D48F000000B583B003468DF807309DF9D9
:10251C0007301846FFF798FF00BF03B05DF804FBC7
:10252C0000B583B00346ADF80630BDF8063018464A
:10253C0000F026F803461B68012B0CBF0123002377
:10254C00DBB2184603B05DF804FB00B585B003465A
:10255C00ADF80630BDF80630184600F011F8034609
:10256C001A4600231360BDF80630184600F008F830
:10257C0003461B680393039B00BF05B05DF804FB87
:10258C0082B00346ADF80630BDF8063003F1804347
:10259C0003F5C043184602B07047000082B00190AA
:1025AC00034A019BC2F8043300BF02B0704700BF5E
:1025BC000060004082B00190034BD3F80423019BD0
:1025CC001340184602B070470060004082B0019082
:1025DC00084A019B03F5A27352F82330054943F0D6
:1025EC000102019B03F5A27341F8232000BF02B046
:1025FC00704700BF0060004084B003900291134606
:10260C008DF80730144A039B03F5A27352F823305C
:10261C00114923F4473323F44073039A02F5A27251
:10262C0041F822300C4A039B03F5A27352F8232085
:10263C00029B1B0203F4F8519DF807301B0403F4B2
:10264C0040330B4304491A43039B03F5A27341F82F
:10265C00232000BF04B070470060004082B001909E
:10266C00054A019B03F5A27352F823301B0A03F0B1
:10267C001F03184602B070470060004082B0019002
:10268C00064A019B03F5A27352F823301B0C03F08E
:10269C000303DBB2184602B0704700BF0060004075
:1026AC0000B583B00190019B1B681F2B04D9054911
:1026BC0040F2CD1001F0A9F84FF0A043184603B03A
:1026CC005DF804FB0490000000B585B0019008464D
:1026DC0011461A4603468DF803300B468DF802302E
:1026EC0013468DF8013001AB1846FFF7D9FF039064
:1026FC009DF803209DF802305B001A439DF80130D1
:10270C009B001A439DF818301B0242EA03019DF806
:10271C001C301B04019A1943039B02F5E07243F829
:10272C00221000BF05B05DF804FB00B585B0039026
:10273C000B468DF80B309DF80B30002201920022D5
:10274C000092002200210398FFF7BEFF00BF05B0E6
:10275C005DF804FB00B585B0019001AB1846FFF79E
:10276C009FFF0390019A039B02F5E07253F822300D
:10277C0023F002030293019A039B02F5E072029983
:10278C0043F8221000BF05B05DF804FB00B585B01E
:10279C0001900B468DF8033001AB1846FFF780FF14
:1027AC000390019A039B02F5E07253F82230019AD0
:1027BC0023F44031039B02F5E07243F82210019A96
:1027CC00039B02F5E07253F822309DF803201204AB
:1027DC001146019A1943039B02F5E07243F822104B
:1027EC0000BF05B05DF804FB00B585B0019001ABEE
:1027FC001846FFF755FF0390039800F020F80246A7
:10280C00019B22FA03F303F00103184605B05DF8AF
:10281C0004FB00B585B0019001AB1846FFF740FFF3
:10282C000390019A039B02F5E07253F822301B0CC3
:10283C0003F00303DBB2184605B05DF804FB82B06D
:10284C000190019BD3F81035184602B07047000078
:10285C0000B587B00390029101924FF0A04304930E
:10286C00039A029B1344012B04D9124940F2FD2018
:10287C0000F0CBFF039B059311E0059B9B001833E5
:10288C006B4453F8083C1846FFF7D9FF0246019BEE
:10289C001A60019B04330193059B01330593039A42
:1028AC00029B1344059A9A42E7D300BF00BF07B0BE
:1028BC005DF804FB0490000084B001900091009B33
:1028CC000393019BDB080293019B03F00703019325
:1028DC000122019B02FA03F30399029A0A4412782B
:1028EC001340184604B0704784B001900091009BCF
:1028FC000393019BDB080293019B03F007030193F5
:10290C00039A029B13441B785AB20121019B01FAD2
:10291C0003F35BB2134359B2039A029B1344CAB23A
:10292C001A7000BF04B0704782B001900C4A019B32
:10293C001344243393F90030002B09DB084A019B24
:10294C001344243393F90030072B01DC012300E0FE
:10295C00002303F00103DBB2184602B0704700BF3E
:10296C005819002082B00190064A019B134424336D
:10297C0093F90030072BCCBF01230023DBB21846A0
:10298C0002B070475819002082B00190064A019B92
:10299C001344243393F90030DB43DBB2DB09DBB2A5
:1029AC00184602B0704700BF5819002084B003903D
:1029BC00029101928DF80330029B59B20E4A039B8F
:1029CC00134424330A461A700B49029B019A41F8AE
:1029DC0023209DF8033083F00103DBB2002B08D0D9
:1029EC00029B083B039A51B2034A13440A4683F8EC
:1029FC00442000BF04B070475819002082B00190E9
:102A0C00044A019B13442433FF221A7000BF02B006
:102A1C00704700BF5819002000B583B001900449DD
:102A2C000198FFF761FF00BF03B05DF804FB00BF26
:102A3C009D19002082B00190044A019B1344243359
:102A4C0093F90030184602B0704700BF58190020A7
:102A5C0082B00190034A019B52F82330184602B011
:102A6C00704700BF5819002000B589B0039002913F
:102A7C0013468DF80730FF238DF81F309DF8073073
:102A8C00002B01D0002300E0082305939DF80730AC
:102A9C00002B01D0082300E009230493059B069327
:102AAC0014E00F4A069B52F82330B3F1FF3F0AD1D2
:102ABC009DF80730029A06990398FFF777FF069B5B
:102ACC008DF81F3006E0069B01330693069A049B93
:102ADC009A42E6D39DF91F30184609B05DF804FB05
:102AEC005819002082B003468DF807309DF8073046
:102AFC00094A4FF0FF3142F823109DF80730072B9D
:102B0C0007D99DF80730083B034A1344FF2283F88A
:102B1C00442000BF02B070475819002000B583B0A4
:102B2C00254B93F84930002B03D008230093009BCE
:102B3C003EE000238DF8073009E09DF80730184679
:102B4C00FFF75CFF9DF8073001338DF807309DF8D7
:102B5C0007301F2BF1D900238DF8073009E09DF8C1
:102B6C0007301846FFF7BEFF9DF8073001338DF88C
:102B7C0007309DF80730082BF1D9042200210F48AB
:102B8C0006F080F806210620FFF79CFC0620FFF7D4
:102B9C00B9FC4FF4BE70FFF7D8FC4FF00040FFF7C4
:102BAC00FDFC054B012283F8492000230093009B78
:102BBC00184603B05DF804FB581900209D1900203D
:102BCC0000B587B0039002910192039B1F2B04D98F
:102BDC00364940F2072000F018FE002305930398B5
:102BEC00FFF7D2FE0346002B02D00823059357E0D3
:102BFC00029B9B78C3F34003DBB21A4601990398FE
:102C0C00FFF732FF03468DF813309DF91330B3F103
:102C1C00FF3F43D0029B9B78C3F38003DBB283F06E
:102C2C000103DBB2002B13D0029B9B7803F0010352
:102C3C00DBB2002B03D00398FFF78CFD05E0029B61
:102C4C005B7819460398FFF770FD0398FFF7E4FED5
:102C5C00029B9B7803F00203DBB2002B08D09DF99A
:102C6C001300029B1B781A460399FFF7C5FC17E06B
:102C7C009DF91330083B0E4A134493F94410029B00
:102C8C001B789B015AB29DF91330083B0A4351B291
:102C9C00074A13440A4683F8442001E004230593B1
:102CAC00059B184607B05DF804FB00BF349000008C
:102CBC005819002000B589B001900B468DF80330EF
:102CCC00019B1F2B04D93D4940F2372000F09DFD9C
:102CDC000198FFF759FE0346002B04D137494FF4F6
:102CEC000E7000F092FD0198FFF73CFE0346002B9E
:102CFC002FD00198FFF79EFE0346083B304A134441
:102D0C0093F944308DF80F309DF80F309B098DF8F6
:102D1C000E309DF80E30032B0BD10198FFF764FD9C
:102D2C000346002B01D0032300E002238DF81F3053
:102D3C0008E09DF80E30012B01D1022300E00323A3
:102D4C008DF81F309DF81F3019460198FFF71EFDB6
:102D5C0030E00198FFF7E8FD0346002B2AD00198DC
:102D6C00FFF768FE03460693069B9BB240339BB26B
:102D7C009B00ADF81630069B1846FFF727FCBDF8F4
:102D8C0016301846FFF7E1FB9DF80330002B11D0ED
:102D9C000198FFF74FFE03461846FFF759FE0490C3
:102DAC00049B002B06D00122069B02FA03F3184663
:102DBC00FFF7F4FB00BF09B05DF804FB3490000092
:102DCC005819002000B595B00023139300230393EA
:102DDC004FF48073ADF84630012310930023129307
:102DEC0021E0BDF846301846FFF79AFB0346002B4E
:102DFC000ED01098FFF7DEFB0346002B08D0BDF871
:102E0C0046301846FFF7A1FB139A109B13431393FC
:102E1C00109B5B001093BDF846300433ADF8463080
:102E2C00129B01331293129B072BDAD94FF4BE700D
:102E3C00FFF776FB0346002B0DD04FF4BE70FFF767
:102E4C0084FB139B43F00043139303AB1A460121FD
:102E5C000020FFF7FDFC139BDBB2002B29D00123D4
:102E6C0010930023129321E0109A139B1340002B14
:102E7C0016D01298FFF7F2FB0D901298FFF7FEFB9D
:102E8C0003468DF833301298FFF7E2FD0B900B9B45
:102E9C00002B05D09DF833200B9B11460D989847BD
:102EAC00109B5B001093129B01331293129B072B08
:102EBC00DAD9139B002B80F2EE8000238DF83B3087
:102ECC000023029300230F930AE00F9B9B005033C7
:102EDC006B444FF0FF3243F84C2C0F9B01330F9394
:102EEC000F9B002BF1D000238DF83B300023129365
:102EFC0078E06B4A129B1344443393F900308DF8FD
:102F0C002B309DF82B3023F0C0030993644A129B9D
:102F1C001344443393F90030B3F1FF3F5FD001AB5E
:102F2C0019460998FFF7C8FC0346002B57D09DF8AB
:102F3C002B309B098DF823300998FFF77BFD034656
:102F4C001846FFF785FD0790079B002B03D19DF8D2
:102F5C002330032B43D19DF82330032B04D102AB38
:102F6C0019460998FFF7C0FC0998FFF752FC034675
:102F7C008DF81B3003AB19460998FFF79DFC0590A3
:102F8C00059B002B03D09DF81B30022B06D0059B14
:102F9C00002B24D19DF81B30032B20D19DF823301E
:102FAC00032B13D19DF81B30022B01D1032300E01E
:102FBC0002238DF813309DF8133019460998FFF74A
:102FCC00E5FB9DF83B3001338DF83B30079B002B24
:102FDC0005D09DF82320079B114609989847129B12
:102FEC0001331293129B002B83D09DF83B30002BA6
:102FFC004CD001238DF83A306B461A460121002043
:10300C00FFF726FC00230F9314E00F9B9B0050331B
:10301C006B4453F8502C0F9B9B0050336B4453F86C
:10302C00443C9A4203D000238DF83A3005E00F9BC4
:10303C0001330F930F9B002BE7D09DF83A30002BF8
:10304C0003D000238DF83B3020E000230F931AE0CF
:10305C000F9B9B0050336B4453F8502C0F9B9B00E1
:10306C0050336B4443F8442C0F9B9B0050336B4400
:10307C0053F8482C0F9B9B0050336B4443F84C2C5B
:10308C000F9B01330F930F9B002BE1D09DF83B302E
:10309C00002B7FF428AF00BF15B05DF804FB00BF18
:1030AC005819002086B003900291019201238DF8EB
:1030BC0017309DF81730214A039B13601F4A029B5F
:1030CC0053601E4A019B9360039B44F2010293429E
:1030DC0013D0039B44F20202934221D1019B174A65
:1030EC00D360164BDB681B881A46144B9A61134B42
:1030FC00DB685B68114AD36112E0019B0F4A1361D4
:10310C000E4B1B699B680D4A53610C4B1B691B686A
:10311C000A4A9361094B1B695B68084AD36100BF7B
:10312C0072B600BF00BF9DF81730DBB2002BFAD18E
:10313C0062B600BF00BF06B0704700BFA4190020E4
:10314C0000B583B002900091019244F201007146E7
:10315C006A4600F003F803B000BD00BF00B587B0AD
:10316C0003900291019272B600BF039B44F20102DC
:10317C00934207D0039B44F20202934205D1019B78
:10318C00059303E0019B049300E000BF074B1B6811
:10319C0003F00103002B00D000BE019A02990398A2
:1031AC00FFF780FF00BF07B05DF804FBF0ED00E017
:1031BC0084B00190019B9B680393019BDA68039B8D
:1031CC00D31A184604B0704782B001900B468DF8A4
:1031DC000330019B1A68019BDB68019989880B40BD
:1031EC0013449DF803201A70019BDB685A1C019B49
:1031FC00DA6000BF02B0704784B003900B460192B6
:10320C00ADF80A30039B1A68039B9968BDF80A3025
:10321C000B44039989880B4013441A78019B1A704C
:10322C0000BF04B0704700B583B001900091009AC4
:10323C0000210198FFF7E0FF019B9B685A1C019B42
:10324C009A6000BF03B05DF804FB84B00390029158
:10325C001346ADF80630029B002B01D10E231DE066
:10326C00BDF80630002B07D0BDF806305A1EBDF84D
:10327C0006301340002B01D009230FE0039B029A68
:10328C001A60BDF80630013B9AB2039B9A80039BEF
:10329C0000229A60039B0022DA600023184604B0D7
:1032AC00704700B583B001900B468DF80330019840
:1032BC00FFF77EFF0246019B9B889A4207D89DF838
:1032CC00033019460198FFF77FFF002300E0042329
:1032DC00184603B05DF804FB00B583B00190009173
:1032EC000198FFF765FF0346002B05D00099019864
:1032FC00FFF799FF002300E00523184603B05DF8A3
:10330C0004FB000000B587B00390029113468DF8C2
:10331C00073000230593039B1B781A46114B9B5CCB
:10332C00002B09D0039B04339DF807200299184603
:10333C00FEF736FD05900FE0039B1B781A46094BF0
:10334C009B5C002B08D1039B0C339DF80720029942
:10335C001846FDF703FF0590059B184607B05DF86E
:10336C0004FB00BFFC19002000B585B001900023C0
:10337C008DF80F30019B1B781A46114B9B5C002B70
:10338C0008D0019B04331846FEF7C8FD03468DF8A0
:10339C000F300EE0019B1B781A46094B9B5C002BEF
:1033AC0007D1019B0C331846FDF760FF03468DF8DF
:1033BC000F309DF80F30184605B05DF804FB00BFC8
:1033CC00FC19002000B587B00390029113468DF8CC
:1033DC00073000230593039B1B781A46114B9B5C0B
:1033EC00002B09D0039B04339DF807200299184643
:1033FC00FEF7ACFD05900FE0039B1B781A46094BBA
:10340C009B5C002B08D1039B0C339DF80720029981
:10341C001846FDF783FF0590059B184607B05DF82D
:10342C0004FB00BFFC19002084B00190019B9B6839
:10343C000393019BDA68039BD31A184604B07047B8
:10344C0000B587B001900091019B1B78022B45D0F1
:10345C00022B6ADC002B52D0012B66D1019B1B7A0C
:10346C00002B05D1012233493348FFF7ABFF5DE058
:10347C00019B5B681B7819463048FFF712FF0590DB
:10348C00059B002B0AD001238DF80C30059B04936F
:10349C002B4B1B6803AA104698470DE02748FFF7F3
:1034AC00C3FF0346002B07D000238DF80C30244BB0
:1034BC001B6803AA104698472048FFF7B5FF034640
:1034CC001E4A9288934205D801221A491A48FFF7DE
:1034DC0079FF2BE01B4B01221A7027E002238DF899
:1034EC000C30019BDB680493012212491248FFF750
:1034FC0069FF134B1B6803AA1046984716E0124944
:10350C001248FFF7E9FE0346002B05D101220E49B4
:10351C000948FFF7F7FE09E003238DF80C30084B40
:10352C001B6803AA1046984700E000BF00BF07B015
:10353C005DF804FBCC19002004000020D0190020F9
:10354C00C4190020CD190020C8190020E019002052
:10355C0030B591B00390029101928DF803303C4A42
:10356C00019B1360029B002B01D107236DE0029B92
:10357C001968029B5B689BB21A463648FFF765FEDA
:10358C000F900F9B0E930E9B002B01D00E9B5CE0BB
:10359C00029B9968029BDB689BB21A462E48FFF788
:1035AC0054FE0F900F9B0D930D9B002B01D00D9B88
:1035BC004BE02A4B04AC1D460FCD0FC495E80F0011
:1035CC0084E80F00039B5B690A93039B1B7C002B15
:1035DC0014BF01230023DBB28DF824309DF8033097
:1035EC008DF82C30039B5B7C002B01D00E2300E06C
:1035FC0000238DF82530039BDB680693039B9B68A7
:10360C000793039B1B680593039B5B68049304ABB4
:10361C00134A1946134800F05FF90F900F9B0C9357
:10362C000C9B002B01D00C9B0FE00F4B00221A704F
:10363C00039B1B68B3F1FF3F06D001220B490948DD
:10364C00FFF7C0FE034600E00023184611B030BD62
:10365C00C4190020D0190020E0190020709000003F
:10366C004D34000004000020CD190020CC1900209E
:10367C0000B587B00190019B002B03D11449CA20DF
:10368C0000F0C3F8134B1B788DF8173001991248D2
:10369C00FFF722FE04909DF81730002B12D00D4B33
:1036AC0000221A7001220D490D48FFF78BFE039082
:1036BC00039B0293029B002B04D0054AD62102984F
:1036CC00FFF73EFD049B184607B05DF804FB00BFF6
:1036DC0090900000CD190020D0190020CC190020AA
:1036EC000400002000B585B003468DF807309DF826
:1036FC00073019461048FFF7D4FD0390039B002BAD
:10370C0015D10E48FFF730FE034683F00103DBB200
:10371C00002B0CD00A490848FFF7DEFD0346002BAE
:10372C0005D1012206490548FFF7ECFD0390039BE8
:10373C00184605B05DF804FBE019002004000020D9
:10374C00C819002072B600BF034B1B680133024A34
:10375C00136000BF704700BFF0190020064B1B68B8
:10376C00013B054A1360044B1B68002B01D162B668
:10377C0000BF00BF704700BFF019002000B583B038
:10378C00019000F025F80346012B03D00449432097
:10379C0000F03BF8FFF7D6FF00BF03B05DF804FB69
:1037AC00D090000000B583B003468DF8073000F0D0
:1037BC000FF80346012B03D00449512000F025F8E3
:1037CC00FFF7CCFF00BF03B05DF804FBD090000006
:1037DC0084B0EFF305830193019BC3F308030393B8
:1037EC00039B002B0DD1EFF314830093009B0293EA
:1037FC00029B03F00103002B0CBF01230023DBB25F
:10380C0000E00123184604B0704700B585B00346AC
:10381C000091ADF80630BDF80630ADF80830009BCD
:10382C00039302AB1A46002144F20200FFF796FC08
:10383C0000BF05B05DF804FB00B589B001900091A4
:10384C00009B0793019B1B788DF80C30019B5B68E8
:10385C000493019B9B68DBB28DF81430019BDB68F1
:10386C000693074A079B52F823300649079A51F8EA
:10387C00221003AA1046984700BF09B05DF804FB5C
:10388C00F4190020F819002000B589B001900091BE
:10389C00009B0793019B1B788DF80C30019B5B6898
:1038AC000493019B9B68DBB28DF81430019BDB68A1
:1038BC000693074A079B52F823300649079A51F89A
:1038CC00221003AA1046984700BF09B05DF804FB0C
:1038DC00F4190020F819002030B58FB00390029134
:1038EC000192039B1B780C9326490C9B019A41F87F
:1038FC002320029B1A6924490C9B41F82320029B2C
:10390C005B7F1946214A0C9B13440A461A70029B92
:10391C0004AC1D460FCD0FC495E80F0084E80F00D2
:10392C000C9B089300230D93039B1B781A46174B93
:10393C009B5C002B0DD0039B181D019B002B01D011
:10394C00134A00E0002204AB1946FEF7C3F90D90B0
:10395C0014E0039B1B781A460C4B9B5C002B0DD17F
:10396C00039B03F10C00019B002B01D0094A00E0E2
:10397C00002204AB1946FDF73DFB0D900D9B18463C
:10398C000FB030BDF4190020F8190020FC190020EC
:10399C00453800009538000082B00190019B002B47
:1039AC0007D0019BDB7803F0F003E02B01D101235E
:1039BC0000E0002303F00103DBB2184602B07047AD
:1039CC0082B001900091019B054A1A60019B054A47
:1039DC005A60019B009A9A6000BF02B0704700BF0A
:1039EC00389100001147000000B58FB00390029190
:1039FC00019204F0EBFD924BDB7C03F00103002BF6
:103A0C000DD18F4BDB7C43F00103DAB28C4BDA74B3
:103A1C0004F0EEFD8B498C4803F02CF901E004F026
:103A2C00E7FD039B5B680D9304F0D0FD039B1B68C3
:103A3C00002B07D0039B9B68002B03D00D9B824A65
:103A4C00934203D0C8218148FCF77AFE04F0D0FDE4
:103A5C00039B9B6802990398984703468DF82B307B
:103A6C0004F0B4FD9DF82B30082B03D0D2217748FD
:103A7C00FCF766FE764B1B7803F00803002B1FD077
:103A8C00019BDB08724A13441B7C1A46019B03F012
:103A9C00070322FA03F303F00103002B10D00320D9
:103AAC0002F01AFC039803F025F80D9B184602F05F
:103ABC0095FF039B9B68184602F090FF02F0AEFC4A
:103ACC0004F096FD06230C9300230B93039B9B6839
:103ADC000493039B9B685F49039898470FE00B9BEB
:103AEC0001330B93039B9A680B9B9B0038336B44FD
:103AFC0043F8282C039B9B68564903989847039BD3
:103B0C009B680D9A9A4202D00B9B042BE7DD04F0C4
:103B1C005DFD039B9B680D9A9A4203D0DC214B48B8
:103B2C00FCF70EFE04F064FD049A039B9A600B9B59
:103B3C009B0038336B4453F8283C4749039898470B
:103B4C000346032B29D104F041FD414B1B7803F0B4
:103B5C000203002B1FD0019BDB083D4A13441B7C46
:103B6C001A46019B03F0070322FA03F303F0010347
:103B7C00002B10D0012002F0AFFB039802F0BAFF2B
:103B8C000B9B9B0038336B4453F8283C184602F0CF
:103B9C0025FF02F043FC04F02BFD0B9B013B0B9328
:103BAC000B9B002BC3DA049B0D930D9B2B490398A5
:103BBC00984703468DF82B309DF82B30082B29D1D4
:103BCC0004F004FD224B1B7803F00803002B1FD0DC
:103BDC00019BDB081E4A13441B7C1A46019B03F015
:103BEC00070322FA03F303F00103002B10D0032088
:103BFC0002F072FB039802F07DFF0D9B184602F059
:103C0C00EDFE039B9B68184602F0E8FE02F006FCF2
:103C1C0004F0EEFC0C9B013B0C939DF82B30082B15
:103C2C0003D10C9B002B3FF74FAF04F0CFFC0C9B48
:103C3C00002B15DC4FF491710448FCF781FD00BF9B
:103C4C00001B00202C910000114700001491000073
:103C5C00E01A00201C910000209100002891000027
:103C6C001A4B1B7803F01003002B20D0019BDB08B0
:103C7C00164A13441B7C1A46019B03F0070322FAD5
:103C8C0003F303F00103002B11D0042002F024FBFA
:103C9C00FCF7FEFE0346184602F0A0FE039802F065
:103CAC0029FF0D9B184602F099FE02F0B7FB04F0B9
:103CBC009FFC039B0D9A5A60039B5B68DA43039B42
:103CCC009A6000BF0FB05DF804FB00BFE01A002043
:103CDC0000B591B0039002910192039B5B680B932A
:103CEC000B9B0F9304F072FC0B9B002B06D0039BD9
:103CFC005A68039B9B68DB439A4204D04FF496713D
:103D0C009048FCF71DFD0298FFF746FE0346002B7A
:103D1C0004D14FF497718B48FCF712FD8A4B5B78FA
:103D2C0003F00103002B25D0019BDB08864A1344CA
:103D3C001B7C1A46019B03F0070322FA03F303F0E2
:103D4C000103002B16D0082002F0C6FAFCF7A0FEE7
:103D5C000346184602F042FE029B1B88184602F0EE
:103D6C0053FD039802F0C6FE0B9B184602F036FE7C
:103D7C0002F054FB04F03CFC039B0B9A9A60062364
:103D8C000D93039B9B680B930B9B0299039898478D
:103D9C0003468DF83B309DF83B30022B30D104F0BC
:103DAC0015FC694B5B7803F00203002B1FD0019BC1
:103DBC00DB08654A13441B7C1A46019B03F007037E
:103DCC0022FA03F303F00103002B10D0092002F0B8
:103DDC0083FA029B1B88184602F016FD039802F02A
:103DEC0089FE0B9B184602F0F9FD02F017FB04F05C
:103DFC00FFFB0B9B55490398984703468DF83B30C6
:103E0C000D9B013B0D939DF83B30002B02D10D9B7C
:103E1C00002BB6DC04F0DAFB0D9B002B04DC4FF41A
:103E2C009B714848FCF78CFC04F0E2FB9DF83B309E
:103E3C00072B40F2AA81039B9B6805930F9B06936B
:103E4C000B9B079306230D9335E00F9B404903987A
:103E5C0098470346032B28D104F0B8FB3A4B1B7848
:103E6C0003F00403002B1AD0019BDB08364A1344E1
:103E7C001B7C1A46019B03F0070322FA03F303F0A1
:103E8C000103002B0BD0022002F026FA039802F05B
:103E9C0031FE0F9B184602F0A1FD02F0BFFA04F0B0
:103EAC00A7FB0F9B2949039898470D9B013B0D934A
:103EBC00039B9B680F930F9A0B9B9A4202D00D9B0E
:103ECC00002BC2DC04F082FB0D9B002B04DC4FF4B6
:103EDC00A0711C48FCF734FC04F08AFB05AB019A7A
:103EEC001946039800F02EFA0C909DF83B300B2BE2
:103EFC0069D104F06BFB144B9B795BB2002B1EDA7F
:103F0C00019BDB08104A13441B7C1A46019B03F0EF
:103F1C00070322FA03F303F00103002B0FD0372021
:103F2C0002F0DAF9039802F0E5FD0F9B184602F057
:103F3C0055FD059B184602F051FD02F06FFA04F096
:103F4C0057FB40E014910000E01A00201C91000087
:103F5C00249100000C9B9B0040336B4453F82C3C89
:103F6C00A449039898470346032B29D104F02EFB50
:103F7C00A14B1B7803F00203002B1FD0019BDB0825
:103F8C009D4A13441B7C1A46019B03F0070322FA3B
:103F9C0003F303F00103002B10D0012002F09CF975
:103FAC00039802F0A7FD0C9B9B0040336B4453F825
:103FBC002C3C184602F012FD02F030FA04F018FB0B
:103FCC000C9B013B0C930C9B002BC3DA059B0F93B2
:103FDC00039B0F9A9A609BE004F0F8FA864B1B78CF
:103FEC0003F00803002B1FD0019BDB08824A13440B
:103FFC001B7C1A46019B03F0070322FA03F303F020
:10400C000103002B10D0032002F066F9039802F094
:10401C0071FD0F9B184602F0E1FC039B9B68184650
:10402C0002F0DCFC02F0FAF904F0E2FA00230C9343
:10403C00039B9B680593039B9B6870490398984767
:10404C000FE00C9B01330C93039B9A680C9B9B0019
:10405C0040336B4443F82C2C039B9B6867490398B3
:10406C009847039B9B680F9A9A4202D00C9B042B97
:10407C00E7DD04F0ABFA039B9B680F9A9A4204D0DD
:10408C004FF4A5715E48FCF75BFB04F0B1FA059A9E
:10409C00039B9A600C9B9B0040336B4453F82C3C65
:1040AC005449039898470346032B29D104F08EFA00
:1040BC00514B1B7803F00203002B1FD0019BDB0834
:1040CC004D4A13441B7C1A46019B03F0070322FA4A
:1040DC0003F303F00103002B10D0012002F0FCF8D5
:1040EC00039802F007FD0C9B9B0040336B4453F884
:1040FC002C3C184602F072FC02F090F904F078FAAD
:10410C000C9B013B0C930C9B002BC3DA059B0F9370
:10411C000F9B3C49039898470346082B3FF45CAF30
:10412C0004F054FA344B1B7803F04003002B29D0D5
:10413C00019BDB08304A13441B7C1A46019B03F09D
:10414C00070322FA03F303F00103002B1AD0062015
:10415C0002F0C2F8FCF79CFC0346184602F03EFC49
:10416C00029B1B88184602F04FFB039802F0C2FC1E
:10417C000B9B184602F032FC0F9B184602F02EFCEB
:10418C0002F04CF904F034FA6EE09DF83B30032B4E
:10419C003AD104F01BFA184B1B7803F02003002BC8
:1041AC0025D0019BDB08144A13441B7C1A46019B47
:1041BC0003F0070322FA03F303F00103002B16D0DC
:1041CC00052002F089F8FCF763FC0346184602F060
:1041DC0005FC029B1B88184602F016FB039802F0A4
:1041EC0089FC0B9B184602F0F9FB02F017F904F05E
:1041FC00FFF939E020910000E01A00201C9100002A
:10420C00149100002891000004F0E0F91C4B1B787D
:10421C005BB2002B26DA019BDB08194A13441B7C8A
:10422C001A46019B03F0070322FA03F303F0010380
:10423C00002B17D0072002F04FF8FCF729FC03469F
:10424C00184602F0CBFB029B1B88184602F0DCFAE6
:10425C00039802F04FFC039B5B68184602F0BEFB10
:10426C0002F0DCF804F0C4F9039B0F9A5A60039B2C
:10427C005B68DA43039B9A6000BF11B05DF804FBE6
:10428C00E01A002082B00190019B5B68184602B0D6
:10429C007047000000B587B00190009104F096F9CA
:1042AC00019B5A68019B9B68DB439A4204D040F205
:1042BC005A212248FCF744FA04F09AF900238DF8AD
:1042CC001730019B5B6804930723039300238DF83D
:1042DC000B3014E0049A009B9A4203D101238DF811
:1042EC00173013E0049B16490198984703468DF844
:1042FC000B30019B9B680493039B013B03939DF83C
:10430C000B30042B02D0039B002BE3DC04F05EF992
:10431C00039B002B04DC40F2B2210848FCF710FA96
:10432C0004F066F9019B5B68DA43019B9A609DF887
:10433C001730184607B05DF804FB00BF149100005D
:10434C001C91000000B58BB00390029101924FF0CC
:10435C00FF330993029B1B680893029B9B68049391
:10436C00049A089B9A422ED1049B9C490398984727
:10437C000346032B24D104F029F9994B1B7803F045
:10438C000403002B1AD0019BDB08954A13441B7CB9
:10439C001A46019B03F0070322FA03F303F001030F
:1043AC00002B0BD0022001F097FF039802F0A2FB28
:1043BC00049B184602F012FB02F030F804F018F9D6
:1043CC000023099384E1089B864903989847039B33
:1043DC009B680893049A089B9A4202D10023099384
:1043EC0076E1049B7F4903989847039B9B68089A46
:1043FC009A422ED1049B7949039898470346032B84
:10440C0024D104F0E3F8764B1B7803F00403002B63
:10441C001AD0019BDB08724A13441B7C1A46019B81
:10442C0003F0070322FA03F303F00103002B0BD074
:10443C00022001F051FF039802F05CFB049B18462C
:10444C0002F0CCFA01F0EAFF04F0D2F80023099351
:10445C003EE1039B9A68029B1B689A422DD1049BF8
:10446C005E49039898470346032B40F0318104F0D2
:10447C00ADF85B4B1B7803F00403002B1AD0019BA7
:10448C00DB08574A13441B7C1A46019B03F00703B5
:10449C0022FA03F303F00103002B0BD0022001F0EE
:1044AC001BFF039802F026FB049B184602F096FAB9
:1044BC0001F0B4FF04F09CF80AE1002307930123F8
:1044CC000993029B0433089A1A60039B9B68089318
:1044DC00029B04331B6843490398984703468DF8A5
:1044EC001B301FE0099B01330993099B9B00029A27
:1044FC001344039A92681A60039B9B68049A9A422D
:10450C0008D101230793099B013B099303238DF8E1
:10451C001B3007E0039B9B6832490398984703467E
:10452C008DF81B309DF81B30002B02D1099B042BFE
:10453C00D8DD04F04BF89DF81B30002B04D14FF460
:10454C00FF712948FCF7FCF804F052F8079B002B8C
:10455C0040F0BE80049B2149039898470346032BE7
:10456C0024D104F033F81E4B1B7803F00403002B0A
:10457C001AD0019BDB081A4A13441B7C1A46019B78
:10458C0003F0070322FA03F303F00103002B0BD013
:10459C00022001F0A1FE039802F0ACFA049B18462D
:1045AC0002F01CFA01F03AFF04F022F8099B079381
:1045BC0004238DF81B30079B9B00029A13441B6845
:1045CC00089A9A4212D103238DF81B30079B013BAA
:1045DC0009934FF0FF3307930BE000BF24910000C9
:1045EC00E01A00201C91000014910000079B013B75
:1045FC000793079B002BDEDA9DF81B30032B67D04B
:10460C0004238DF81B3006230593089B3949039826
:10461C0098470346032B28D103F0D8FF364B1B7861
:10462C0003F00403002B1AD0019BDB08324A13441D
:10463C001B7C1A46019B03F0070322FA03F303F0D9
:10464C000103002B0BD0022001F046FE039802F070
:10465C0051FA089B184602F0C1F901F0DFFE03F095
:10466C00C7FF089B254903989847039B9B680893B1
:10467C00099B0793079B9B00029A13441B68089A9B
:10468C009A4209D1079B013B09934FF0FF330793E3
:10469C0003238DF81B3002E0079B013B0793079B1C
:1046AC00002BE7DA059B013B05939DF81B30032B90
:1046BC0002D0059B002BA8DC03F088FF059B002B88
:1046CC0004DC40F212210E48FCF73AF803F090FF9C
:1046DC0003F07CFF099B052B04DD40F24E210848BA
:1046EC00FCF72EF803F084FF099B18460BB05DF81D
:1046FC0004FB00BF24910000E01A00201C91000074
:10470C001491000082B0019000910423184602B06D
:10471C00704784B001900091019B0393009B02931E
:10472C0008E0039B00221A70039B01330393029B46
:10473C00013B0293029B002BF3D100BF00BF04B0DE
:10474C00704782B00190019B002B07D0019BDB7856
:10475C0003F0F003E02B01D1012300E0002303F070
:10476C000103DBB2184602B0704782B00190019B86
:10477C00DB7803F00F03184602B0704782B001904B
:10478C000091019B1A68009B013B012101FA03F384
:10479C001A43019B1A6000BF02B0704782B00190AF
:1047AC000091019B1B68DA43009B1A6000BF02B0AA
:1047BC00704782B00190019B9B78DBB20133DAB277
:1047CC00019B9A7000BF02B07047000000B587B023
:1047DC00039002910192009303F0F8FE039B93F86F
:1047EC002430DB438DF816300298FFF7AAFF0346FE
:1047FC00002B05D0039B1B7B9DF816209A4203D0FF
:10480C0066218748FBF79CFF039BDB7F8DF81530F7
:10481C00019B4FF6FF7293420ED19DF81530002B81
:10482C0003D001238DF8173013E000238DF81730D7
:10483C00BE217B48FBF784FF019BDBB29DF8152062
:10484C009A4203D901238DF8173002E000238DF82A
:10485C0017300298FFF789FF0346002B02D002980D
:10486C00FFF7A7FF9DF81730002B00F089809DF80B
:10487C001530013B8DF81530039B9DF81520DA7728
:10488C00039B93F820309DF815209A4204D2039B89
:10489C009DF8152083F82020624B5B7803F04003D1
:1048AC00002B3FD0039B1B7BDB08DBB21A465D4B16
:1048BC0013441B7C1A46039B1B7B03F0070322FA51
:1048CC0003F303F00103002B2CD00E2001F004FDA8
:1048DC00FCF7DEF80346184602F080F8009802F068
:1048EC0009F9029B1B88184601F08EFF039802F011
:1048FC0001F90298FFF739FF0346DAB2029B9B7865
:10490C00DBB21946104601F0A3FE9DF8153018468F
:10491C0001F01EFE039B93F82030184601F018FEA0
:10492C0001F07CFD039B5B69002B0DD1039B029A6C
:10493C005A61039B1B7B19463B48FFF71FFF3B4902
:10494C003948FFF72BFF18E0039B9A69039B5B7FA9
:10495C00DBB29B001344029A1A60039B5B7FDBB2B1
:10496C00002B03D1039B1A7F039B5A77039B5B7F1E
:10497C00DBB2013BDAB2039B5A7703F039FE49E014
:10498C00284B5B7903F02003002B3ED0039B1B7B51
:10499C00DB08DBB21A46234B13441B7C1A46039BE1
:1049AC001B7B03F0070322FA03F303F00103002B34
:1049BC002BD02D2001F090FCFCF76AF8034618462A
:1049CC0002F00CF8009802F095F8029B1B88184630
:1049DC0001F01AFF039802F08DF80298FFF7C5FE5C
:1049EC000346DAB2029B9B78DBB21946104601F003
:1049FC002FFE9DF81530184601F0AAFD019BDBB285
:104A0C00184601F0A5FD01F009FD03F0F1FD029837
:104A1C0000F0E8F99DF81730184607B05DF804FB74
:104A2C0048910000E01A00205C1B0020641B002051
:104A3C0000B585B0019003F0C9FD019B5B69002BAB
:104A4C0004D14FF49B715E48FBF77AFE019B5B69C6
:104A5C000393019BDB7FDBB201338DF80B30019BA1
:104A6C009DF80B20DA77019B1B7F9DF80B209A4257
:104A7C0057D8019B9A69019B9B7FDBB29B00134427
:104A8C001A68019B5A61019B9B7FDBB2002B03D1FF
:104A9C00019B1A7F019B9A77019B9B7FDBB2013BA9
:104AAC00DAB2019B9A77474B9B7803F00103002BFA
:104ABC007ED0019B1B7BDB08DBB21A46414B1344B7
:104ACC001B7C1A46019B1B7B03F0070322FA03F3A2
:104ADC0003F00103002B6BD0102001F0FDFBFBF762
:104AEC00D7FF0346184601F079FF039B1B88184635
:104AFC0001F08AFE019801F0FDFF0398FFF735FEE7
:104B0C000346DAB2039B9B78DBB21946104601F0E0
:104B1C009FFD9DF80B30184601F01AFD01F07EFC4C
:104B2C0046E0019B00225A619DF80B20019B1B7FE4
:104B3C0001339A4204D04FF49B712148FBF700FEDD
:104B4C00204B9B7803F00203002B31D0019B1B7B85
:104B5C00DB08DBB21A461B4B13441B7C1A46019B29
:104B6C001B7B03F0070322FA03F303F00103002B72
:104B7C001ED0112001F0B0FBFBF78AFF034618464C
:104B8C0001F02CFF039B1B88184601F03DFE019899
:104B9C0001F0B0FF0398FFF7E8FD0346DAB2039B80
:104BAC009B78DBB21946104601F052FD01F036FC41
:104BBC0003F01EFD039B184605B05DF804FB00BF17
:104BCC0048910000E01A002082B00190019B002B5C
:104BDC0007D0019BDB7803F0F003E02B01D101231C
:104BEC0000E0002303F00103DBB2184602B070476B
:104BFC0082B00190019BDB7803F00F03184602B0E2
:104C0C00704782B00190019B9B78DBB2013BDAB21A
:104C1C00019B9A7000BF02B07047000000B583B0D2
:104C2C0003F0D4FC094BDB6B5A1E084913469B005E
:104C3C0013449B000B440C331B88019303F0D8FCEA
:104C4C00019B184603B05DF804FB00BF841A0020DA
:104C5C0000B587B003900291019203F0B7FC0023DA
:104C6C0005930FE05C49059A13469B0013449B0087
:104C7C000B440C331B881A46039B934208D9059BA3
:104C8C0001330593544BDB6B059A9A42EAD300E04F
:104C9C0000BF514BDB6B059A9A4204D34FF49671CB
:104CAC004E48FBF74DFD059B0133059303F0A0FC2B
:104CBC00059B5A1E13469B0013449B00464A9818AA
:104CCC00029B4FF6FF72934201D0029B00E000233F
:104CDC00059A4032194600F031F90490049B002BE0
:104CEC003DD0019B9AB2049B1A80049B00229A70BF
:104CFC00059BDBB263F01F03DAB2049BDA7003F09E
:104D0C0065FC374BDB7803F01003002B24D0059B9C
:104D1C004033DB08324A13441B7C1A46059B03F0D4
:104D2C00070322FA03F303F00103002B14D01C2019
:104D3C0001F0D2FAFBF7ACFE0346184601F04EFE2A
:104D4C00039B9BB2184601F05FFD019B9BB218467A
:104D5C0001F05AFD01F062FB03F04AFC37E003F06E
:104D6C0035FC029B4FF6FF72934204D14FF4A071B5
:104D7C001A48FBF7E5FC1A4B9B785BB2002B24DA44
:104D8C00059B4033DB08164A13441B7C1A46059BD3
:104D9C0003F0070322FA03F303F00103002B14D0F2
:104DAC00172001F099FAFBF773FE0346184601F041
:104DBC0015FE039B9BB2184601F026FD019B9BB28E
:104DCC00184601F021FD01F029FB03F011FC049BB6
:104DDC00184607B05DF804FB841A002050910000BF
:104DEC00E01A002000B585B0019003F0EFFB0198AC
:104DFC00FFF7EAFE0346002B04D14FF4C9714C486F
:104E0C00FBF79EFC0198FFF7F3FE0390039B002B2E
:104E1C0000F08780019B9B78DBB2012B34D9454B8A
:104E2C00DB7803F02003002B28D0039B4033DB08F6
:104E3C00404A13441B7C1A46039B03F0070322FAD7
:104E4C0003F303F00103002B18D01D2001F044FAEA
:104E5C00FBF71EFE0346184601F0C0FD019B1B88A4
:104E6C00184601F0D1FC039BDAB2019B9B78DBB2B4
:104E7C001946104601F0ECFB01F0D0FA0198FFF74F
:104E8C00C0FE03F0B5FB4EE02A4BDB7803F0400389
:104E9C00002B28D0039B4033DB08264A13441B7C91
:104EAC001A46039B03F0070322FA03F303F00103F2
:104EBC00002B18D01E2001F00FFAFBF7E9FD03467A
:104ECC00184601F08BFD019B1B88184601F09CFCD9
:104EDC00039BDAB2019B9B78DBB21946104601F0BA
:104EEC00B7FB01F09BFA144BDB6B039A9A4202D886
:104EFC00039B032B04D94FF4CD710D48FBF720FC19
:104F0C0003F076FB039B5A1E13469B0013449B0035
:104F1C00094A9818039B40331A46019900F0D4F8BB
:104F2C0001E003F065FB00BF05B05DF804FB00BFBA
:104F3C0050910000E01A0020841A002000B587B0C0
:104F4C0003900291019203F041FB039B1B8A9AB2DE
:104F5C00029B9BB29A427DD9039B9B680593059B50
:104F6C00002B04D14FF496715548FBF7E9FB059BD8
:104F7C001B680493059B5B68DA43049B9A4204D03C
:104F8C004FF497714E48FBF7DBFB039B1B8A9BB2DC
:104F9C00013B9AB2039B1A82039B1B8A9BB2002B88
:104FAC000BD1049B002B04D04FF4A0714448FBF7A9
:104FBC00C7FB039B00225A821AE0039B1B68049ACE
:104FCC009A4204D3039B5B68049A9A4204D94FF427
:104FDC00A5713B48FBF7B4FB039B5A8A039B1B8AC6
:104FEC009BB29A4204D9039B1B8A9AB2039B5A82A6
:104FFC00039B049A9A60334BDB7803F00103002B7C
:10500C0057D0019BDB082F4A13441B7C1A46019B8B
:10501C0003F0070322FA03F303F00103002B48D03B
:10502C00182001F059F9FBF733FD0346184601F03F
:10503C00D5FC039801F05EFD039B1B8A9BB21846BE
:10504C0001F0E2FB039B5B8A184601F0DDFB01F0EB
:10505C00E5F92EE0002305931A4B5B795BB2002B2C
:10506C0027DA019BDB08174A13441B7C1A46019B69
:10507C0003F0070322FA03F303F00103002B18D00B
:10508C002F2001F029F9FBF703FD0346184601F028
:10509C00A5FC039801F02EFD039B1B8A9BB21846BE
:1050AC0001F0B2FB029B9BB2184601F0ADFB01F084
:1050BC00B5F903F09DFA059B184607B05DF804FBA3
:1050CC0058910000E01A002000B587B003900291BF
:1050DC000192029B059303F079FA039B1B8A9AB207
:1050EC00039BDB899A4209D2039B1B68059A9A425F
:1050FC0004D3039B5B68059A9A4203D9C8212248C2
:10510C00FBF71EFB039B9A68059B1A60059B1B68AB
:10511C00DA43059B5A60039B029A9A60039B1B8A95
:10512C009BB201339AB2039B1A82184BDB7803F0C3
:10513C000203002B22D0019BDB08144A13441B7C76
:10514C001A46019B03F0070322FA03F303F0010351
:10515C00002B13D0192001F0BFF8FBF799FC034684
:10516C00184601F03BFC039801F0C4FC039B1B8A1E
:10517C009BB2184601F048FB01F050F903F038FAE5
:10518C0000BF07B05DF804FB58910000E01A002046
:10519C0082B00190019BDB7803F00F03184602B03C
:1051AC00704782B00190019B00221A6000BF02B0D0
:1051BC00704782B00190019B1B68002B14BF012328
:1051CC000023DBB2184602B0704782B00190009108
:1051DC00019B1A68009B013B012101FA03F31A435E
:1051EC00019B1A6000BF02B0704782B00190009121
:1051FC00019B1A68009B013B012101FA03F3DB437D
:10520C001A40019B1A6000BF02B0704782B0019037
:10521C00019B1B68B3FA83F3C3F12003184602B059
:10522C00704782B001900091019B1B68DA43009B90
:10523C001A6000BF02B0704782B001900091019BD0
:10524C001A68009B1B68DB439A420CBF01230023A6
:10525C00DBB2184602B0704782B00190019B9B787C
:10526C00DBB20133DAB2019B9A7000BF02B0704717
:10527C0000B585B001900091144A019B1360144A4B
:10528C00009B13600023039316E0039BDB00019A41
:10529C0013441846FFF785FF039BDB00019A134468
:1052AC001846039BDB00019A134404331946FFF79D
:1052BC00B8FF039B01330393039A009B9A42E4DBF0
:1052CC0000BF00BF05B05DF804FB00BFC41A00208E
:1052DC00C81A002000B58BB0039002910192039B79
:1052EC001B88ADF81A3003F071F9674B1B689BB241
:1052FC00BDF81A209A4203D3C8216448FBF720FA60
:10530C00634B1A68BDF81A30DB0013441846604B27
:10531C001A68BDF81A30DB00134404331946FFF742
:10532C008BFF0346002B03D1CA215848FBF708FA20
:10533C00584BDB7803F00403002B2DD0019BDB08CA
:10534C00544A13441B7C1A46019B03F0070322FAB0
:10535C0003F303F00103002B1ED01A2000F0BCFF56
:10536C00FBF796FB0346184601F038FB029801F058
:10537C00C1FBBDF81A30184601F046FA0398FFF746
:10538C0007FF0346DAB2039B9B78DBB21946104643
:10539C0001F05EF901F042F80398FFF7F9FE0346BD
:1053AC00002B02D00398FFF757FF394B1A68BDF852
:1053BC001A30DB0013441B68059303F019F905AB95
:1053CC001846FFF7F6FE0346002B56D005AB1846E1
:1053DC00FFF71CFF099003F0F9F82F4A099B52F8CC
:1053EC0023300893089B002B03D1D2212748FBF7CD
:1053FC00A7F903F0FDF821230793079B013B0793C3
:10540C00029B4FF6FF7203990898FFF7DFF905AB83
:10541C0009991846FFF7E9FE05AB1846FFF7C9FED8
:10542C000346002B15D005AB1846FFF7EFFE09908D
:10543C0003F0CCF8184A099B52F823300893089BC8
:10544C00002B03D1DC211148FBF77AF903F0D0F8DB
:10545C0001E000230993099B002B02D0079B002B32
:10546C00CBD103F0B3F8099B002B04D04FF491710E
:10547C000648FBF765F903F0BBF80398FFF7B2FC9D
:10548C0000BF0BB05DF804FBC81A0020609100004F
:10549C00C41A0020E01A0020001A002000B585B0C4
:1054AC0001900091019B1B7B039303F08FF8009BF1
:1054BC00032B11DD394B1B68009A9A420CDA039BC3
:1054CC00002B09D0039B202B06D8354A039B52F89E
:1054DC002330019A9A4204D04FF496713148FBF76D
:1054EC002FF9314B1A68009BDB00134418462E4BE6
:1054FC001A68009BDB00134404331946FFF79CFE2B
:10550C000346002B04D14FF497712648FBF718F98A
:10551C00264B5B7803F01003002B21D0039BDB0898
:10552C00224A13441B7C1A46039B03F0070322FAFE
:10553C0003F303F00103002B12D00C2000F0CCFE7F
:10554C00FBF7A6FA0346184601F048FA009B9BB2FB
:10555C00184601F059F9019801F0CCFA00F05EFF01
:10556C00114B1A68009BDB00134403991846FFF794
:10557C002CFE0D4B1A68009BDB00134418460A4B9B
:10558C001A68009BDB00134404331946FFF749FEED
:10559C0003F02EF800BF05B05DF804FBC81A00201C
:1055AC00001A002060910000C41A0020E01A0020AC
:1055BC0000B583B00190009128210198FFF7A9F85C
:1055CC0000990198FEF7FCF9019B034A1A6000BF91
:1055DC0003B05DF804FB00BF7091000000B585B00E
:1055EC00019002F0F3FF019B5B7B002B03D1019B2D
:1055FC001A7B019B5A73019B1B7B002B11D0019BC7
:10560C001B7B202B0DD8019B1B7B1A46394B53F867
:10561C002230002B05D1019B1A7B019B5B7B9A42AC
:10562C0003D964213448FBF78BF8019B5B7B8DF825
:10563C000F30019B5B7B8DF80E30019B1B7B013B7C
:10564C00029310E02B4A029B52F82330002B07D018
:10565C00284A029B52F823305B7B8DF80F3005E013
:10566C00029B013B0293029B002BEBD1019B1B7B0A
:10567C000133029310E01F4A029B52F82330002B97
:10568C0007D01C4A029B52F823305B7B8DF80E30FE
:10569C0005E0029B01330293029B202BEBD9019B6B
:1056AC005B7B9DF80F209A4205D8019B5B7B9DF894
:1056BC000E209A4203D2BE210F48FBF741F8019B02
:1056CC001B7BDB43DAB2019B83F82420019B5B7BC1
:1056DC00DB43DAB2019B83F82520019B1B7B194627
:1056EC00044A019B42F8213002F082FF00BF05B052
:1056FC005DF804FB001A00206891000084B0039050
:10570C0002910192039B00221A60039B029A5A6039
:10571C00019BDAB2039B1A72019B002B05D0039BF1
:10572C0000225A72039B00229A72019BDBB2013356
:10573C00DAB2039BDA72039BDB7ADAB2039B1A733D
:10574C0000BF04B0704782B00190019B002B07D0C2
:10575C00019BDB7803F0F003E02B01D1012300E087
:10576C00002303F00103DBB2184602B070470000BF
:10577C0000B585B0039002910192009302F026FFD0
:10578C00019B002B02D0009B002B04D04FF4967190
:10579C000F48FAF7D5FF02F02BFF019B9AB2039B3F
:1057AC001A80009BDAB2039B9A70039BE022DA709A
:1057BC00039B00225A60039B029A9A60039B00226F
:1057CC00DA60039B00221A6100BF05B05DF804FB90
:1057DC008091000000B587B00190009102F0F6FEB8
:1057EC00019B002B03D064219248FAF7A9FF019A80
:1057FC0013469B0013449B008F4A134405938F4B15
:10580C00DB785BB2002B19DA8C4B1B7C03F00103A9
:10581C00002B13D01F2000F05FFD059BDB685A1C8A
:10582C00059BDA60059BDB68184601F0D7F8019BF5
:10583C00DBB2184600F08CFE00F0F0FD4023049320
:10584C00E5E0059B5B680393039B002B2AD17A4907
:10585C00019A13469B0013449B000B4408331B68AE
:10586C00002B00F0D980059B002B03D16E217148D1
:10587C00FAF766FF7049019A13469B0013449B008C
:10588C000B4408331A68059B5A606B49019A1346FE
:10589C009B0013449B000B44083300221A60059BA9
:1058AC005B6803930398FFF74EFF0346002B03D16D
:1058BC0070216048FAF744FF039BDB68002B10D182
:1058CC00039B5A68059B5A60039B9B78DBB203F0E1
:1058DC007F03DAB2039B9A7002F08AFEBFF36F8FDC
:1058EC0090E0039BDB685A1E039BDA60039BDB682A
:1058FC00002B40F08180039B9B680293039B1B69E8
:10590C00002B06D0039B1A69039BDA60039B05935B
:10591C0034E0039B5A68059B5A60039B9B78DBB26F
:10592C0003F07F03DAB2039B9A70444B1B7903F0AC
:10593C000203002B22D0029B1B7BDB08DBB21A4636
:10594C003E4B13441B7C1A46029B1B7B03F0070344
:10595C0022FA03F303F00103002B0FD0212000F0F7
:10596C00BBFC039801F0C6F8029801F0C3F8019B48
:10597C00DBB2184600F0ECFD00F050FD2F4B1B790C
:10598C0003F02003002B2DD0029B1B7BDB08DBB22A
:10599C001A462A4B13441B7C1A46029B1B7B03F0B2
:1059AC00070322FA03F303F00103002B1AD025207E
:1059BC0000F092FCFBF76CF80346184601F00EF869
:1059CC00039801F097F8039B1B88184600F01CFF06
:1059DC00029801F08FF8019BDBB2184600F0B8FD7D
:1059EC0000F01CFD02F004FE0399009B4FF6FF72C1
:1059FC000298FEF7EBFE05E0039B059302F0F8FD21
:105A0C00BFF36F8F02F0E2FD049B013B0493049BF8
:105A1C00002B7FF416AF00E000BF049B002B03D1DA
:105A2C00BE210448FAF78CFE02F0E2FD00BF07B07D
:105A3C005DF804FB80910000CC1A0020E01A0020D5
:105A4C0000B583B001900091174A019B5360009BF5
:105A5C009AB2154B1A81144B00225A81124B002218
:105A6C009A81114B0022DA810F4B00221A740E4BD3
:105A7C0000225A740C4B00229A746FF0EF0000F065
:105A8C004FF8F02000F028FB074B00221A60002092
:105A9C0000F022FC00F0C2FCFF2001F03FF900BF37
:105AAC0003B05DF804FB00BF001B002082B01B4B51
:105ABC00DB899BB2002B04D14FF6FF73ADF8063097
:105ACC0026E0164B5B680093144B9B89ADF80430B1
